{
  "@Allcontracts/Inventory.sol": {
    "Potato": {
      "abi": [
        {
          "inputs": [],
          "name": "getPotato",
          "outputs": [
            {
              "internalType": "string",
              "name": "",
              "type": "string"
            }
          ],
          "stateMutability": "pure",
          "type": "function"
        },
        {
          "inputs": [],
          "name": "potato",
          "outputs": [
            {
              "internalType": "string",
              "name": "",
              "type": "string"
            }
          ],
          "stateMutability": "view",
          "type": "function"
        }
      ],
      "evm": {
        "bytecode": {
          "linkReferences": {},
          "object": "608060405234801561001057600080fd5b50610351806100206000396000f3fe608060405234801561001057600080fd5b50600436106100365760003560e01c80636e329aa91461003b578063f8dcc9a914610059575b600080fd5b610043610061565b60405161005091906100a3565b60405180910390f35b610043610084565b606060405180610280016040528061024c81526020016100f961024c9139905090565b60405180610280016040528061024c81526020016100f961024c913981565b600060208083528351808285015260005b818110156100d0578581018301518582016040015282016100b4565b818111156100e2576000604083870101525b50601f01601f191692909201604001939250505056fe6956424f5277304b47676f414141414e5355684555674141414473414141413742414d4141414133432b2b41414141414a46424d564555414141444e49536354457850397531582f624142434678502f2f2f2f326644762f7741444d4c7a76656f56433649435741774c68384141414141585253546c4d41514f62595a67414141554e4a524546554f4d76747a7a314f77304151426543774a32425765344464326677426e616577524c65524339644775514249506f426470415a52704536586c6e53636b72636b564a354e545a476e6b5a745062335938752b556376717247586b4e766144627a4a5137576b446532344e6e49596f703342566a513247445154395a6769664b7578775358504c347147324a795a484741656c612b75306d45315172444b4c673255664a475a556655374d48327a6d734d5941354e737471663465723331536a444f6846346d754234724749393444693176656e6a386c587151496e3839473161396d39394830397a6a514f642b6646376142714633615574517a746c513539753255664d3839652b4954766874746d7756437853723156756f2b5363437677686a45533063626e4331526270564836694e6936324f624765547a6d51753342587a366e457a4175567a533933782b4f687178494f6e7a4439385a446f5875464e587635776546463235386474745758774b755464326e595771654b4173737032464a47645773376269586369724a5a7a48633551316a54586b5a4b696e7032684a5766674c663838507a4a6754426531544373654141414141456c46546b5375516d4343a164736f6c6343000807000a",
          "opcodes": "PUSH1 0x80 PUSH1 0x40 MSTORE CALLVALUE DUP1 ISZERO PUSH2 0x10 JUMPI PUSH1 0x0 DUP1 REVERT JUMPDEST POP PUSH2 0x351 DUP1 PUSH2 0x20 PUSH1 0x0 CODECOPY PUSH1 0x0 RETURN INVALID PUSH1 0x80 PUSH1 0x40 MSTORE CALLVALUE DUP1 ISZERO PUSH2 0x10 JUMPI PUSH1 0x0 DUP1 REVERT JUMPDEST POP PUSH1 0x4 CALLDATASIZE LT PUSH2 0x36 JUMPI PUSH1 0x0 CALLDATALOAD PUSH1 0xE0 SHR DUP1 PUSH4 0x6E329AA9 EQ PUSH2 0x3B JUMPI DUP1 PUSH4 0xF8DCC9A9 EQ PUSH2 0x59 JUMPI JUMPDEST PUSH1 0x0 DUP1 REVERT JUMPDEST PUSH2 0x43 PUSH2 0x61 JUMP JUMPDEST PUSH1 0x40 MLOAD PUSH2 0x50 SWAP2 SWAP1 PUSH2 0xA3 JUMP JUMPDEST PUSH1 0x40 MLOAD DUP1 SWAP2 SUB SWAP1 RETURN JUMPDEST PUSH2 0x43 PUSH2 0x84 JUMP JUMPDEST PUSH1 0x60 PUSH1 0x40 MLOAD DUP1 PUSH2 0x280 ADD PUSH1 0x40 MSTORE DUP1 PUSH2 0x24C DUP2 MSTORE PUSH1 0x20 ADD PUSH2 0xF9 PUSH2 0x24C SWAP2 CODECOPY SWAP1 POP SWAP1 JUMP JUMPDEST PUSH1 0x40 MLOAD DUP1 PUSH2 0x280 ADD PUSH1 0x40 MSTORE DUP1 PUSH2 0x24C DUP2 MSTORE PUSH1 0x20 ADD PUSH2 0xF9 PUSH2 0x24C SWAP2 CODECOPY DUP2 JUMP JUMPDEST PUSH1 0x0 PUSH1 0x20 DUP1 DUP4 MSTORE DUP4 MLOAD DUP1 DUP3 DUP6 ADD MSTORE PUSH1 0x0 JUMPDEST DUP2 DUP2 LT ISZERO PUSH2 0xD0 JUMPI DUP6 DUP2 ADD DUP4 ADD MLOAD DUP6 DUP3 ADD PUSH1 0x40 ADD MSTORE DUP3 ADD PUSH2 0xB4 JUMP JUMPDEST DUP2 DUP2 GT ISZERO PUSH2 0xE2 JUMPI PUSH1 0x0 PUSH1 0x40 DUP4 DUP8 ADD ADD MSTORE JUMPDEST POP PUSH1 0x1F ADD PUSH1 0x1F NOT AND SWAP3 SWAP1 SWAP3 ADD PUSH1 0x40 ADD SWAP4 SWAP3 POP POP POP JUMP INVALID PUSH10 0x56424F5277304B47676F COINBASE COINBASE COINBASE COINBASE 0x4E MSTORE8 SSTORE PUSH9 0x455567414141447341 COINBASE COINBASE COINBASE CALLDATACOPY TIMESTAMP COINBASE 0x4D COINBASE COINBASE COINBASE COINBASE CALLER NUMBER 0x2B 0x2B COINBASE COINBASE COINBASE COINBASE COINBASE 0x4A CHAINID TIMESTAMP 0x4D JUMP GASLIMIT SSTORE COINBASE COINBASE COINBASE DIFFICULTY 0x4E 0x49 MSTORE8 PUSH4 0x54457850 CODECOPY PUSH22 0x31582F624142434678502F2F2F2F326644762F774144 0x4D 0x4C PUSH27 0x76656F56433649435741774C68384141414141585253546C4D4151 0x4F PUSH3 0x595A67 COINBASE COINBASE COINBASE SSTORE 0x4E 0x4A MSTORE GASLIMIT CHAINID SSTORE 0x4F 0x4D PUSH23 0x747A7A314F77304151426543774A324257653444643266 PUSH24 0x426E616577524C65524339644775514249506F426470415A MSTORE PUSH17 0x4536586C6E53636B72636B564A354E545A SELFBALANCE PUSH15 0x6B5A745062335938752B5563767172 SELFBALANCE PC PUSH12 0x4E766144627A4A5137576B44 PUSH6 0x32344E6E4959 PUSH16 0x703342566A513247445154395A676966 0x4B PUSH22 0x78775358504C347147324A795A484741656C612B7530 PUSH14 0x45315172444B4C673255664A475A SSTORE PUSH7 0x55374D48327A6D PUSH20 0x4D5941354E737471663465723331536A444F6846 CALLVALUE PUSH14 0x754234724749393444693176656E PUSH11 0x386C587151496E38394731 PUSH2 0x396D CODECOPY CODECOPY BASEFEE ADDRESS CODECOPY PUSH27 0x6A514F642B6646376142714633615574517A746C51353975325566 0x4D CODESIZE CODECOPY PUSH6 0x2B4954766874 PUSH21 0x6D7756437853723156756F2B5363437677686A4553 ADDRESS PUSH4 0x626E4331 MSTORE PUSH3 0x705648 CALLDATASIZE PUSH10 0x4E6936324F624765547A PUSH14 0x51753342587A366E457A4175567A MSTORE8 CODECOPY CALLER PUSH25 0x2B4F687178494F6E7A4439385A446F5875464E587635776546 CHAINID ORIGIN CALLDATALOAD CODESIZE PUSH5 0x7474575877 0x4B PUSH22 0x5464326E595771654B4173737032464A476457733762 PUSH10 0x586369724A5A7A486335 MLOAD BALANCE PUSH11 0x54586B5A4B696E7032684A JUMPI PUSH7 0x674C663838507A 0x4A PUSH8 0x5442653154437365 COINBASE COINBASE COINBASE COINBASE COINBASE GASLIMIT PUSH13 0x46546B5375516D4343A164736F PUSH13 0x6343000807000A000000000000 "
        },
        "methodIdentifiers": {
          "getPotato()": "6e329aa9",
          "potato()": "f8dcc9a9"
        }
      }
    }
  }
}