{
  "@Allcontracts/Inventory.sol": {
    "Backgrounds": {
      "abi": [
        {
          "inputs": [],
          "name": "blue",
          "outputs": [
            {
              "internalType": "string",
              "name": "",
              "type": "string"
            }
          ],
          "stateMutability": "view",
          "type": "function"
        },
        {
          "inputs": [],
          "name": "getBlue",
          "outputs": [
            {
              "internalType": "string",
              "name": "",
              "type": "string"
            }
          ],
          "stateMutability": "pure",
          "type": "function"
        },
        {
          "inputs": [],
          "name": "getGreen",
          "outputs": [
            {
              "internalType": "string",
              "name": "",
              "type": "string"
            }
          ],
          "stateMutability": "pure",
          "type": "function"
        },
        {
          "inputs": [],
          "name": "getPurple",
          "outputs": [
            {
              "internalType": "string",
              "name": "",
              "type": "string"
            }
          ],
          "stateMutability": "pure",
          "type": "function"
        },
        {
          "inputs": [],
          "name": "green",
          "outputs": [
            {
              "internalType": "string",
              "name": "",
              "type": "string"
            }
          ],
          "stateMutability": "view",
          "type": "function"
        },
        {
          "inputs": [],
          "name": "purple",
          "outputs": [
            {
              "internalType": "string",
              "name": "",
              "type": "string"
            }
          ],
          "stateMutability": "view",
          "type": "function"
        }
      ],
      "evm": {
        "bytecode": {
          "linkReferences": {},
          "object": "608060405234801561001057600080fd5b506107c9806100206000396000f3fe608060405234801561001057600080fd5b50600436106100625760003560e01c80632f1fdc3b146100675780635650d70014610085578063cffc5e381461008d578063ed18f0a714610095578063ed44cdd41461009d578063f2f1e132146100a5575b600080fd5b61006f6100ad565b60405161007c9190610173565b60405180910390f35b61006f6100d0565b61006f6100f3565b61006f610116565b61006f610135565b61006f610154565b60606040518061022001604052806101fc81526020016105c16101fc9139905090565b60606040518061022001604052806101fc81526020016103c56101fc9139905090565b60606040518061022001604052806101fc81526020016101c96101fc9139905090565b6040518061022001604052806101fc81526020016103c56101fc913981565b6040518061022001604052806101fc81526020016105c16101fc913981565b6040518061022001604052806101fc81526020016101c96101fc913981565b600060208083528351808285015260005b818110156101a057858101830151858201604001528201610184565b818111156101b2576000604083870101525b50601f01601f191692909201604001939250505056fe6956424f5277304b47676f414141414e5355684555674141414477414141413842414d4141414449307352424141414149474e49556b304141486f6d41414341684141412b6741414149446f414142314d414141366d41414144715941414158634a7936555477414141416255457855526344584c3844584c3844584c3844584c3844584c3844584c3844584c3844584c2f2f2f2f373962375049414141414864464a4f5539726f3466483438506348484252374141414141574a4c5230514968743656656741414141643053553146422b6347464167504257355044516f414141416e5355524256446a4c5932415578414f45474d7a4c38594153686e4238306d576a307150536f394b6a307150536f394c4457426f4152536b784a724e6a597063414141416c64455659644752686447553659334a6c5958526c414449774d6a4d744d4459744d6a42554d4467364d5455364d4455724d4441364d4442546d4c676f414141414a5852465748526b5958526c4f6d31765a476c6d655141794d44497a4c5441324c544977564441344f6a45314f6a41314b7a41774f6a4177497355416c41414141436830525668305a4746305a5470306157316c63335268625841414d6a41794d7930774e6930794d4651774f446f784e546f774e5373774d446f774d48585149557341414141415355564f524b35435949493d6956424f5277304b47676f414141414e5355684555674141414477414141413842414d4141414449307352424141414149474e49556b304141486f6d41414341684141412b6741414149446f414142314d414141366d41414144715941414158634a79365554774141414162554578555263666c7a73666c7a73666c7a73666c7a73666c7a73666c7a73666c7a73666c7a762f2f2f2f50464d4c67414141414864464a4f5539726f3466483438506348484252374141414141574a4c5230514968743656656741414141643053553146422b63474641674f4c367a76395a30414141416e5355524256446a4c5932415578414f45474d7a4c38594153686e4238306d576a307150536f394b6a307150536f394c4457426f4152536b784a724e6a597063414141416c64455659644752686447553659334a6c5958526c414449774d6a4d744d4459744d6a42554d4467364d5451364e4463724d4441364d4443766a387a46414141414a5852465748526b5958526c4f6d31765a476c6d655141794d44497a4c5441324c544977564441344f6a45304f6a51334b7a41774f6a417733744a306551414141436830525668305a4746305a5470306157316c63335268625841414d6a41794d7930774e6930794d4651774f446f784e446f304e7973774d446f774d496e4856615941414141415355564f524b35435949493d6956424f5277304b47676f414141414e5355684555674141414477414141413842414d4141414449307352424141414149474e49556b304141486f6d41414341684141412b6741414149446f414142314d414141366d41414144715941414158634a7936555477414141416255457855526265497662654976626549766265497662654976626549766265497662654976662f2f2f7a5a41534d51414141414864464a4f5539726f3466483438506348484252374141414141574a4c5230514968743656656741414141643053553146422b63474641674f45765348755977414141416e5355524256446a4c5932415578414f45474d7a4c38594153686e4238306d576a307150536f394b6a307150536f394c4457426f4152536b784a724e6a597063414141416c64455659644752686447553659334a6c5958526c414449774d6a4d744d4459744d6a42554d4467364d5451364d5467724d4441364d4441524a374a49414141414a5852465748526b5958526c4f6d31765a476c6d655141794d44497a4c5441324c544977564441344f6a45304f6a45344b7a41774f6a417759486f4b3941414141436830525668305a4746305a5470306157316c63335268625841414d6a41794d7930774e6930794d4651774f446f784e446f784f4373774d446f774d4464764b797341414141415355564f524b35435949493da164736f6c6343000807000a",
          "opcodes": "PUSH1 0x80 PUSH1 0x40 MSTORE CALLVALUE DUP1 ISZERO PUSH2 0x10 JUMPI PUSH1 0x0 DUP1 REVERT JUMPDEST POP PUSH2 0x7C9 DUP1 PUSH2 0x20 PUSH1 0x0 CODECOPY PUSH1 0x0 RETURN INVALID PUSH1 0x80 PUSH1 0x40 MSTORE CALLVALUE DUP1 ISZERO PUSH2 0x10 JUMPI PUSH1 0x0 DUP1 REVERT JUMPDEST POP PUSH1 0x4 CALLDATASIZE LT PUSH2 0x62 JUMPI PUSH1 0x0 CALLDATALOAD PUSH1 0xE0 SHR DUP1 PUSH4 0x2F1FDC3B EQ PUSH2 0x67 JUMPI DUP1 PUSH4 0x5650D700 EQ PUSH2 0x85 JUMPI DUP1 PUSH4 0xCFFC5E38 EQ PUSH2 0x8D JUMPI DUP1 PUSH4 0xED18F0A7 EQ PUSH2 0x95 JUMPI DUP1 PUSH4 0xED44CDD4 EQ PUSH2 0x9D JUMPI DUP1 PUSH4 0xF2F1E132 EQ PUSH2 0xA5 JUMPI JUMPDEST PUSH1 0x0 DUP1 REVERT JUMPDEST PUSH2 0x6F PUSH2 0xAD JUMP JUMPDEST PUSH1 0x40 MLOAD PUSH2 0x7C SWAP2 SWAP1 PUSH2 0x173 JUMP JUMPDEST PUSH1 0x40 MLOAD DUP1 SWAP2 SUB SWAP1 RETURN JUMPDEST PUSH2 0x6F PUSH2 0xD0 JUMP JUMPDEST PUSH2 0x6F PUSH2 0xF3 JUMP JUMPDEST PUSH2 0x6F PUSH2 0x116 JUMP JUMPDEST PUSH2 0x6F PUSH2 0x135 JUMP JUMPDEST PUSH2 0x6F PUSH2 0x154 JUMP JUMPDEST PUSH1 0x60 PUSH1 0x40 MLOAD DUP1 PUSH2 0x220 ADD PUSH1 0x40 MSTORE DUP1 PUSH2 0x1FC DUP2 MSTORE PUSH1 0x20 ADD PUSH2 0x5C1 PUSH2 0x1FC SWAP2 CODECOPY SWAP1 POP SWAP1 JUMP JUMPDEST PUSH1 0x60 PUSH1 0x40 MLOAD DUP1 PUSH2 0x220 ADD PUSH1 0x40 MSTORE DUP1 PUSH2 0x1FC DUP2 MSTORE PUSH1 0x20 ADD PUSH2 0x3C5 PUSH2 0x1FC SWAP2 CODECOPY SWAP1 POP SWAP1 JUMP JUMPDEST PUSH1 0x60 PUSH1 0x40 MLOAD DUP1 PUSH2 0x220 ADD PUSH1 0x40 MSTORE DUP1 PUSH2 0x1FC DUP2 MSTORE PUSH1 0x20 ADD PUSH2 0x1C9 PUSH2 0x1FC SWAP2 CODECOPY SWAP1 POP SWAP1 JUMP JUMPDEST PUSH1 0x40 MLOAD DUP1 PUSH2 0x220 ADD PUSH1 0x40 MSTORE DUP1 PUSH2 0x1FC DUP2 MSTORE PUSH1 0x20 ADD PUSH2 0x3C5 PUSH2 0x1FC SWAP2 CODECOPY DUP2 JUMP JUMPDEST PUSH1 0x40 MLOAD DUP1 PUSH2 0x220 ADD PUSH1 0x40 MSTORE DUP1 PUSH2 0x1FC DUP2 MSTORE PUSH1 0x20 ADD PUSH2 0x5C1 PUSH2 0x1FC SWAP2 CODECOPY DUP2 JUMP JUMPDEST PUSH1 0x40 MLOAD DUP1 PUSH2 0x220 ADD PUSH1 0x40 MSTORE DUP1 PUSH2 0x1FC DUP2 MSTORE PUSH1 0x20 ADD PUSH2 0x1C9 PUSH2 0x1FC SWAP2 CODECOPY DUP2 JUMP JUMPDEST PUSH1 0x0 PUSH1 0x20 DUP1 DUP4 MSTORE DUP4 MLOAD DUP1 DUP3 DUP6 ADD MSTORE PUSH1 0x0 JUMPDEST DUP2 DUP2 LT ISZERO PUSH2 0x1A0 JUMPI DUP6 DUP2 ADD DUP4 ADD MLOAD DUP6 DUP3 ADD PUSH1 0x40 ADD MSTORE DUP3 ADD PUSH2 0x184 JUMP JUMPDEST DUP2 DUP2 GT ISZERO PUSH2 0x1B2 JUMPI PUSH1 0x0 PUSH1 0x40 DUP4 DUP8 ADD ADD MSTORE JUMPDEST POP PUSH1 0x1F ADD PUSH1 0x1F NOT AND SWAP3 SWAP1 SWAP3 ADD PUSH1 0x40 ADD SWAP4 SWAP3 POP POP POP JUMP INVALID PUSH10 0x56424F5277304B47676F COINBASE COINBASE COINBASE COINBASE 0x4E MSTORE8 SSTORE PUSH9 0x455567414141447741 COINBASE COINBASE COINBASE CODESIZE TIMESTAMP COINBASE 0x4D COINBASE COINBASE COINBASE DIFFICULTY 0x49 ADDRESS PUSH20 0x52424141414149474E49556B304141486F6D4141 NUMBER COINBASE PUSH9 0x4141412B6741414149 DIFFICULTY PUSH16 0x414142314D414141366D414141447159 COINBASE COINBASE COINBASE PC PUSH4 0x4A793655 SLOAD PUSH24 0x414141416255457855526344584C3844584C3844584C3844 PC 0x4C CODESIZE DIFFICULTY PC 0x4C CODESIZE DIFFICULTY PC 0x4C CODESIZE DIFFICULTY PC 0x4C CODESIZE DIFFICULTY PC 0x4C 0x2F 0x2F 0x2F 0x2F CALLDATACOPY CODECOPY PUSH3 0x375049 COINBASE COINBASE COINBASE COINBASE BASEFEE PUSH5 0x464A4F5539 PUSH19 0x6F346648343850634848425237414141414157 0x4A 0x4C MSTORE ADDRESS MLOAD 0x49 PUSH9 0x743656656741414141 PUSH5 0x3053553146 TIMESTAMP 0x2B PUSH4 0x47464167 POP TIMESTAMP JUMPI CALLDATALOAD POP DIFFICULTY MLOAD PUSH16 0x414141416E5355524256446A4C593241 SSTORE PUSH25 0x414F45474D7A4C38594153686E4238306D576A307150536F39 0x4B PUSH11 0x307150536F394C4457426F COINBASE MSTORE MSTORE8 PUSH12 0x784A724E6A59706341414141 PUSH13 0x64455659644752686447553659 CALLER 0x4A PUSH13 0x5958526C414449774D6A4D744D DIFFICULTY MSIZE PUSH21 0x4D6A42554D4467364D5455364D4455724D4441364D DIFFICULTY TIMESTAMP SLOAD PUSH14 0x4C676F414141414A585246574852 PUSH12 0x5958526C4F6D31765A476C6D PUSH6 0x5141794D4449 PUSH27 0x4C5441324C544977564441344F6A45314F6A41314B7A41774F6A41 PUSH24 0x497355416C41414141436830525668305A4746305A547030 PUSH2 0x5731 PUSH13 0x63335268625841414D6A41794D PUSH26 0x30774E6930794D4651774F446F784E546F774E5373774D446F77 0x4D BASEFEE PC MLOAD 0x49 SSTORE PUSH20 0x41414141415355564F524B35435949493D695642 0x4F MSTORE PUSH24 0x304B47676F414141414E5355684555674141414477414141 COINBASE CODESIZE TIMESTAMP COINBASE 0x4D COINBASE COINBASE COINBASE DIFFICULTY 0x49 ADDRESS PUSH20 0x52424141414149474E49556B304141486F6D4141 NUMBER COINBASE PUSH9 0x4141412B6741414149 DIFFICULTY PUSH16 0x414142314D414141366D414141447159 COINBASE COINBASE COINBASE PC PUSH4 0x4A793655 SLOAD PUSH24 0x4141414162554578555263666C7A73666C7A73666C7A7366 PUSH13 0x7A73666C7A73666C7A73666C7A PUSH20 0x666C7A762F2F2F2F50464D4C6741414141486446 0x4A 0x4F SSTORE CODECOPY PUSH19 0x6F346648343850634848425237414141414157 0x4A 0x4C MSTORE ADDRESS MLOAD 0x49 PUSH9 0x743656656741414141 PUSH5 0x3053553146 TIMESTAMP 0x2B PUSH4 0x47464167 0x4F 0x4C CALLDATASIZE PUSH27 0x76395A30414141416E5355524256446A4C5932415578414F45474D PUSH27 0x4C38594153686E4238306D576A307150536F394B6A307150536F39 0x4C DIFFICULTY JUMPI TIMESTAMP PUSH16 0x4152536B784A724E6A59706341414141 PUSH13 0x64455659644752686447553659 CALLER 0x4A PUSH13 0x5958526C414449774D6A4D744D DIFFICULTY MSIZE PUSH21 0x4D6A42554D4467364D5451364E4463724D4441364D DIFFICULTY NUMBER PUSH23 0x6A387A46414141414A5852465748526B5958526C4F6D31 PUSH23 0x5A476C6D655141794D44497A4C5441324C544977564441 CALLVALUE 0x4F PUSH11 0x45304F6A51334B7A41774F PUSH11 0x417733744A306551414141 NUMBER PUSH9 0x30525668305A474630 GAS SLOAD PUSH17 0x306157316C63335268625841414D6A4179 0x4D PUSH26 0x30774E6930794D4651774F446F784E446F304E7973774D446F77 0x4D 0x49 PUSH15 0x4856615941414141415355564F524B CALLDATALOAD NUMBER MSIZE 0x49 0x49 RETURNDATASIZE PUSH10 0x56424F5277304B47676F COINBASE COINBASE COINBASE COINBASE 0x4E MSTORE8 SSTORE PUSH9 0x455567414141447741 COINBASE COINBASE COINBASE CODESIZE TIMESTAMP COINBASE 0x4D COINBASE COINBASE COINBASE DIFFICULTY 0x49 ADDRESS PUSH20 0x52424141414149474E49556B304141486F6D4141 NUMBER COINBASE PUSH9 0x4141412B6741414149 DIFFICULTY PUSH16 0x414142314D414141366D414141447159 COINBASE COINBASE COINBASE PC PUSH4 0x4A793655 SLOAD PUSH24 0x414141416255457855526265497662654976626549766265 0x49 PUSH23 0x62654976626549766265497662654976662F2F2F7A5A41 MSTORE8 0x4D MLOAD COINBASE COINBASE COINBASE COINBASE BASEFEE PUSH5 0x464A4F5539 PUSH19 0x6F346648343850634848425237414141414157 0x4A 0x4C MSTORE ADDRESS MLOAD 0x49 PUSH9 0x743656656741414141 PUSH5 0x3053553146 TIMESTAMP 0x2B PUSH4 0x47464167 0x4F GASLIMIT PUSH23 0x5348755977414141416E5355524256446A4C5932415578 COINBASE 0x4F GASLIMIT SELFBALANCE 0x4D PUSH27 0x4C38594153686E4238306D576A307150536F394B6A307150536F39 0x4C DIFFICULTY JUMPI TIMESTAMP PUSH16 0x4152536B784A724E6A59706341414141 PUSH13 0x64455659644752686447553659 CALLER 0x4A PUSH13 0x5958526C414449774D6A4D744D DIFFICULTY MSIZE PUSH21 0x4D6A42554D4467364D5451364D5467724D4441364D DIFFICULTY COINBASE MSTORE 0x4A CALLDATACOPY 0x4A 0x49 COINBASE COINBASE COINBASE COINBASE 0x4A PC MSTORE CHAINID JUMPI BASEFEE MSTORE PUSH12 0x5958526C4F6D31765A476C6D PUSH6 0x5141794D4449 PUSH27 0x4C5441324C544977564441344F6A45304F6A45344B7A41774F6A41 PUSH24 0x59486F4B3941414141436830525668305A4746305A547030 PUSH2 0x5731 PUSH13 0x63335268625841414D6A41794D PUSH26 0x30774E6930794D4651774F446F784E446F784F4373774D446F77 0x4D DIFFICULTY PUSH5 0x764B797341 COINBASE COINBASE COINBASE COINBASE MSTORE8 SSTORE JUMP 0x4F MSTORE 0x4B CALLDATALOAD NUMBER MSIZE 0x49 0x49 RETURNDATASIZE LOG1 PUSH5 0x736F6C6343 STOP ADDMOD SMOD STOP EXP "
        },
        "methodIdentifiers": {
          "blue()": "ed18f0a7",
          "getBlue()": "5650d700",
          "getGreen()": "cffc5e38",
          "getPurple()": "2f1fdc3b",
          "green()": "f2f1e132",
          "purple()": "ed44cdd4"
        }
      }
    }
  }
}