{
  "@Allcontracts/InventoryManager.sol": {
    "InventoryManager": {
      "abi": [
        {
          "inputs": [],
          "stateMutability": "nonpayable",
          "type": "constructor"
        },
        {
          "inputs": [
            {
              "internalType": "uint8",
              "name": "",
              "type": "uint8"
            }
          ],
          "name": "backgrounds",
          "outputs": [
            {
              "internalType": "address",
              "name": "",
              "type": "address"
            }
          ],
          "stateMutability": "view",
          "type": "function"
        },
        {
          "inputs": [],
          "name": "footer",
          "outputs": [
            {
              "internalType": "string",
              "name": "",
              "type": "string"
            }
          ],
          "stateMutability": "view",
          "type": "function"
        },
        {
          "inputs": [
            {
              "internalType": "enum InventoryManager.Part",
              "name": "part",
              "type": "uint8"
            },
            {
              "internalType": "uint8",
              "name": "id",
              "type": "uint8"
            }
          ],
          "name": "get",
          "outputs": [
            {
              "internalType": "string",
              "name": "svg",
              "type": "string"
            }
          ],
          "stateMutability": "view",
          "type": "function"
        },
        {
          "inputs": [
            {
              "internalType": "uint8",
              "name": "background_",
              "type": "uint8"
            },
            {
              "internalType": "uint8",
              "name": "hand_type_",
              "type": "uint8"
            },
            {
              "internalType": "bool",
              "name": "hasPotato_",
              "type": "bool"
            },
            {
              "internalType": "uint32",
              "name": "generation_",
              "type": "uint32"
            },
            {
              "internalType": "bool",
              "name": "isActive_",
              "type": "bool"
            }
          ],
          "name": "getAttributes",
          "outputs": [
            {
              "internalType": "string",
              "name": "",
              "type": "string"
            }
          ],
          "stateMutability": "pure",
          "type": "function"
        },
        {
          "inputs": [
            {
              "internalType": "uint8",
              "name": "id",
              "type": "uint8"
            }
          ],
          "name": "getBackgroundName",
          "outputs": [
            {
              "internalType": "string",
              "name": "",
              "type": "string"
            }
          ],
          "stateMutability": "pure",
          "type": "function"
        },
        {
          "inputs": [
            {
              "internalType": "uint8",
              "name": "id",
              "type": "uint8"
            }
          ],
          "name": "getHandName",
          "outputs": [
            {
              "internalType": "string",
              "name": "",
              "type": "string"
            }
          ],
          "stateMutability": "pure",
          "type": "function"
        },
        {
          "inputs": [
            {
              "internalType": "uint8",
              "name": "background_",
              "type": "uint8"
            },
            {
              "internalType": "uint8",
              "name": "hand_type_",
              "type": "uint8"
            },
            {
              "internalType": "bool",
              "name": "hasPotato_",
              "type": "bool"
            },
            {
              "internalType": "uint8",
              "name": "potato_",
              "type": "uint8"
            }
          ],
          "name": "getSVG",
          "outputs": [
            {
              "internalType": "string",
              "name": "",
              "type": "string"
            }
          ],
          "stateMutability": "view",
          "type": "function"
        },
        {
          "inputs": [
            {
              "internalType": "uint8",
              "name": "background_",
              "type": "uint8"
            },
            {
              "internalType": "uint8",
              "name": "hand_type_",
              "type": "uint8"
            },
            {
              "internalType": "bool",
              "name": "hasPotato_",
              "type": "bool"
            },
            {
              "internalType": "uint8",
              "name": "potato_",
              "type": "uint8"
            }
          ],
          "name": "getSVGInterface",
          "outputs": [
            {
              "internalType": "string",
              "name": "",
              "type": "string"
            }
          ],
          "stateMutability": "view",
          "type": "function"
        },
        {
          "inputs": [
            {
              "internalType": "uint16",
              "name": "id_",
              "type": "uint16"
            },
            {
              "internalType": "uint8",
              "name": "background_",
              "type": "uint8"
            },
            {
              "internalType": "uint8",
              "name": "hand_type_",
              "type": "uint8"
            },
            {
              "internalType": "bool",
              "name": "hasPotato_",
              "type": "bool"
            },
            {
              "internalType": "uint32",
              "name": "generation_",
              "type": "uint32"
            },
            {
              "internalType": "bool",
              "name": "isActive_",
              "type": "bool"
            },
            {
              "internalType": "uint8",
              "name": "potato_",
              "type": "uint8"
            }
          ],
          "name": "getTokenURI",
          "outputs": [
            {
              "internalType": "string",
              "name": "",
              "type": "string"
            }
          ],
          "stateMutability": "view",
          "type": "function"
        },
        {
          "inputs": [
            {
              "internalType": "uint8",
              "name": "",
              "type": "uint8"
            }
          ],
          "name": "hand_types",
          "outputs": [
            {
              "internalType": "address",
              "name": "",
              "type": "address"
            }
          ],
          "stateMutability": "view",
          "type": "function"
        },
        {
          "inputs": [],
          "name": "header",
          "outputs": [
            {
              "internalType": "string",
              "name": "",
              "type": "string"
            }
          ],
          "stateMutability": "view",
          "type": "function"
        },
        {
          "inputs": [],
          "name": "manager",
          "outputs": [
            {
              "internalType": "address",
              "name": "",
              "type": "address"
            }
          ],
          "stateMutability": "view",
          "type": "function"
        },
        {
          "inputs": [
            {
              "internalType": "uint8",
              "name": "",
              "type": "uint8"
            }
          ],
          "name": "potatoes",
          "outputs": [
            {
              "internalType": "address",
              "name": "",
              "type": "address"
            }
          ],
          "stateMutability": "view",
          "type": "function"
        },
        {
          "inputs": [
            {
              "internalType": "uint8",
              "name": "count",
              "type": "uint8"
            },
            {
              "internalType": "address",
              "name": "source",
              "type": "address"
            }
          ],
          "name": "setBackgrounds",
          "outputs": [],
          "stateMutability": "nonpayable",
          "type": "function"
        },
        {
          "inputs": [
            {
              "internalType": "uint8",
              "name": "count",
              "type": "uint8"
            },
            {
              "internalType": "address",
              "name": "source",
              "type": "address"
            }
          ],
          "name": "setHands",
          "outputs": [],
          "stateMutability": "nonpayable",
          "type": "function"
        },
        {
          "inputs": [
            {
              "internalType": "uint8",
              "name": "count",
              "type": "uint8"
            },
            {
              "internalType": "address",
              "name": "source",
              "type": "address"
            }
          ],
          "name": "setPotatoes",
          "outputs": [],
          "stateMutability": "nonpayable",
          "type": "function"
        }
      ],
      "evm": {
        "bytecode": {
          "linkReferences": {},
          "object": "608060405234801561001057600080fd5b50600180546001600160a01b031916331790556127bc806100326000396000f3fe608060405234801561001057600080fd5b50600436106100d05760003560e01c80630d7163c6146100d5578063158eb4e5146100f357806322c414eb146101085780632544c8151461011b5780633ce301851461012e578063428bff6b146101365780634342e65214610149578063481c6a751461015c57806352b7652214610187578063646c1464146101b0578063915bb1291461011b57806395fb756a146101c3578063b6046d7c146101ec578063b6934925146101ff578063c349556714610212578063f9ec93d41461023b575b600080fd5b6100dd61024e565b6040516100ea919061243d565b60405180910390f35b610106610101366004611eb2565b61026a565b005b6100dd610116366004611e90565b6102ef565b6100dd610129366004611f5a565b610a69565b6100dd610b06565b610106610144366004611eb2565b610b23565b6100dd610157366004611e90565b610b9a565b60015461016f906001600160a01b031681565b6040516001600160a01b0390911681526020016100ea565b61016f610195366004611e90565b6004602052600090815260409020546001600160a01b031681565b6100dd6101be366004611ef5565b610e5f565b61016f6101d1366004611e90565b6003602052600090815260409020546001600160a01b031681565b6100dd6101fa366004611e01565b610f34565b61010661020d366004611eb2565b610fbf565b61016f610220366004611e90565b6002602052600090815260409020546001600160a01b031681565b6100dd610249366004611d27565b611036565b6040518060c0016040528060a081526020016125e560a0913981565b6001546001600160a01b0316331461029d5760405162461bcd60e51b815260040161029490612470565b60405180910390fd5b60015b8260ff168160ff16116102ea5760ff8116600090815260036020526040902080546001600160a01b0319166001600160a01b038416179055806102e281612542565b9150506102a0565b505050565b606060298260ff1611610a3a57600a8260ff1610156104735760058260ff16101561039f5760038260ff161015610373578160ff1660011461034e5760405180604001604052806005815260200164576869746560d81b81525061036d565b60405180604001604052806005815260200164576869746560d81b8152505b92915050565b8160ff1660031461034e57604051806040016040528060038152602001622a30b760e91b81525061036d565b60078260ff1610156103f6578160ff166005146103d757604051806040016040528060038152602001622a30b760e91b81525061036d565b50506040805180820190915260038152622a30b760e91b602082015290565b8160ff16600714610452578160ff1660081461042f5760405180604001604052806005815260200164213937bbb760d91b81525061036d565b60405180604001604052806005815260200164213937bbb760d91b81525061036d565b5050604080518082019091526005815264213937bbb760d91b602082015290565b600f8260ff161161054457600d8260ff1610156104e6578160ff16600a14610452578160ff16600b146104c35760405180604001604052806005815260200164426c61636b60d81b81525061036d565b60405180604001604052806005815260200164426c61636b60d81b81525061036d565b8160ff16600d14610523578160ff16600e146104c35760405180604001604052806009815260200168566974696c6967696f60b81b81525061036d565b5050604080518082019091526005815264426c61636b60d81b602082015290565b60148260ff161161063f5760128260ff1610156105b2578160ff1660101461058d5760405180604001604052806009815260200168566974696c6967696f60b81b81525061036d565b5050604080518082019091526009815268566974696c6967696f60b81b602082015290565b8160ff16601214610619578160ff166013146105f1576040518060400160405280600b81526020016a477265656e20536c696d6560a81b81525061036d565b6040518060400160405280600a815260200169426c756520536c696d6560b01b81525061036d565b505060408051808201909152600a815269426c756520536c696d6560b01b602082015290565b60198260ff161161073d5760178260ff1610156106b1578160ff1660151461068a576040518060400160405280600b81526020016a477265656e20536c696d6560a81b81525061036d565b505060408051808201909152600b81526a477265656e20536c696d6560a81b602082015290565b8160ff16601714610717578160ff166018146106ef576040518060400160405280600a815260200169427562626c652047756d60b01b81525061036d565b6040518060400160405280600a815260200169427562626c652047756d60b01b81525061036d565b505060408051808201909152600a815269427562626c652047756d60b01b602082015290565b601e8260ff161161083c57601c8260ff1610156107b1578160ff16601a14610789576040518060400160405280600c81526020016b23b932b2b71023b7b13634b760a11b81525061036d565b505060408051808201909152600c81526b23b932b2b71023b7b13634b760a11b602082015290565b8160ff16601c1461081a578160ff16601d146107f2576040518060400160405280600d81526020016c2cb2b63637bb9023b7b13634b760991b81525061036d565b6040518060400160405280600a8152602001692932b21023b7b13634b760b11b81525061036d565b50506040805180820190915260068152655a6f6d62696560d01b602082015290565b60208260ff1611610898578160ff16601f146108775760405180604001604052806007815260200166506c617374696360c81b81525061036d565b505060408051808201909152600581526453756c6c7960d81b602082015290565b60228260ff16116108f5578160ff166021146108d4576040518060400160405280600881526020016729b5b2b632ba37b760c11b81525061036d565b50506040805180820190915260058152642a34b3b2b960d91b602082015290565b60248260ff1611610956578160ff166023146109305760405180604001604052806007815260200166476f72696c6c6160c81b81525061036d565b505060408051808201909152600a81526929b737bb902a34b3b2b960b11b602082015290565b60268260ff16116109b1578160ff1660251461099157604051806040016040528060078152602001660a6e2eac2e8c6d60cb1b81525061036d565b50506040805180820190915260048152635965746960e01b602082015290565b60288260ff1611610a0c578160ff166027146109eb5760405180604001604052806006815260200165436f736d696360d01b81525061036d565b5050604080518082019091526005815264537465766560d81b602082015290565b8160ff1660291415610a3a57505060408051808201909152600681526550697261746560d01b602082015290565b5050604080518082019091526013815272115c9c9bdc8e881259081b9bdd08199bdd5b99606a1b602082015290565b60606040518060c0016040528060a081526020016125e560a09139610a8f600087611036565b610a9a600187611036565b85610ab45760405180602001604052806000815250610abf565b610abf600286611036565b60405180610120016040528060eb81526020016126c560eb9139604051602001610aed959493929190611fe6565b6040516020818303038152906040529050949350505050565b60405180610120016040528060eb81526020016126c560eb913981565b6001546001600160a01b03163314610b4d5760405162461bcd60e51b815260040161029490612470565b60015b8260ff168160ff16116102ea5760ff8116600090815260026020526040902080546001600160a01b0319166001600160a01b03841617905580610b9281612542565b915050610b50565b606060148260ff1611610a3a57600a8260ff161015610cd85760058260ff161015610c455760038260ff161015610c18578160ff16600114610bf85760405180604001604052806004815260200163426c756560e01b81525061036d565b5050604080518082019091526004815263426c756560e01b602082015290565b8160ff16600314610bf85760405180604001604052806004815260200163426c756560e01b81525061036d565b60078260ff161015610c7e578160ff16600514610bf85760405180604001604052806004815260200163426c756560e01b81525061036d565b8160ff16600714610bf8578160ff16600814610cb65760405180604001604052806004815260200163426c756560e01b81525061036d565b60405180604001604052806004815260200163426c756560e01b81525061036d565b600f8260ff1611610da557600d8260ff161015610d28578160ff16600a14610bf8578160ff16600b14610cb6576040518060400160405280600581526020016423b932b2b760d91b81525061036d565b8160ff16600d14610d84578160ff16600e14610d61576040518060400160405280600581526020016423b932b2b760d91b81525061036d565b6040518060400160405280600581526020016423b932b2b760d91b81525061036d565b505060408051808201909152600581526423b932b2b760d91b602082015290565b60128260ff161015610ddf578160ff16601014610d84576040518060400160405280600581526020016423b932b2b760d91b81525061036d565b8160ff16601214610e3d578160ff16601314610e195760405180604001604052806006815260200165507572706c6560d01b81525061036d565b60405180604001604052806006815260200165507572706c6560d01b81525061036d565b5050604080518082019091526006815265507572706c6560d01b602082015290565b6060610e6a86611a22565b610e7386611a53565b85610e9857604051806040016040528060028152602001614e6f60f01b815250610eb5565b6040518060400160405280600381526020016259657360e81b8152505b610ec48663ffffffff16611a6e565b85610ee957604051806040016040528060028152602001614e6f60f01b815250610f06565b6040518060400160405280600381526020016259657360e81b8152505b604051602001610f1a959493929190612252565b604051602081830303815290604052905095945050505050565b60606000610f4c610f4789898987610a69565b611b73565b9050610f92610f5e8a61ffff16611a6e565b82610f6c8b8b8b8b8b610e5f565b604051602001610f7e93929190612172565b604051602081830303815290604052611b73565b604051602001610fa291906123f8565b604051602081830303815290604052915050979650505050505050565b6001546001600160a01b03163314610fe95760405162461bcd60e51b815260040161029490612470565b60015b8260ff168160ff16116102ea5760ff8116600090815260046020526040902080546001600160a01b0319166001600160a01b0384161790558061102e81612542565b915050610fec565b606060008084600281111561104d5761104d6125a2565b1415611075575060ff82166000908152600260205260409020546001600160a01b0316611124565b6001846002811115611089576110896125a2565b14156110b1575060ff82166000908152600360205260409020546001600160a01b0316611124565b60028460028111156110c5576110c56125a2565b14156110ed575060ff82166000908152600460205260409020546001600160a01b0316611124565b60405162461bcd60e51b815260206004820152600c60248201526b1a5b9d985b1a59081c185c9d60a21b6044820152606401610294565b6060600085600281111561113a5761113a6125a2565b141561124a578360ff166001111580156111585750600b8460ff1611155b156111835750604080518082019091526009815268676574426c7565282960b81b6020820152611912565b8360ff16600b10801561119a575060118460ff1611155b156111c6575060408051808201909152600a815269676574477265656e282960b01b6020820152611912565b8360ff1660111080156111dd575060148460ff1611155b1561120a575060408051808201909152600b81526a676574507572706c65282960a81b6020820152611912565b60405162461bcd60e51b8152602060048201526015602482015274125b9d985b1a5908109858dad9dc9bdd5b99081259605a1b6044820152606401610294565b600185600281111561125e5761125e6125a2565b14156118d4578360ff1660011115801561127c575060038460ff1611155b156112a8575060408051808201909152600a81526967657448616e6431282960b01b6020820152611912565b8360ff1660031080156112bf575060068460ff1611155b156112eb575060408051808201909152600a81526967657448616e6432282960b01b6020820152611912565b8360ff1660061080156113025750600a8460ff1611155b1561132e575060408051808201909152600a81526967657448616e6433282960b01b6020820152611912565b8360ff16600a1080156113455750600e8460ff1611155b15611371575060408051808201909152600a81526967657448616e6434282960b01b6020820152611912565b8360ff16600e108015611388575060118460ff1611155b156113b7575060408051808201909152600d81526c676574566974696c69676f282960981b6020820152611912565b8360ff1660111080156113ce575060138460ff1611155b156113fe575060408051808201909152600e81526d676574426c7565536c696d65282960901b6020820152611912565b8360ff166013108015611415575060168460ff1611155b15611446575060408051808201909152600f81526e676574477265656e536c696d65282960881b6020820152611912565b8360ff16601610801561145d575060198460ff1611155b1561148d575060408051808201909152600e81526d676574427562626c6547756d282960901b6020820152611912565b8360ff1660191080156114a45750601b8460ff1611155b156114d6575060408051808201909152601081526f676574477265656e476f626c696e282960801b6020820152611912565b8360ff16601b1080156114ed5750601c8460ff1611155b1561151a575060408051808201909152600b81526a6765745a6f6d626965282960a81b6020820152611912565b8360ff16601c1080156115315750601d8460ff1611155b15611561575060408051808201909152600e81526d676574526564476f626c696e282960901b6020820152611912565b8360ff16601d1080156115785750601e8460ff1611155b156115ab575060408051808201909152601181527067657459656c6c6f77476f626c696e282960781b6020820152611912565b8360ff16601e1080156115c25750601f8460ff1611155b156115ee575060408051808201909152600a81526967657453756c6c79282960b01b6020820152611912565b8360ff16601f108015611605575060208460ff1611155b15611633575060408051808201909152600c81526b676574506c6173746963282960a01b6020820152611912565b8360ff16602010801561164a575060218460ff1611155b15611676575060408051808201909152600a8152696765745469676572282960b01b6020820152611912565b8360ff16602110801561168d575060228460ff1611155b156116bc575060408051808201909152600d81526c676574536b656c65746f6e282960981b6020820152611912565b8360ff1660221080156116d3575060238460ff1611155b15611703575060408051808201909152600e81526d676574536e6f775469676572282960901b6020820152611912565b8360ff16602310801561171a575060248460ff1611155b15611748575060408051808201909152600c81526b676574476f72696c6c61282960a01b6020820152611912565b8360ff16602410801561175f575060258460ff1611155b1561178a575060408051808201909152600981526867657459657469282960b81b6020820152611912565b8360ff1660251080156117a1575060268460ff1611155b156117cf575060408051808201909152600c81526b67657453717561746368282960a01b6020820152611912565b8360ff1660261080156117e6575060278460ff1611155b15611812575060408051808201909152600a8152696765745374657665282960b01b6020820152611912565b8360ff166027108015611829575060288460ff1611155b15611856575060408051808201909152600b81526a676574436f736d6963282960a81b6020820152611912565b8360ff16602810801561186d575060298460ff1611155b1561189a575060408051808201909152600b81526a676574506972617465282960a81b6020820152611912565b60405162461bcd60e51b815260206004820152600f60248201526e125b9d985b1a590812185b99081259608a1b6044820152606401610294565b60028560028111156118e8576118e86125a2565b14156110ed575060408051808201909152600b81526a676574506f7461746f282960a81b60208201525b6040805160048152602481019182905260009182916001600160a01b0386169161193d908690611fca565b60408051918290039091206020830180516001600160e01b03166001600160e01b0319909216919091179052516119749190611fca565b600060405180830381855afa9150503d80600081146119af576040519150601f19603f3d011682016040523d82523d6000602084013e6119b4565b606091505b5091509150816119fb5760405162461bcd60e51b81526020600482015260126024820152716661696c656420746f20676574206461746160701b6044820152606401610294565b611a1781806020019051810190611a129190611d60565b611cda565b979650505050505050565b6060611a2d82610b9a565b604051602001611a3d91906123b2565b6040516020818303038152906040529050919050565b6060611a5e826102ef565b604051602001611a3d9190612113565b606081611a925750506040805180820190915260018152600360fc1b602082015290565b8160005b8115611abc5780611aa681612527565b9150611ab59050600a836124ad565b9150611a96565b6000816001600160401b03811115611ad657611ad66125ce565b6040519080825280601f01601f191660200182016040528015611b00576020820181803683370190505b5090505b8415611b6b57611b156001836124e0565b9150611b22600a86612562565b611b2d906030612495565b60f81b818381518110611b4257611b426125b8565b60200101906001600160f81b031916908160001a905350611b64600a866124ad565b9450611b04565b949350505050565b6060815160001415611b9357505060408051602081019091526000815290565b60006040518060600160405280604081526020016126856040913990506000600384516002611bc29190612495565b611bcc91906124ad565b611bd79060046124c1565b90506000611be6826020612495565b6001600160401b03811115611bfd57611bfd6125ce565b6040519080825280601f01601f191660200182016040528015611c27576020820181803683370190505b509050818152600183018586518101602084015b81831015611c955760039283018051603f601282901c811687015160f890811b8552600c83901c8216880151811b6001860152600683901c8216880151811b60028601529116860151901b93820193909352600401611c3b565b600389510660018114611caf5760028114611cc057611ccc565b613d3d60f01b600119830152611ccc565b603d60f81b6000198301525b509398975050505050505050565b606081604051602001611a3d9190612051565b80358015158114611cfd57600080fd5b919050565b803563ffffffff81168114611cfd57600080fd5b803560ff81168114611cfd57600080fd5b60008060408385031215611d3a57600080fd5b823560038110611d4957600080fd5b9150611d5760208401611d16565b90509250929050565b600060208284031215611d7257600080fd5b81516001600160401b0380821115611d8957600080fd5b818401915084601f830112611d9d57600080fd5b815181811115611daf57611daf6125ce565b604051601f8201601f19908116603f01168101908382118183101715611dd757611dd76125ce565b81604052828152876020848701011115611df057600080fd5b611a178360208301602088016124f7565b600080600080600080600060e0888a031215611e1c57600080fd5b873561ffff81168114611e2e57600080fd5b9650611e3c60208901611d16565b9550611e4a60408901611d16565b9450611e5860608901611ced565b9350611e6660808901611d02565b9250611e7460a08901611ced565b9150611e8260c08901611d16565b905092959891949750929550565b600060208284031215611ea257600080fd5b611eab82611d16565b9392505050565b60008060408385031215611ec557600080fd5b611ece83611d16565b915060208301356001600160a01b0381168114611eea57600080fd5b809150509250929050565b600080600080600060a08688031215611f0d57600080fd5b611f1686611d16565b9450611f2460208701611d16565b9350611f3260408701611ced565b9250611f4060608701611d02565b9150611f4e60808701611ced565b90509295509295909350565b60008060008060808587031215611f7057600080fd5b611f7985611d16565b9350611f8760208601611d16565b9250611f9560408601611ced565b9150611fa360608601611d16565b905092959194509250565b60008151611fc08185602086016124f7565b9290920192915050565b60008251611fdc8184602087016124f7565b9190910192915050565b60008651611ff8818460208b016124f7565b86519083019061200c818360208b016124f7565b865191019061201f818360208a016124f7565b85519101906120328183602089016124f7565b84519101906120458183602088016124f7565b01979650505050505050565b7f3c696d6167652077696474683d22363022206865696768743d2236302220696d81527f6167652d72656e646572696e673d22706978656c61746564222070726573657260208201527f7665417370656374526174696f3d22784d6964594d69642220786c696e6b3a6860408201527a1c99598f4899185d184e9a5b5859d94bdc1b99ced8985cd94d8d0b602a1b6060820152600082516120f981607b8501602087016124f7565b6211179f60e91b607b939091019283015250607e01919050565b7f7b2274726169745f74797065223a2248616e642054797065222c202276616c7581526432911d101160d91b6020820152600082516121598160258501602087016124f7565b61227d60f01b6025939091019283015250602701919050565b707b226e616d65223a2022546f6b656e202360781b8152835160009061219f8160118501602089016124f7565b7f222c20226465736372697074696f6e223a2022412073696d706c6520546f6b656011918401918201527f6e222c2022696d616765223a2022646174613a696d6167652f7376672b786d6c6031820152670ed8985cd94d8d0b60c21b605182015284516122138160598401602089016124f7565b6201116160ed1b60599290910191820152835161223781605c8401602088016124f7565b607d60f81b605c9290910191820152605d0195945050505050565b6e2261747472696275746573223a205b60881b8152855160009061227d81600f850160208b016124f7565b600b60fa1b600f91840191820152865161229e816010840160208b016124f7565b7f2c7b2274726169745f74797065223a2022506f7461746f222c202276616c75656010929091019182015262111d1160e91b603082015285516122e8816033840160208a016124f7565b7f227d2c7b22646973706c61795f74797065223a20226e756d626572222c227472603392909101918201527f6169745f74797065223a202247656e65726174696f6e222c202276616c7565226053820152611d1160f11b60738201526123a661239761239161235a6075850189611fae565b7f227d2c7b2274726169745f74797065223a2022416374697665222c202276616c8152643ab2911d1160d91b602082015260250190565b86611fae565b62227d5d60e81b815260030190565b98975050505050505050565b7f7b2274726169745f74797065223a224261636b67726f756e64222c202276616c8152643ab2911d1160d91b6020820152600082516121598160258501602087016124f7565b7f646174613a6170706c69636174696f6e2f6a736f6e3b6261736536342c00000081526000825161243081601d8501602087016124f7565b91909101601d0192915050565b602081526000825180602084015261245c8160408501602087016124f7565b601f01601f19169190910160400192915050565b6020808252600b908201526a3737ba1036b0b730b3b2b960a91b604082015260600190565b600082198211156124a8576124a8612576565b500190565b6000826124bc576124bc61258c565b500490565b60008160001904831182151516156124db576124db612576565b500290565b6000828210156124f2576124f2612576565b500390565b60005b838110156125125781810151838201526020016124fa565b83811115612521576000848401525b50505050565b600060001982141561253b5761253b612576565b5060010190565b600060ff821660ff81141561255957612559612576565b60010192915050565b6000826125715761257161258c565b500690565b634e487b7160e01b600052601160045260246000fd5b634e487b7160e01b600052601260045260246000fd5b634e487b7160e01b600052602160045260246000fd5b634e487b7160e01b600052603260045260246000fd5b634e487b7160e01b600052604160045260246000fdfe3c7376672069643d226261636b6275726e6572222077696474683d223130302522206865696768743d2231303025222076657273696f6e3d22312e31222076696577426f783d223020302036302036302220786d6c6e733d22687474703a2f2f7777772e77332e6f72672f323030302f7376672220786d6c6e733a786c696e6b3d22687474703a2f2f7777772e77332e6f72672f313939392f786c696e6b223e4142434445464748494a4b4c4d4e4f505152535455565758595a6162636465666768696a6b6c6d6e6f707172737475767778797a303132333435363738392b2f3c7374796c653e236261636b6275726e65727b73686170652d72656e646572696e673a20637269737065646765733b20696d6167652d72656e646572696e673a202d7765626b69742d63726973702d65646765733b20696d6167652d72656e646572696e673a202d6d6f7a2d63726973702d65646765733b20696d6167652d72656e646572696e673a2063726973702d65646765733b20696d6167652d72656e646572696e673a20706978656c617465643b202d6d732d696e746572706f6c6174696f6e2d6d6f64653a206e6561726573742d6e65696768626f723b7d3c2f7374796c653e3c2f7376673ea164736f6c6343000807000a",
          "opcodes": "PUSH1 0x80 PUSH1 0x40 MSTORE CALLVALUE DUP1 ISZERO PUSH2 0x10 JUMPI PUSH1 0x0 DUP1 REVERT JUMPDEST POP PUSH1 0x1 DUP1 SLOAD PUSH1 0x1 PUSH1 0x1 PUSH1 0xA0 SHL SUB NOT AND CALLER OR SWAP1 SSTORE PUSH2 0x27BC DUP1 PUSH2 0x32 PUSH1 0x0 CODECOPY PUSH1 0x0 RETURN INVALID PUSH1 0x80 PUSH1 0x40 MSTORE CALLVALUE DUP1 ISZERO PUSH2 0x10 JUMPI PUSH1 0x0 DUP1 REVERT JUMPDEST POP PUSH1 0x4 CALLDATASIZE LT PUSH2 0xD0 JUMPI PUSH1 0x0 CALLDATALOAD PUSH1 0xE0 SHR DUP1 PUSH4 0xD7163C6 EQ PUSH2 0xD5 JUMPI DUP1 PUSH4 0x158EB4E5 EQ PUSH2 0xF3 JUMPI DUP1 PUSH4 0x22C414EB EQ PUSH2 0x108 JUMPI DUP1 PUSH4 0x2544C815 EQ PUSH2 0x11B JUMPI DUP1 PUSH4 0x3CE30185 EQ PUSH2 0x12E JUMPI DUP1 PUSH4 0x428BFF6B EQ PUSH2 0x136 JUMPI DUP1 PUSH4 0x4342E652 EQ PUSH2 0x149 JUMPI DUP1 PUSH4 0x481C6A75 EQ PUSH2 0x15C JUMPI DUP1 PUSH4 0x52B76522 EQ PUSH2 0x187 JUMPI DUP1 PUSH4 0x646C1464 EQ PUSH2 0x1B0 JUMPI DUP1 PUSH4 0x915BB129 EQ PUSH2 0x11B JUMPI DUP1 PUSH4 0x95FB756A EQ PUSH2 0x1C3 JUMPI DUP1 PUSH4 0xB6046D7C EQ PUSH2 0x1EC JUMPI DUP1 PUSH4 0xB6934925 EQ PUSH2 0x1FF JUMPI DUP1 PUSH4 0xC3495567 EQ PUSH2 0x212 JUMPI DUP1 PUSH4 0xF9EC93D4 EQ PUSH2 0x23B JUMPI JUMPDEST PUSH1 0x0 DUP1 REVERT JUMPDEST PUSH2 0xDD PUSH2 0x24E JUMP JUMPDEST PUSH1 0x40 MLOAD PUSH2 0xEA SWAP2 SWAP1 PUSH2 0x243D JUMP JUMPDEST PUSH1 0x40 MLOAD DUP1 SWAP2 SUB SWAP1 RETURN JUMPDEST PUSH2 0x106 PUSH2 0x101 CALLDATASIZE PUSH1 0x4 PUSH2 0x1EB2 JUMP JUMPDEST PUSH2 0x26A JUMP JUMPDEST STOP JUMPDEST PUSH2 0xDD PUSH2 0x116 CALLDATASIZE PUSH1 0x4 PUSH2 0x1E90 JUMP JUMPDEST PUSH2 0x2EF JUMP JUMPDEST PUSH2 0xDD PUSH2 0x129 CALLDATASIZE PUSH1 0x4 PUSH2 0x1F5A JUMP JUMPDEST PUSH2 0xA69 JUMP JUMPDEST PUSH2 0xDD PUSH2 0xB06 JUMP JUMPDEST PUSH2 0x106 PUSH2 0x144 CALLDATASIZE PUSH1 0x4 PUSH2 0x1EB2 JUMP JUMPDEST PUSH2 0xB23 JUMP JUMPDEST PUSH2 0xDD PUSH2 0x157 CALLDATASIZE PUSH1 0x4 PUSH2 0x1E90 JUMP JUMPDEST PUSH2 0xB9A JUMP JUMPDEST PUSH1 0x1 SLOAD PUSH2 0x16F SWAP1 PUSH1 0x1 PUSH1 0x1 PUSH1 0xA0 SHL SUB AND DUP2 JUMP JUMPDEST PUSH1 0x40 MLOAD PUSH1 0x1 PUSH1 0x1 PUSH1 0xA0 SHL SUB SWAP1 SWAP2 AND DUP2 MSTORE PUSH1 0x20 ADD PUSH2 0xEA JUMP JUMPDEST PUSH2 0x16F PUSH2 0x195 CALLDATASIZE PUSH1 0x4 PUSH2 0x1E90 JUMP JUMPDEST PUSH1 0x4 PUSH1 0x20 MSTORE PUSH1 0x0 SWAP1 DUP2 MSTORE PUSH1 0x40 SWAP1 KECCAK256 SLOAD PUSH1 0x1 PUSH1 0x1 PUSH1 0xA0 SHL SUB AND DUP2 JUMP JUMPDEST PUSH2 0xDD PUSH2 0x1BE CALLDATASIZE PUSH1 0x4 PUSH2 0x1EF5 JUMP JUMPDEST PUSH2 0xE5F JUMP JUMPDEST PUSH2 0x16F PUSH2 0x1D1 CALLDATASIZE PUSH1 0x4 PUSH2 0x1E90 JUMP JUMPDEST PUSH1 0x3 PUSH1 0x20 MSTORE PUSH1 0x0 SWAP1 DUP2 MSTORE PUSH1 0x40 SWAP1 KECCAK256 SLOAD PUSH1 0x1 PUSH1 0x1 PUSH1 0xA0 SHL SUB AND DUP2 JUMP JUMPDEST PUSH2 0xDD PUSH2 0x1FA CALLDATASIZE PUSH1 0x4 PUSH2 0x1E01 JUMP JUMPDEST PUSH2 0xF34 JUMP JUMPDEST PUSH2 0x106 PUSH2 0x20D CALLDATASIZE PUSH1 0x4 PUSH2 0x1EB2 JUMP JUMPDEST PUSH2 0xFBF JUMP JUMPDEST PUSH2 0x16F PUSH2 0x220 CALLDATASIZE PUSH1 0x4 PUSH2 0x1E90 JUMP JUMPDEST PUSH1 0x2 PUSH1 0x20 MSTORE PUSH1 0x0 SWAP1 DUP2 MSTORE PUSH1 0x40 SWAP1 KECCAK256 SLOAD PUSH1 0x1 PUSH1 0x1 PUSH1 0xA0 SHL SUB AND DUP2 JUMP JUMPDEST PUSH2 0xDD PUSH2 0x249 CALLDATASIZE PUSH1 0x4 PUSH2 0x1D27 JUMP JUMPDEST PUSH2 0x1036 JUMP JUMPDEST PUSH1 0x40 MLOAD DUP1 PUSH1 0xC0 ADD PUSH1 0x40 MSTORE DUP1 PUSH1 0xA0 DUP2 MSTORE PUSH1 0x20 ADD PUSH2 0x25E5 PUSH1 0xA0 SWAP2 CODECOPY DUP2 JUMP JUMPDEST PUSH1 0x1 SLOAD PUSH1 0x1 PUSH1 0x1 PUSH1 0xA0 SHL SUB AND CALLER EQ PUSH2 0x29D JUMPI PUSH1 0x40 MLOAD PUSH3 0x461BCD PUSH1 0xE5 SHL DUP2 MSTORE PUSH1 0x4 ADD PUSH2 0x294 SWAP1 PUSH2 0x2470 JUMP JUMPDEST PUSH1 0x40 MLOAD DUP1 SWAP2 SUB SWAP1 REVERT JUMPDEST PUSH1 0x1 JUMPDEST DUP3 PUSH1 0xFF AND DUP2 PUSH1 0xFF AND GT PUSH2 0x2EA JUMPI PUSH1 0xFF DUP2 AND PUSH1 0x0 SWAP1 DUP2 MSTORE PUSH1 0x3 PUSH1 0x20 MSTORE PUSH1 0x40 SWAP1 KECCAK256 DUP1 SLOAD PUSH1 0x1 PUSH1 0x1 PUSH1 0xA0 SHL SUB NOT AND PUSH1 0x1 PUSH1 0x1 PUSH1 0xA0 SHL SUB DUP5 AND OR SWAP1 SSTORE DUP1 PUSH2 0x2E2 DUP2 PUSH2 0x2542 JUMP JUMPDEST SWAP2 POP POP PUSH2 0x2A0 JUMP JUMPDEST POP POP POP JUMP JUMPDEST PUSH1 0x60 PUSH1 0x29 DUP3 PUSH1 0xFF AND GT PUSH2 0xA3A JUMPI PUSH1 0xA DUP3 PUSH1 0xFF AND LT ISZERO PUSH2 0x473 JUMPI PUSH1 0x5 DUP3 PUSH1 0xFF AND LT ISZERO PUSH2 0x39F JUMPI PUSH1 0x3 DUP3 PUSH1 0xFF AND LT ISZERO PUSH2 0x373 JUMPI DUP2 PUSH1 0xFF AND PUSH1 0x1 EQ PUSH2 0x34E JUMPI PUSH1 0x40 MLOAD DUP1 PUSH1 0x40 ADD PUSH1 0x40 MSTORE DUP1 PUSH1 0x5 DUP2 MSTORE PUSH1 0x20 ADD PUSH5 0x5768697465 PUSH1 0xD8 SHL DUP2 MSTORE POP PUSH2 0x36D JUMP JUMPDEST PUSH1 0x40 MLOAD DUP1 PUSH1 0x40 ADD PUSH1 0x40 MSTORE DUP1 PUSH1 0x5 DUP2 MSTORE PUSH1 0x20 ADD PUSH5 0x5768697465 PUSH1 0xD8 SHL DUP2 MSTORE POP JUMPDEST SWAP3 SWAP2 POP POP JUMP JUMPDEST DUP2 PUSH1 0xFF AND PUSH1 0x3 EQ PUSH2 0x34E JUMPI PUSH1 0x40 MLOAD DUP1 PUSH1 0x40 ADD PUSH1 0x40 MSTORE DUP1 PUSH1 0x3 DUP2 MSTORE PUSH1 0x20 ADD PUSH3 0x2A30B7 PUSH1 0xE9 SHL DUP2 MSTORE POP PUSH2 0x36D JUMP JUMPDEST PUSH1 0x7 DUP3 PUSH1 0xFF AND LT ISZERO PUSH2 0x3F6 JUMPI DUP2 PUSH1 0xFF AND PUSH1 0x5 EQ PUSH2 0x3D7 JUMPI PUSH1 0x40 MLOAD DUP1 PUSH1 0x40 ADD PUSH1 0x40 MSTORE DUP1 PUSH1 0x3 DUP2 MSTORE PUSH1 0x20 ADD PUSH3 0x2A30B7 PUSH1 0xE9 SHL DUP2 MSTORE POP PUSH2 0x36D JUMP JUMPDEST POP POP PUSH1 0x40 DUP1 MLOAD DUP1 DUP3 ADD SWAP1 SWAP2 MSTORE PUSH1 0x3 DUP2 MSTORE PUSH3 0x2A30B7 PUSH1 0xE9 SHL PUSH1 0x20 DUP3 ADD MSTORE SWAP1 JUMP JUMPDEST DUP2 PUSH1 0xFF AND PUSH1 0x7 EQ PUSH2 0x452 JUMPI DUP2 PUSH1 0xFF AND PUSH1 0x8 EQ PUSH2 0x42F JUMPI PUSH1 0x40 MLOAD DUP1 PUSH1 0x40 ADD PUSH1 0x40 MSTORE DUP1 PUSH1 0x5 DUP2 MSTORE PUSH1 0x20 ADD PUSH5 0x213937BBB7 PUSH1 0xD9 SHL DUP2 MSTORE POP PUSH2 0x36D JUMP JUMPDEST PUSH1 0x40 MLOAD DUP1 PUSH1 0x40 ADD PUSH1 0x40 MSTORE DUP1 PUSH1 0x5 DUP2 MSTORE PUSH1 0x20 ADD PUSH5 0x213937BBB7 PUSH1 0xD9 SHL DUP2 MSTORE POP PUSH2 0x36D JUMP JUMPDEST POP POP PUSH1 0x40 DUP1 MLOAD DUP1 DUP3 ADD SWAP1 SWAP2 MSTORE PUSH1 0x5 DUP2 MSTORE PUSH5 0x213937BBB7 PUSH1 0xD9 SHL PUSH1 0x20 DUP3 ADD MSTORE SWAP1 JUMP JUMPDEST PUSH1 0xF DUP3 PUSH1 0xFF AND GT PUSH2 0x544 JUMPI PUSH1 0xD DUP3 PUSH1 0xFF AND LT ISZERO PUSH2 0x4E6 JUMPI DUP2 PUSH1 0xFF AND PUSH1 0xA EQ PUSH2 0x452 JUMPI DUP2 PUSH1 0xFF AND PUSH1 0xB EQ PUSH2 0x4C3 JUMPI PUSH1 0x40 MLOAD DUP1 PUSH1 0x40 ADD PUSH1 0x40 MSTORE DUP1 PUSH1 0x5 DUP2 MSTORE PUSH1 0x20 ADD PUSH5 0x426C61636B PUSH1 0xD8 SHL DUP2 MSTORE POP PUSH2 0x36D JUMP JUMPDEST PUSH1 0x40 MLOAD DUP1 PUSH1 0x40 ADD PUSH1 0x40 MSTORE DUP1 PUSH1 0x5 DUP2 MSTORE PUSH1 0x20 ADD PUSH5 0x426C61636B PUSH1 0xD8 SHL DUP2 MSTORE POP PUSH2 0x36D JUMP JUMPDEST DUP2 PUSH1 0xFF AND PUSH1 0xD EQ PUSH2 0x523 JUMPI DUP2 PUSH1 0xFF AND PUSH1 0xE EQ PUSH2 0x4C3 JUMPI PUSH1 0x40 MLOAD DUP1 PUSH1 0x40 ADD PUSH1 0x40 MSTORE DUP1 PUSH1 0x9 DUP2 MSTORE PUSH1 0x20 ADD PUSH9 0x566974696C6967696F PUSH1 0xB8 SHL DUP2 MSTORE POP PUSH2 0x36D JUMP JUMPDEST POP POP PUSH1 0x40 DUP1 MLOAD DUP1 DUP3 ADD SWAP1 SWAP2 MSTORE PUSH1 0x5 DUP2 MSTORE PUSH5 0x426C61636B PUSH1 0xD8 SHL PUSH1 0x20 DUP3 ADD MSTORE SWAP1 JUMP JUMPDEST PUSH1 0x14 DUP3 PUSH1 0xFF AND GT PUSH2 0x63F JUMPI PUSH1 0x12 DUP3 PUSH1 0xFF AND LT ISZERO PUSH2 0x5B2 JUMPI DUP2 PUSH1 0xFF AND PUSH1 0x10 EQ PUSH2 0x58D JUMPI PUSH1 0x40 MLOAD DUP1 PUSH1 0x40 ADD PUSH1 0x40 MSTORE DUP1 PUSH1 0x9 DUP2 MSTORE PUSH1 0x20 ADD PUSH9 0x566974696C6967696F PUSH1 0xB8 SHL DUP2 MSTORE POP PUSH2 0x36D JUMP JUMPDEST POP POP PUSH1 0x40 DUP1 MLOAD DUP1 DUP3 ADD SWAP1 SWAP2 MSTORE PUSH1 0x9 DUP2 MSTORE PUSH9 0x566974696C6967696F PUSH1 0xB8 SHL PUSH1 0x20 DUP3 ADD MSTORE SWAP1 JUMP JUMPDEST DUP2 PUSH1 0xFF AND PUSH1 0x12 EQ PUSH2 0x619 JUMPI DUP2 PUSH1 0xFF AND PUSH1 0x13 EQ PUSH2 0x5F1 JUMPI PUSH1 0x40 MLOAD DUP1 PUSH1 0x40 ADD PUSH1 0x40 MSTORE DUP1 PUSH1 0xB DUP2 MSTORE PUSH1 0x20 ADD PUSH11 0x477265656E20536C696D65 PUSH1 0xA8 SHL DUP2 MSTORE POP PUSH2 0x36D JUMP JUMPDEST PUSH1 0x40 MLOAD DUP1 PUSH1 0x40 ADD PUSH1 0x40 MSTORE DUP1 PUSH1 0xA DUP2 MSTORE PUSH1 0x20 ADD PUSH10 0x426C756520536C696D65 PUSH1 0xB0 SHL DUP2 MSTORE POP PUSH2 0x36D JUMP JUMPDEST POP POP PUSH1 0x40 DUP1 MLOAD DUP1 DUP3 ADD SWAP1 SWAP2 MSTORE PUSH1 0xA DUP2 MSTORE PUSH10 0x426C756520536C696D65 PUSH1 0xB0 SHL PUSH1 0x20 DUP3 ADD MSTORE SWAP1 JUMP JUMPDEST PUSH1 0x19 DUP3 PUSH1 0xFF AND GT PUSH2 0x73D JUMPI PUSH1 0x17 DUP3 PUSH1 0xFF AND LT ISZERO PUSH2 0x6B1 JUMPI DUP2 PUSH1 0xFF AND PUSH1 0x15 EQ PUSH2 0x68A JUMPI PUSH1 0x40 MLOAD DUP1 PUSH1 0x40 ADD PUSH1 0x40 MSTORE DUP1 PUSH1 0xB DUP2 MSTORE PUSH1 0x20 ADD PUSH11 0x477265656E20536C696D65 PUSH1 0xA8 SHL DUP2 MSTORE POP PUSH2 0x36D JUMP JUMPDEST POP POP PUSH1 0x40 DUP1 MLOAD DUP1 DUP3 ADD SWAP1 SWAP2 MSTORE PUSH1 0xB DUP2 MSTORE PUSH11 0x477265656E20536C696D65 PUSH1 0xA8 SHL PUSH1 0x20 DUP3 ADD MSTORE SWAP1 JUMP JUMPDEST DUP2 PUSH1 0xFF AND PUSH1 0x17 EQ PUSH2 0x717 JUMPI DUP2 PUSH1 0xFF AND PUSH1 0x18 EQ PUSH2 0x6EF JUMPI PUSH1 0x40 MLOAD DUP1 PUSH1 0x40 ADD PUSH1 0x40 MSTORE DUP1 PUSH1 0xA DUP2 MSTORE PUSH1 0x20 ADD PUSH10 0x427562626C652047756D PUSH1 0xB0 SHL DUP2 MSTORE POP PUSH2 0x36D JUMP JUMPDEST PUSH1 0x40 MLOAD DUP1 PUSH1 0x40 ADD PUSH1 0x40 MSTORE DUP1 PUSH1 0xA DUP2 MSTORE PUSH1 0x20 ADD PUSH10 0x427562626C652047756D PUSH1 0xB0 SHL DUP2 MSTORE POP PUSH2 0x36D JUMP JUMPDEST POP POP PUSH1 0x40 DUP1 MLOAD DUP1 DUP3 ADD SWAP1 SWAP2 MSTORE PUSH1 0xA DUP2 MSTORE PUSH10 0x427562626C652047756D PUSH1 0xB0 SHL PUSH1 0x20 DUP3 ADD MSTORE SWAP1 JUMP JUMPDEST PUSH1 0x1E DUP3 PUSH1 0xFF AND GT PUSH2 0x83C JUMPI PUSH1 0x1C DUP3 PUSH1 0xFF AND LT ISZERO PUSH2 0x7B1 JUMPI DUP2 PUSH1 0xFF AND PUSH1 0x1A EQ PUSH2 0x789 JUMPI PUSH1 0x40 MLOAD DUP1 PUSH1 0x40 ADD PUSH1 0x40 MSTORE DUP1 PUSH1 0xC DUP2 MSTORE PUSH1 0x20 ADD PUSH12 0x23B932B2B71023B7B13634B7 PUSH1 0xA1 SHL DUP2 MSTORE POP PUSH2 0x36D JUMP JUMPDEST POP POP PUSH1 0x40 DUP1 MLOAD DUP1 DUP3 ADD SWAP1 SWAP2 MSTORE PUSH1 0xC DUP2 MSTORE PUSH12 0x23B932B2B71023B7B13634B7 PUSH1 0xA1 SHL PUSH1 0x20 DUP3 ADD MSTORE SWAP1 JUMP JUMPDEST DUP2 PUSH1 0xFF AND PUSH1 0x1C EQ PUSH2 0x81A JUMPI DUP2 PUSH1 0xFF AND PUSH1 0x1D EQ PUSH2 0x7F2 JUMPI PUSH1 0x40 MLOAD DUP1 PUSH1 0x40 ADD PUSH1 0x40 MSTORE DUP1 PUSH1 0xD DUP2 MSTORE PUSH1 0x20 ADD PUSH13 0x2CB2B63637BB9023B7B13634B7 PUSH1 0x99 SHL DUP2 MSTORE POP PUSH2 0x36D JUMP JUMPDEST PUSH1 0x40 MLOAD DUP1 PUSH1 0x40 ADD PUSH1 0x40 MSTORE DUP1 PUSH1 0xA DUP2 MSTORE PUSH1 0x20 ADD PUSH10 0x2932B21023B7B13634B7 PUSH1 0xB1 SHL DUP2 MSTORE POP PUSH2 0x36D JUMP JUMPDEST POP POP PUSH1 0x40 DUP1 MLOAD DUP1 DUP3 ADD SWAP1 SWAP2 MSTORE PUSH1 0x6 DUP2 MSTORE PUSH6 0x5A6F6D626965 PUSH1 0xD0 SHL PUSH1 0x20 DUP3 ADD MSTORE SWAP1 JUMP JUMPDEST PUSH1 0x20 DUP3 PUSH1 0xFF AND GT PUSH2 0x898 JUMPI DUP2 PUSH1 0xFF AND PUSH1 0x1F EQ PUSH2 0x877 JUMPI PUSH1 0x40 MLOAD DUP1 PUSH1 0x40 ADD PUSH1 0x40 MSTORE DUP1 PUSH1 0x7 DUP2 MSTORE PUSH1 0x20 ADD PUSH7 0x506C6173746963 PUSH1 0xC8 SHL DUP2 MSTORE POP PUSH2 0x36D JUMP JUMPDEST POP POP PUSH1 0x40 DUP1 MLOAD DUP1 DUP3 ADD SWAP1 SWAP2 MSTORE PUSH1 0x5 DUP2 MSTORE PUSH5 0x53756C6C79 PUSH1 0xD8 SHL PUSH1 0x20 DUP3 ADD MSTORE SWAP1 JUMP JUMPDEST PUSH1 0x22 DUP3 PUSH1 0xFF AND GT PUSH2 0x8F5 JUMPI DUP2 PUSH1 0xFF AND PUSH1 0x21 EQ PUSH2 0x8D4 JUMPI PUSH1 0x40 MLOAD DUP1 PUSH1 0x40 ADD PUSH1 0x40 MSTORE DUP1 PUSH1 0x8 DUP2 MSTORE PUSH1 0x20 ADD PUSH8 0x29B5B2B632BA37B7 PUSH1 0xC1 SHL DUP2 MSTORE POP PUSH2 0x36D JUMP JUMPDEST POP POP PUSH1 0x40 DUP1 MLOAD DUP1 DUP3 ADD SWAP1 SWAP2 MSTORE PUSH1 0x5 DUP2 MSTORE PUSH5 0x2A34B3B2B9 PUSH1 0xD9 SHL PUSH1 0x20 DUP3 ADD MSTORE SWAP1 JUMP JUMPDEST PUSH1 0x24 DUP3 PUSH1 0xFF AND GT PUSH2 0x956 JUMPI DUP2 PUSH1 0xFF AND PUSH1 0x23 EQ PUSH2 0x930 JUMPI PUSH1 0x40 MLOAD DUP1 PUSH1 0x40 ADD PUSH1 0x40 MSTORE DUP1 PUSH1 0x7 DUP2 MSTORE PUSH1 0x20 ADD PUSH7 0x476F72696C6C61 PUSH1 0xC8 SHL DUP2 MSTORE POP PUSH2 0x36D JUMP JUMPDEST POP POP PUSH1 0x40 DUP1 MLOAD DUP1 DUP3 ADD SWAP1 SWAP2 MSTORE PUSH1 0xA DUP2 MSTORE PUSH10 0x29B737BB902A34B3B2B9 PUSH1 0xB1 SHL PUSH1 0x20 DUP3 ADD MSTORE SWAP1 JUMP JUMPDEST PUSH1 0x26 DUP3 PUSH1 0xFF AND GT PUSH2 0x9B1 JUMPI DUP2 PUSH1 0xFF AND PUSH1 0x25 EQ PUSH2 0x991 JUMPI PUSH1 0x40 MLOAD DUP1 PUSH1 0x40 ADD PUSH1 0x40 MSTORE DUP1 PUSH1 0x7 DUP2 MSTORE PUSH1 0x20 ADD PUSH7 0xA6E2EAC2E8C6D PUSH1 0xCB SHL DUP2 MSTORE POP PUSH2 0x36D JUMP JUMPDEST POP POP PUSH1 0x40 DUP1 MLOAD DUP1 DUP3 ADD SWAP1 SWAP2 MSTORE PUSH1 0x4 DUP2 MSTORE PUSH4 0x59657469 PUSH1 0xE0 SHL PUSH1 0x20 DUP3 ADD MSTORE SWAP1 JUMP JUMPDEST PUSH1 0x28 DUP3 PUSH1 0xFF AND GT PUSH2 0xA0C JUMPI DUP2 PUSH1 0xFF AND PUSH1 0x27 EQ PUSH2 0x9EB JUMPI PUSH1 0x40 MLOAD DUP1 PUSH1 0x40 ADD PUSH1 0x40 MSTORE DUP1 PUSH1 0x6 DUP2 MSTORE PUSH1 0x20 ADD PUSH6 0x436F736D6963 PUSH1 0xD0 SHL DUP2 MSTORE POP PUSH2 0x36D JUMP JUMPDEST POP POP PUSH1 0x40 DUP1 MLOAD DUP1 DUP3 ADD SWAP1 SWAP2 MSTORE PUSH1 0x5 DUP2 MSTORE PUSH5 0x5374657665 PUSH1 0xD8 SHL PUSH1 0x20 DUP3 ADD MSTORE SWAP1 JUMP JUMPDEST DUP2 PUSH1 0xFF AND PUSH1 0x29 EQ ISZERO PUSH2 0xA3A JUMPI POP POP PUSH1 0x40 DUP1 MLOAD DUP1 DUP3 ADD SWAP1 SWAP2 MSTORE PUSH1 0x6 DUP2 MSTORE PUSH6 0x506972617465 PUSH1 0xD0 SHL PUSH1 0x20 DUP3 ADD MSTORE SWAP1 JUMP JUMPDEST POP POP PUSH1 0x40 DUP1 MLOAD DUP1 DUP3 ADD SWAP1 SWAP2 MSTORE PUSH1 0x13 DUP2 MSTORE PUSH19 0x115C9C9BDC8E881259081B9BDD08199BDD5B99 PUSH1 0x6A SHL PUSH1 0x20 DUP3 ADD MSTORE SWAP1 JUMP JUMPDEST PUSH1 0x60 PUSH1 0x40 MLOAD DUP1 PUSH1 0xC0 ADD PUSH1 0x40 MSTORE DUP1 PUSH1 0xA0 DUP2 MSTORE PUSH1 0x20 ADD PUSH2 0x25E5 PUSH1 0xA0 SWAP2 CODECOPY PUSH2 0xA8F PUSH1 0x0 DUP8 PUSH2 0x1036 JUMP JUMPDEST PUSH2 0xA9A PUSH1 0x1 DUP8 PUSH2 0x1036 JUMP JUMPDEST DUP6 PUSH2 0xAB4 JUMPI PUSH1 0x40 MLOAD DUP1 PUSH1 0x20 ADD PUSH1 0x40 MSTORE DUP1 PUSH1 0x0 DUP2 MSTORE POP PUSH2 0xABF JUMP JUMPDEST PUSH2 0xABF PUSH1 0x2 DUP7 PUSH2 0x1036 JUMP JUMPDEST PUSH1 0x40 MLOAD DUP1 PUSH2 0x120 ADD PUSH1 0x40 MSTORE DUP1 PUSH1 0xEB DUP2 MSTORE PUSH1 0x20 ADD PUSH2 0x26C5 PUSH1 0xEB SWAP2 CODECOPY PUSH1 0x40 MLOAD PUSH1 0x20 ADD PUSH2 0xAED SWAP6 SWAP5 SWAP4 SWAP3 SWAP2 SWAP1 PUSH2 0x1FE6 JUMP JUMPDEST PUSH1 0x40 MLOAD PUSH1 0x20 DUP2 DUP4 SUB SUB DUP2 MSTORE SWAP1 PUSH1 0x40 MSTORE SWAP1 POP SWAP5 SWAP4 POP POP POP POP JUMP JUMPDEST PUSH1 0x40 MLOAD DUP1 PUSH2 0x120 ADD PUSH1 0x40 MSTORE DUP1 PUSH1 0xEB DUP2 MSTORE PUSH1 0x20 ADD PUSH2 0x26C5 PUSH1 0xEB SWAP2 CODECOPY DUP2 JUMP JUMPDEST PUSH1 0x1 SLOAD PUSH1 0x1 PUSH1 0x1 PUSH1 0xA0 SHL SUB AND CALLER EQ PUSH2 0xB4D JUMPI PUSH1 0x40 MLOAD PUSH3 0x461BCD PUSH1 0xE5 SHL DUP2 MSTORE PUSH1 0x4 ADD PUSH2 0x294 SWAP1 PUSH2 0x2470 JUMP JUMPDEST PUSH1 0x1 JUMPDEST DUP3 PUSH1 0xFF AND DUP2 PUSH1 0xFF AND GT PUSH2 0x2EA JUMPI PUSH1 0xFF DUP2 AND PUSH1 0x0 SWAP1 DUP2 MSTORE PUSH1 0x2 PUSH1 0x20 MSTORE PUSH1 0x40 SWAP1 KECCAK256 DUP1 SLOAD PUSH1 0x1 PUSH1 0x1 PUSH1 0xA0 SHL SUB NOT AND PUSH1 0x1 PUSH1 0x1 PUSH1 0xA0 SHL SUB DUP5 AND OR SWAP1 SSTORE DUP1 PUSH2 0xB92 DUP2 PUSH2 0x2542 JUMP JUMPDEST SWAP2 POP POP PUSH2 0xB50 JUMP JUMPDEST PUSH1 0x60 PUSH1 0x14 DUP3 PUSH1 0xFF AND GT PUSH2 0xA3A JUMPI PUSH1 0xA DUP3 PUSH1 0xFF AND LT ISZERO PUSH2 0xCD8 JUMPI PUSH1 0x5 DUP3 PUSH1 0xFF AND LT ISZERO PUSH2 0xC45 JUMPI PUSH1 0x3 DUP3 PUSH1 0xFF AND LT ISZERO PUSH2 0xC18 JUMPI DUP2 PUSH1 0xFF AND PUSH1 0x1 EQ PUSH2 0xBF8 JUMPI PUSH1 0x40 MLOAD DUP1 PUSH1 0x40 ADD PUSH1 0x40 MSTORE DUP1 PUSH1 0x4 DUP2 MSTORE PUSH1 0x20 ADD PUSH4 0x426C7565 PUSH1 0xE0 SHL DUP2 MSTORE POP PUSH2 0x36D JUMP JUMPDEST POP POP PUSH1 0x40 DUP1 MLOAD DUP1 DUP3 ADD SWAP1 SWAP2 MSTORE PUSH1 0x4 DUP2 MSTORE PUSH4 0x426C7565 PUSH1 0xE0 SHL PUSH1 0x20 DUP3 ADD MSTORE SWAP1 JUMP JUMPDEST DUP2 PUSH1 0xFF AND PUSH1 0x3 EQ PUSH2 0xBF8 JUMPI PUSH1 0x40 MLOAD DUP1 PUSH1 0x40 ADD PUSH1 0x40 MSTORE DUP1 PUSH1 0x4 DUP2 MSTORE PUSH1 0x20 ADD PUSH4 0x426C7565 PUSH1 0xE0 SHL DUP2 MSTORE POP PUSH2 0x36D JUMP JUMPDEST PUSH1 0x7 DUP3 PUSH1 0xFF AND LT ISZERO PUSH2 0xC7E JUMPI DUP2 PUSH1 0xFF AND PUSH1 0x5 EQ PUSH2 0xBF8 JUMPI PUSH1 0x40 MLOAD DUP1 PUSH1 0x40 ADD PUSH1 0x40 MSTORE DUP1 PUSH1 0x4 DUP2 MSTORE PUSH1 0x20 ADD PUSH4 0x426C7565 PUSH1 0xE0 SHL DUP2 MSTORE POP PUSH2 0x36D JUMP JUMPDEST DUP2 PUSH1 0xFF AND PUSH1 0x7 EQ PUSH2 0xBF8 JUMPI DUP2 PUSH1 0xFF AND PUSH1 0x8 EQ PUSH2 0xCB6 JUMPI PUSH1 0x40 MLOAD DUP1 PUSH1 0x40 ADD PUSH1 0x40 MSTORE DUP1 PUSH1 0x4 DUP2 MSTORE PUSH1 0x20 ADD PUSH4 0x426C7565 PUSH1 0xE0 SHL DUP2 MSTORE POP PUSH2 0x36D JUMP JUMPDEST PUSH1 0x40 MLOAD DUP1 PUSH1 0x40 ADD PUSH1 0x40 MSTORE DUP1 PUSH1 0x4 DUP2 MSTORE PUSH1 0x20 ADD PUSH4 0x426C7565 PUSH1 0xE0 SHL DUP2 MSTORE POP PUSH2 0x36D JUMP JUMPDEST PUSH1 0xF DUP3 PUSH1 0xFF AND GT PUSH2 0xDA5 JUMPI PUSH1 0xD DUP3 PUSH1 0xFF AND LT ISZERO PUSH2 0xD28 JUMPI DUP2 PUSH1 0xFF AND PUSH1 0xA EQ PUSH2 0xBF8 JUMPI DUP2 PUSH1 0xFF AND PUSH1 0xB EQ PUSH2 0xCB6 JUMPI PUSH1 0x40 MLOAD DUP1 PUSH1 0x40 ADD PUSH1 0x40 MSTORE DUP1 PUSH1 0x5 DUP2 MSTORE PUSH1 0x20 ADD PUSH5 0x23B932B2B7 PUSH1 0xD9 SHL DUP2 MSTORE POP PUSH2 0x36D JUMP JUMPDEST DUP2 PUSH1 0xFF AND PUSH1 0xD EQ PUSH2 0xD84 JUMPI DUP2 PUSH1 0xFF AND PUSH1 0xE EQ PUSH2 0xD61 JUMPI PUSH1 0x40 MLOAD DUP1 PUSH1 0x40 ADD PUSH1 0x40 MSTORE DUP1 PUSH1 0x5 DUP2 MSTORE PUSH1 0x20 ADD PUSH5 0x23B932B2B7 PUSH1 0xD9 SHL DUP2 MSTORE POP PUSH2 0x36D JUMP JUMPDEST PUSH1 0x40 MLOAD DUP1 PUSH1 0x40 ADD PUSH1 0x40 MSTORE DUP1 PUSH1 0x5 DUP2 MSTORE PUSH1 0x20 ADD PUSH5 0x23B932B2B7 PUSH1 0xD9 SHL DUP2 MSTORE POP PUSH2 0x36D JUMP JUMPDEST POP POP PUSH1 0x40 DUP1 MLOAD DUP1 DUP3 ADD SWAP1 SWAP2 MSTORE PUSH1 0x5 DUP2 MSTORE PUSH5 0x23B932B2B7 PUSH1 0xD9 SHL PUSH1 0x20 DUP3 ADD MSTORE SWAP1 JUMP JUMPDEST PUSH1 0x12 DUP3 PUSH1 0xFF AND LT ISZERO PUSH2 0xDDF JUMPI DUP2 PUSH1 0xFF AND PUSH1 0x10 EQ PUSH2 0xD84 JUMPI PUSH1 0x40 MLOAD DUP1 PUSH1 0x40 ADD PUSH1 0x40 MSTORE DUP1 PUSH1 0x5 DUP2 MSTORE PUSH1 0x20 ADD PUSH5 0x23B932B2B7 PUSH1 0xD9 SHL DUP2 MSTORE POP PUSH2 0x36D JUMP JUMPDEST DUP2 PUSH1 0xFF AND PUSH1 0x12 EQ PUSH2 0xE3D JUMPI DUP2 PUSH1 0xFF AND PUSH1 0x13 EQ PUSH2 0xE19 JUMPI PUSH1 0x40 MLOAD DUP1 PUSH1 0x40 ADD PUSH1 0x40 MSTORE DUP1 PUSH1 0x6 DUP2 MSTORE PUSH1 0x20 ADD PUSH6 0x507572706C65 PUSH1 0xD0 SHL DUP2 MSTORE POP PUSH2 0x36D JUMP JUMPDEST PUSH1 0x40 MLOAD DUP1 PUSH1 0x40 ADD PUSH1 0x40 MSTORE DUP1 PUSH1 0x6 DUP2 MSTORE PUSH1 0x20 ADD PUSH6 0x507572706C65 PUSH1 0xD0 SHL DUP2 MSTORE POP PUSH2 0x36D JUMP JUMPDEST POP POP PUSH1 0x40 DUP1 MLOAD DUP1 DUP3 ADD SWAP1 SWAP2 MSTORE PUSH1 0x6 DUP2 MSTORE PUSH6 0x507572706C65 PUSH1 0xD0 SHL PUSH1 0x20 DUP3 ADD MSTORE SWAP1 JUMP JUMPDEST PUSH1 0x60 PUSH2 0xE6A DUP7 PUSH2 0x1A22 JUMP JUMPDEST PUSH2 0xE73 DUP7 PUSH2 0x1A53 JUMP JUMPDEST DUP6 PUSH2 0xE98 JUMPI PUSH1 0x40 MLOAD DUP1 PUSH1 0x40 ADD PUSH1 0x40 MSTORE DUP1 PUSH1 0x2 DUP2 MSTORE PUSH1 0x20 ADD PUSH2 0x4E6F PUSH1 0xF0 SHL DUP2 MSTORE POP PUSH2 0xEB5 JUMP JUMPDEST PUSH1 0x40 MLOAD DUP1 PUSH1 0x40 ADD PUSH1 0x40 MSTORE DUP1 PUSH1 0x3 DUP2 MSTORE PUSH1 0x20 ADD PUSH3 0x596573 PUSH1 0xE8 SHL DUP2 MSTORE POP JUMPDEST PUSH2 0xEC4 DUP7 PUSH4 0xFFFFFFFF AND PUSH2 0x1A6E JUMP JUMPDEST DUP6 PUSH2 0xEE9 JUMPI PUSH1 0x40 MLOAD DUP1 PUSH1 0x40 ADD PUSH1 0x40 MSTORE DUP1 PUSH1 0x2 DUP2 MSTORE PUSH1 0x20 ADD PUSH2 0x4E6F PUSH1 0xF0 SHL DUP2 MSTORE POP PUSH2 0xF06 JUMP JUMPDEST PUSH1 0x40 MLOAD DUP1 PUSH1 0x40 ADD PUSH1 0x40 MSTORE DUP1 PUSH1 0x3 DUP2 MSTORE PUSH1 0x20 ADD PUSH3 0x596573 PUSH1 0xE8 SHL DUP2 MSTORE POP JUMPDEST PUSH1 0x40 MLOAD PUSH1 0x20 ADD PUSH2 0xF1A SWAP6 SWAP5 SWAP4 SWAP3 SWAP2 SWAP1 PUSH2 0x2252 JUMP JUMPDEST PUSH1 0x40 MLOAD PUSH1 0x20 DUP2 DUP4 SUB SUB DUP2 MSTORE SWAP1 PUSH1 0x40 MSTORE SWAP1 POP SWAP6 SWAP5 POP POP POP POP POP JUMP JUMPDEST PUSH1 0x60 PUSH1 0x0 PUSH2 0xF4C PUSH2 0xF47 DUP10 DUP10 DUP10 DUP8 PUSH2 0xA69 JUMP JUMPDEST PUSH2 0x1B73 JUMP JUMPDEST SWAP1 POP PUSH2 0xF92 PUSH2 0xF5E DUP11 PUSH2 0xFFFF AND PUSH2 0x1A6E JUMP JUMPDEST DUP3 PUSH2 0xF6C DUP12 DUP12 DUP12 DUP12 DUP12 PUSH2 0xE5F JUMP JUMPDEST PUSH1 0x40 MLOAD PUSH1 0x20 ADD PUSH2 0xF7E SWAP4 SWAP3 SWAP2 SWAP1 PUSH2 0x2172 JUMP JUMPDEST PUSH1 0x40 MLOAD PUSH1 0x20 DUP2 DUP4 SUB SUB DUP2 MSTORE SWAP1 PUSH1 0x40 MSTORE PUSH2 0x1B73 JUMP JUMPDEST PUSH1 0x40 MLOAD PUSH1 0x20 ADD PUSH2 0xFA2 SWAP2 SWAP1 PUSH2 0x23F8 JUMP JUMPDEST PUSH1 0x40 MLOAD PUSH1 0x20 DUP2 DUP4 SUB SUB DUP2 MSTORE SWAP1 PUSH1 0x40 MSTORE SWAP2 POP POP SWAP8 SWAP7 POP POP POP POP POP POP POP JUMP JUMPDEST PUSH1 0x1 SLOAD PUSH1 0x1 PUSH1 0x1 PUSH1 0xA0 SHL SUB AND CALLER EQ PUSH2 0xFE9 JUMPI PUSH1 0x40 MLOAD PUSH3 0x461BCD PUSH1 0xE5 SHL DUP2 MSTORE PUSH1 0x4 ADD PUSH2 0x294 SWAP1 PUSH2 0x2470 JUMP JUMPDEST PUSH1 0x1 JUMPDEST DUP3 PUSH1 0xFF AND DUP2 PUSH1 0xFF AND GT PUSH2 0x2EA JUMPI PUSH1 0xFF DUP2 AND PUSH1 0x0 SWAP1 DUP2 MSTORE PUSH1 0x4 PUSH1 0x20 MSTORE PUSH1 0x40 SWAP1 KECCAK256 DUP1 SLOAD PUSH1 0x1 PUSH1 0x1 PUSH1 0xA0 SHL SUB NOT AND PUSH1 0x1 PUSH1 0x1 PUSH1 0xA0 SHL SUB DUP5 AND OR SWAP1 SSTORE DUP1 PUSH2 0x102E DUP2 PUSH2 0x2542 JUMP JUMPDEST SWAP2 POP POP PUSH2 0xFEC JUMP JUMPDEST PUSH1 0x60 PUSH1 0x0 DUP1 DUP5 PUSH1 0x2 DUP2 GT ISZERO PUSH2 0x104D JUMPI PUSH2 0x104D PUSH2 0x25A2 JUMP JUMPDEST EQ ISZERO PUSH2 0x1075 JUMPI POP PUSH1 0xFF DUP3 AND PUSH1 0x0 SWAP1 DUP2 MSTORE PUSH1 0x2 PUSH1 0x20 MSTORE PUSH1 0x40 SWAP1 KECCAK256 SLOAD PUSH1 0x1 PUSH1 0x1 PUSH1 0xA0 SHL SUB AND PUSH2 0x1124 JUMP JUMPDEST PUSH1 0x1 DUP5 PUSH1 0x2 DUP2 GT ISZERO PUSH2 0x1089 JUMPI PUSH2 0x1089 PUSH2 0x25A2 JUMP JUMPDEST EQ ISZERO PUSH2 0x10B1 JUMPI POP PUSH1 0xFF DUP3 AND PUSH1 0x0 SWAP1 DUP2 MSTORE PUSH1 0x3 PUSH1 0x20 MSTORE PUSH1 0x40 SWAP1 KECCAK256 SLOAD PUSH1 0x1 PUSH1 0x1 PUSH1 0xA0 SHL SUB AND PUSH2 0x1124 JUMP JUMPDEST PUSH1 0x2 DUP5 PUSH1 0x2 DUP2 GT ISZERO PUSH2 0x10C5 JUMPI PUSH2 0x10C5 PUSH2 0x25A2 JUMP JUMPDEST EQ ISZERO PUSH2 0x10ED JUMPI POP PUSH1 0xFF DUP3 AND PUSH1 0x0 SWAP1 DUP2 MSTORE PUSH1 0x4 PUSH1 0x20 MSTORE PUSH1 0x40 SWAP1 KECCAK256 SLOAD PUSH1 0x1 PUSH1 0x1 PUSH1 0xA0 SHL SUB AND PUSH2 0x1124 JUMP JUMPDEST PUSH1 0x40 MLOAD PUSH3 0x461BCD PUSH1 0xE5 SHL DUP2 MSTORE PUSH1 0x20 PUSH1 0x4 DUP3 ADD MSTORE PUSH1 0xC PUSH1 0x24 DUP3 ADD MSTORE PUSH12 0x1A5B9D985B1A59081C185C9D PUSH1 0xA2 SHL PUSH1 0x44 DUP3 ADD MSTORE PUSH1 0x64 ADD PUSH2 0x294 JUMP JUMPDEST PUSH1 0x60 PUSH1 0x0 DUP6 PUSH1 0x2 DUP2 GT ISZERO PUSH2 0x113A JUMPI PUSH2 0x113A PUSH2 0x25A2 JUMP JUMPDEST EQ ISZERO PUSH2 0x124A JUMPI DUP4 PUSH1 0xFF AND PUSH1 0x1 GT ISZERO DUP1 ISZERO PUSH2 0x1158 JUMPI POP PUSH1 0xB DUP5 PUSH1 0xFF AND GT ISZERO JUMPDEST ISZERO PUSH2 0x1183 JUMPI POP PUSH1 0x40 DUP1 MLOAD DUP1 DUP3 ADD SWAP1 SWAP2 MSTORE PUSH1 0x9 DUP2 MSTORE PUSH9 0x676574426C75652829 PUSH1 0xB8 SHL PUSH1 0x20 DUP3 ADD MSTORE PUSH2 0x1912 JUMP JUMPDEST DUP4 PUSH1 0xFF AND PUSH1 0xB LT DUP1 ISZERO PUSH2 0x119A JUMPI POP PUSH1 0x11 DUP5 PUSH1 0xFF AND GT ISZERO JUMPDEST ISZERO PUSH2 0x11C6 JUMPI POP PUSH1 0x40 DUP1 MLOAD DUP1 DUP3 ADD SWAP1 SWAP2 MSTORE PUSH1 0xA DUP2 MSTORE PUSH10 0x676574477265656E2829 PUSH1 0xB0 SHL PUSH1 0x20 DUP3 ADD MSTORE PUSH2 0x1912 JUMP JUMPDEST DUP4 PUSH1 0xFF AND PUSH1 0x11 LT DUP1 ISZERO PUSH2 0x11DD JUMPI POP PUSH1 0x14 DUP5 PUSH1 0xFF AND GT ISZERO JUMPDEST ISZERO PUSH2 0x120A JUMPI POP PUSH1 0x40 DUP1 MLOAD DUP1 DUP3 ADD SWAP1 SWAP2 MSTORE PUSH1 0xB DUP2 MSTORE PUSH11 0x676574507572706C652829 PUSH1 0xA8 SHL PUSH1 0x20 DUP3 ADD MSTORE PUSH2 0x1912 JUMP JUMPDEST PUSH1 0x40 MLOAD PUSH3 0x461BCD PUSH1 0xE5 SHL DUP2 MSTORE PUSH1 0x20 PUSH1 0x4 DUP3 ADD MSTORE PUSH1 0x15 PUSH1 0x24 DUP3 ADD MSTORE PUSH21 0x125B9D985B1A5908109858DAD9DC9BDD5B99081259 PUSH1 0x5A SHL PUSH1 0x44 DUP3 ADD MSTORE PUSH1 0x64 ADD PUSH2 0x294 JUMP JUMPDEST PUSH1 0x1 DUP6 PUSH1 0x2 DUP2 GT ISZERO PUSH2 0x125E JUMPI PUSH2 0x125E PUSH2 0x25A2 JUMP JUMPDEST EQ ISZERO PUSH2 0x18D4 JUMPI DUP4 PUSH1 0xFF AND PUSH1 0x1 GT ISZERO DUP1 ISZERO PUSH2 0x127C JUMPI POP PUSH1 0x3 DUP5 PUSH1 0xFF AND GT ISZERO JUMPDEST ISZERO PUSH2 0x12A8 JUMPI POP PUSH1 0x40 DUP1 MLOAD DUP1 DUP3 ADD SWAP1 SWAP2 MSTORE PUSH1 0xA DUP2 MSTORE PUSH10 0x67657448616E64312829 PUSH1 0xB0 SHL PUSH1 0x20 DUP3 ADD MSTORE PUSH2 0x1912 JUMP JUMPDEST DUP4 PUSH1 0xFF AND PUSH1 0x3 LT DUP1 ISZERO PUSH2 0x12BF JUMPI POP PUSH1 0x6 DUP5 PUSH1 0xFF AND GT ISZERO JUMPDEST ISZERO PUSH2 0x12EB JUMPI POP PUSH1 0x40 DUP1 MLOAD DUP1 DUP3 ADD SWAP1 SWAP2 MSTORE PUSH1 0xA DUP2 MSTORE PUSH10 0x67657448616E64322829 PUSH1 0xB0 SHL PUSH1 0x20 DUP3 ADD MSTORE PUSH2 0x1912 JUMP JUMPDEST DUP4 PUSH1 0xFF AND PUSH1 0x6 LT DUP1 ISZERO PUSH2 0x1302 JUMPI POP PUSH1 0xA DUP5 PUSH1 0xFF AND GT ISZERO JUMPDEST ISZERO PUSH2 0x132E JUMPI POP PUSH1 0x40 DUP1 MLOAD DUP1 DUP3 ADD SWAP1 SWAP2 MSTORE PUSH1 0xA DUP2 MSTORE PUSH10 0x67657448616E64332829 PUSH1 0xB0 SHL PUSH1 0x20 DUP3 ADD MSTORE PUSH2 0x1912 JUMP JUMPDEST DUP4 PUSH1 0xFF AND PUSH1 0xA LT DUP1 ISZERO PUSH2 0x1345 JUMPI POP PUSH1 0xE DUP5 PUSH1 0xFF AND GT ISZERO JUMPDEST ISZERO PUSH2 0x1371 JUMPI POP PUSH1 0x40 DUP1 MLOAD DUP1 DUP3 ADD SWAP1 SWAP2 MSTORE PUSH1 0xA DUP2 MSTORE PUSH10 0x67657448616E64342829 PUSH1 0xB0 SHL PUSH1 0x20 DUP3 ADD MSTORE PUSH2 0x1912 JUMP JUMPDEST DUP4 PUSH1 0xFF AND PUSH1 0xE LT DUP1 ISZERO PUSH2 0x1388 JUMPI POP PUSH1 0x11 DUP5 PUSH1 0xFF AND GT ISZERO JUMPDEST ISZERO PUSH2 0x13B7 JUMPI POP PUSH1 0x40 DUP1 MLOAD DUP1 DUP3 ADD SWAP1 SWAP2 MSTORE PUSH1 0xD DUP2 MSTORE PUSH13 0x676574566974696C69676F2829 PUSH1 0x98 SHL PUSH1 0x20 DUP3 ADD MSTORE PUSH2 0x1912 JUMP JUMPDEST DUP4 PUSH1 0xFF AND PUSH1 0x11 LT DUP1 ISZERO PUSH2 0x13CE JUMPI POP PUSH1 0x13 DUP5 PUSH1 0xFF AND GT ISZERO JUMPDEST ISZERO PUSH2 0x13FE JUMPI POP PUSH1 0x40 DUP1 MLOAD DUP1 DUP3 ADD SWAP1 SWAP2 MSTORE PUSH1 0xE DUP2 MSTORE PUSH14 0x676574426C7565536C696D652829 PUSH1 0x90 SHL PUSH1 0x20 DUP3 ADD MSTORE PUSH2 0x1912 JUMP JUMPDEST DUP4 PUSH1 0xFF AND PUSH1 0x13 LT DUP1 ISZERO PUSH2 0x1415 JUMPI POP PUSH1 0x16 DUP5 PUSH1 0xFF AND GT ISZERO JUMPDEST ISZERO PUSH2 0x1446 JUMPI POP PUSH1 0x40 DUP1 MLOAD DUP1 DUP3 ADD SWAP1 SWAP2 MSTORE PUSH1 0xF DUP2 MSTORE PUSH15 0x676574477265656E536C696D652829 PUSH1 0x88 SHL PUSH1 0x20 DUP3 ADD MSTORE PUSH2 0x1912 JUMP JUMPDEST DUP4 PUSH1 0xFF AND PUSH1 0x16 LT DUP1 ISZERO PUSH2 0x145D JUMPI POP PUSH1 0x19 DUP5 PUSH1 0xFF AND GT ISZERO JUMPDEST ISZERO PUSH2 0x148D JUMPI POP PUSH1 0x40 DUP1 MLOAD DUP1 DUP3 ADD SWAP1 SWAP2 MSTORE PUSH1 0xE DUP2 MSTORE PUSH14 0x676574427562626C6547756D2829 PUSH1 0x90 SHL PUSH1 0x20 DUP3 ADD MSTORE PUSH2 0x1912 JUMP JUMPDEST DUP4 PUSH1 0xFF AND PUSH1 0x19 LT DUP1 ISZERO PUSH2 0x14A4 JUMPI POP PUSH1 0x1B DUP5 PUSH1 0xFF AND GT ISZERO JUMPDEST ISZERO PUSH2 0x14D6 JUMPI POP PUSH1 0x40 DUP1 MLOAD DUP1 DUP3 ADD SWAP1 SWAP2 MSTORE PUSH1 0x10 DUP2 MSTORE PUSH16 0x676574477265656E476F626C696E2829 PUSH1 0x80 SHL PUSH1 0x20 DUP3 ADD MSTORE PUSH2 0x1912 JUMP JUMPDEST DUP4 PUSH1 0xFF AND PUSH1 0x1B LT DUP1 ISZERO PUSH2 0x14ED JUMPI POP PUSH1 0x1C DUP5 PUSH1 0xFF AND GT ISZERO JUMPDEST ISZERO PUSH2 0x151A JUMPI POP PUSH1 0x40 DUP1 MLOAD DUP1 DUP3 ADD SWAP1 SWAP2 MSTORE PUSH1 0xB DUP2 MSTORE PUSH11 0x6765745A6F6D6269652829 PUSH1 0xA8 SHL PUSH1 0x20 DUP3 ADD MSTORE PUSH2 0x1912 JUMP JUMPDEST DUP4 PUSH1 0xFF AND PUSH1 0x1C LT DUP1 ISZERO PUSH2 0x1531 JUMPI POP PUSH1 0x1D DUP5 PUSH1 0xFF AND GT ISZERO JUMPDEST ISZERO PUSH2 0x1561 JUMPI POP PUSH1 0x40 DUP1 MLOAD DUP1 DUP3 ADD SWAP1 SWAP2 MSTORE PUSH1 0xE DUP2 MSTORE PUSH14 0x676574526564476F626C696E2829 PUSH1 0x90 SHL PUSH1 0x20 DUP3 ADD MSTORE PUSH2 0x1912 JUMP JUMPDEST DUP4 PUSH1 0xFF AND PUSH1 0x1D LT DUP1 ISZERO PUSH2 0x1578 JUMPI POP PUSH1 0x1E DUP5 PUSH1 0xFF AND GT ISZERO JUMPDEST ISZERO PUSH2 0x15AB JUMPI POP PUSH1 0x40 DUP1 MLOAD DUP1 DUP3 ADD SWAP1 SWAP2 MSTORE PUSH1 0x11 DUP2 MSTORE PUSH17 0x67657459656C6C6F77476F626C696E2829 PUSH1 0x78 SHL PUSH1 0x20 DUP3 ADD MSTORE PUSH2 0x1912 JUMP JUMPDEST DUP4 PUSH1 0xFF AND PUSH1 0x1E LT DUP1 ISZERO PUSH2 0x15C2 JUMPI POP PUSH1 0x1F DUP5 PUSH1 0xFF AND GT ISZERO JUMPDEST ISZERO PUSH2 0x15EE JUMPI POP PUSH1 0x40 DUP1 MLOAD DUP1 DUP3 ADD SWAP1 SWAP2 MSTORE PUSH1 0xA DUP2 MSTORE PUSH10 0x67657453756C6C792829 PUSH1 0xB0 SHL PUSH1 0x20 DUP3 ADD MSTORE PUSH2 0x1912 JUMP JUMPDEST DUP4 PUSH1 0xFF AND PUSH1 0x1F LT DUP1 ISZERO PUSH2 0x1605 JUMPI POP PUSH1 0x20 DUP5 PUSH1 0xFF AND GT ISZERO JUMPDEST ISZERO PUSH2 0x1633 JUMPI POP PUSH1 0x40 DUP1 MLOAD DUP1 DUP3 ADD SWAP1 SWAP2 MSTORE PUSH1 0xC DUP2 MSTORE PUSH12 0x676574506C61737469632829 PUSH1 0xA0 SHL PUSH1 0x20 DUP3 ADD MSTORE PUSH2 0x1912 JUMP JUMPDEST DUP4 PUSH1 0xFF AND PUSH1 0x20 LT DUP1 ISZERO PUSH2 0x164A JUMPI POP PUSH1 0x21 DUP5 PUSH1 0xFF AND GT ISZERO JUMPDEST ISZERO PUSH2 0x1676 JUMPI POP PUSH1 0x40 DUP1 MLOAD DUP1 DUP3 ADD SWAP1 SWAP2 MSTORE PUSH1 0xA DUP2 MSTORE PUSH10 0x67657454696765722829 PUSH1 0xB0 SHL PUSH1 0x20 DUP3 ADD MSTORE PUSH2 0x1912 JUMP JUMPDEST DUP4 PUSH1 0xFF AND PUSH1 0x21 LT DUP1 ISZERO PUSH2 0x168D JUMPI POP PUSH1 0x22 DUP5 PUSH1 0xFF AND GT ISZERO JUMPDEST ISZERO PUSH2 0x16BC JUMPI POP PUSH1 0x40 DUP1 MLOAD DUP1 DUP3 ADD SWAP1 SWAP2 MSTORE PUSH1 0xD DUP2 MSTORE PUSH13 0x676574536B656C65746F6E2829 PUSH1 0x98 SHL PUSH1 0x20 DUP3 ADD MSTORE PUSH2 0x1912 JUMP JUMPDEST DUP4 PUSH1 0xFF AND PUSH1 0x22 LT DUP1 ISZERO PUSH2 0x16D3 JUMPI POP PUSH1 0x23 DUP5 PUSH1 0xFF AND GT ISZERO JUMPDEST ISZERO PUSH2 0x1703 JUMPI POP PUSH1 0x40 DUP1 MLOAD DUP1 DUP3 ADD SWAP1 SWAP2 MSTORE PUSH1 0xE DUP2 MSTORE PUSH14 0x676574536E6F7754696765722829 PUSH1 0x90 SHL PUSH1 0x20 DUP3 ADD MSTORE PUSH2 0x1912 JUMP JUMPDEST DUP4 PUSH1 0xFF AND PUSH1 0x23 LT DUP1 ISZERO PUSH2 0x171A JUMPI POP PUSH1 0x24 DUP5 PUSH1 0xFF AND GT ISZERO JUMPDEST ISZERO PUSH2 0x1748 JUMPI POP PUSH1 0x40 DUP1 MLOAD DUP1 DUP3 ADD SWAP1 SWAP2 MSTORE PUSH1 0xC DUP2 MSTORE PUSH12 0x676574476F72696C6C612829 PUSH1 0xA0 SHL PUSH1 0x20 DUP3 ADD MSTORE PUSH2 0x1912 JUMP JUMPDEST DUP4 PUSH1 0xFF AND PUSH1 0x24 LT DUP1 ISZERO PUSH2 0x175F JUMPI POP PUSH1 0x25 DUP5 PUSH1 0xFF AND GT ISZERO JUMPDEST ISZERO PUSH2 0x178A JUMPI POP PUSH1 0x40 DUP1 MLOAD DUP1 DUP3 ADD SWAP1 SWAP2 MSTORE PUSH1 0x9 DUP2 MSTORE PUSH9 0x676574596574692829 PUSH1 0xB8 SHL PUSH1 0x20 DUP3 ADD MSTORE PUSH2 0x1912 JUMP JUMPDEST DUP4 PUSH1 0xFF AND PUSH1 0x25 LT DUP1 ISZERO PUSH2 0x17A1 JUMPI POP PUSH1 0x26 DUP5 PUSH1 0xFF AND GT ISZERO JUMPDEST ISZERO PUSH2 0x17CF JUMPI POP PUSH1 0x40 DUP1 MLOAD DUP1 DUP3 ADD SWAP1 SWAP2 MSTORE PUSH1 0xC DUP2 MSTORE PUSH12 0x676574537175617463682829 PUSH1 0xA0 SHL PUSH1 0x20 DUP3 ADD MSTORE PUSH2 0x1912 JUMP JUMPDEST DUP4 PUSH1 0xFF AND PUSH1 0x26 LT DUP1 ISZERO PUSH2 0x17E6 JUMPI POP PUSH1 0x27 DUP5 PUSH1 0xFF AND GT ISZERO JUMPDEST ISZERO PUSH2 0x1812 JUMPI POP PUSH1 0x40 DUP1 MLOAD DUP1 DUP3 ADD SWAP1 SWAP2 MSTORE PUSH1 0xA DUP2 MSTORE PUSH10 0x67657453746576652829 PUSH1 0xB0 SHL PUSH1 0x20 DUP3 ADD MSTORE PUSH2 0x1912 JUMP JUMPDEST DUP4 PUSH1 0xFF AND PUSH1 0x27 LT DUP1 ISZERO PUSH2 0x1829 JUMPI POP PUSH1 0x28 DUP5 PUSH1 0xFF AND GT ISZERO JUMPDEST ISZERO PUSH2 0x1856 JUMPI POP PUSH1 0x40 DUP1 MLOAD DUP1 DUP3 ADD SWAP1 SWAP2 MSTORE PUSH1 0xB DUP2 MSTORE PUSH11 0x676574436F736D69632829 PUSH1 0xA8 SHL PUSH1 0x20 DUP3 ADD MSTORE PUSH2 0x1912 JUMP JUMPDEST DUP4 PUSH1 0xFF AND PUSH1 0x28 LT DUP1 ISZERO PUSH2 0x186D JUMPI POP PUSH1 0x29 DUP5 PUSH1 0xFF AND GT ISZERO JUMPDEST ISZERO PUSH2 0x189A JUMPI POP PUSH1 0x40 DUP1 MLOAD DUP1 DUP3 ADD SWAP1 SWAP2 MSTORE PUSH1 0xB DUP2 MSTORE PUSH11 0x6765745069726174652829 PUSH1 0xA8 SHL PUSH1 0x20 DUP3 ADD MSTORE PUSH2 0x1912 JUMP JUMPDEST PUSH1 0x40 MLOAD PUSH3 0x461BCD PUSH1 0xE5 SHL DUP2 MSTORE PUSH1 0x20 PUSH1 0x4 DUP3 ADD MSTORE PUSH1 0xF PUSH1 0x24 DUP3 ADD MSTORE PUSH15 0x125B9D985B1A590812185B99081259 PUSH1 0x8A SHL PUSH1 0x44 DUP3 ADD MSTORE PUSH1 0x64 ADD PUSH2 0x294 JUMP JUMPDEST PUSH1 0x2 DUP6 PUSH1 0x2 DUP2 GT ISZERO PUSH2 0x18E8 JUMPI PUSH2 0x18E8 PUSH2 0x25A2 JUMP JUMPDEST EQ ISZERO PUSH2 0x10ED JUMPI POP PUSH1 0x40 DUP1 MLOAD DUP1 DUP3 ADD SWAP1 SWAP2 MSTORE PUSH1 0xB DUP2 MSTORE PUSH11 0x676574506F7461746F2829 PUSH1 0xA8 SHL PUSH1 0x20 DUP3 ADD MSTORE JUMPDEST PUSH1 0x40 DUP1 MLOAD PUSH1 0x4 DUP2 MSTORE PUSH1 0x24 DUP2 ADD SWAP2 DUP3 SWAP1 MSTORE PUSH1 0x0 SWAP2 DUP3 SWAP2 PUSH1 0x1 PUSH1 0x1 PUSH1 0xA0 SHL SUB DUP7 AND SWAP2 PUSH2 0x193D SWAP1 DUP7 SWAP1 PUSH2 0x1FCA JUMP JUMPDEST PUSH1 0x40 DUP1 MLOAD SWAP2 DUP3 SWAP1 SUB SWAP1 SWAP2 KECCAK256 PUSH1 0x20 DUP4 ADD DUP1 MLOAD PUSH1 0x1 PUSH1 0x1 PUSH1 0xE0 SHL SUB AND PUSH1 0x1 PUSH1 0x1 PUSH1 0xE0 SHL SUB NOT SWAP1 SWAP3 AND SWAP2 SWAP1 SWAP2 OR SWAP1 MSTORE MLOAD PUSH2 0x1974 SWAP2 SWAP1 PUSH2 0x1FCA JUMP JUMPDEST PUSH1 0x0 PUSH1 0x40 MLOAD DUP1 DUP4 SUB DUP2 DUP6 GAS STATICCALL SWAP2 POP POP RETURNDATASIZE DUP1 PUSH1 0x0 DUP2 EQ PUSH2 0x19AF JUMPI PUSH1 0x40 MLOAD SWAP2 POP PUSH1 0x1F NOT PUSH1 0x3F RETURNDATASIZE ADD AND DUP3 ADD PUSH1 0x40 MSTORE RETURNDATASIZE DUP3 MSTORE RETURNDATASIZE PUSH1 0x0 PUSH1 0x20 DUP5 ADD RETURNDATACOPY PUSH2 0x19B4 JUMP JUMPDEST PUSH1 0x60 SWAP2 POP JUMPDEST POP SWAP2 POP SWAP2 POP DUP2 PUSH2 0x19FB JUMPI PUSH1 0x40 MLOAD PUSH3 0x461BCD PUSH1 0xE5 SHL DUP2 MSTORE PUSH1 0x20 PUSH1 0x4 DUP3 ADD MSTORE PUSH1 0x12 PUSH1 0x24 DUP3 ADD MSTORE PUSH18 0x6661696C656420746F206765742064617461 PUSH1 0x70 SHL PUSH1 0x44 DUP3 ADD MSTORE PUSH1 0x64 ADD PUSH2 0x294 JUMP JUMPDEST PUSH2 0x1A17 DUP2 DUP1 PUSH1 0x20 ADD SWAP1 MLOAD DUP2 ADD SWAP1 PUSH2 0x1A12 SWAP2 SWAP1 PUSH2 0x1D60 JUMP JUMPDEST PUSH2 0x1CDA JUMP JUMPDEST SWAP8 SWAP7 POP POP POP POP POP POP POP JUMP JUMPDEST PUSH1 0x60 PUSH2 0x1A2D DUP3 PUSH2 0xB9A JUMP JUMPDEST PUSH1 0x40 MLOAD PUSH1 0x20 ADD PUSH2 0x1A3D SWAP2 SWAP1 PUSH2 0x23B2 JUMP JUMPDEST PUSH1 0x40 MLOAD PUSH1 0x20 DUP2 DUP4 SUB SUB DUP2 MSTORE SWAP1 PUSH1 0x40 MSTORE SWAP1 POP SWAP2 SWAP1 POP JUMP JUMPDEST PUSH1 0x60 PUSH2 0x1A5E DUP3 PUSH2 0x2EF JUMP JUMPDEST PUSH1 0x40 MLOAD PUSH1 0x20 ADD PUSH2 0x1A3D SWAP2 SWAP1 PUSH2 0x2113 JUMP JUMPDEST PUSH1 0x60 DUP2 PUSH2 0x1A92 JUMPI POP POP PUSH1 0x40 DUP1 MLOAD DUP1 DUP3 ADD SWAP1 SWAP2 MSTORE PUSH1 0x1 DUP2 MSTORE PUSH1 0x3 PUSH1 0xFC SHL PUSH1 0x20 DUP3 ADD MSTORE SWAP1 JUMP JUMPDEST DUP2 PUSH1 0x0 JUMPDEST DUP2 ISZERO PUSH2 0x1ABC JUMPI DUP1 PUSH2 0x1AA6 DUP2 PUSH2 0x2527 JUMP JUMPDEST SWAP2 POP PUSH2 0x1AB5 SWAP1 POP PUSH1 0xA DUP4 PUSH2 0x24AD JUMP JUMPDEST SWAP2 POP PUSH2 0x1A96 JUMP JUMPDEST PUSH1 0x0 DUP2 PUSH1 0x1 PUSH1 0x1 PUSH1 0x40 SHL SUB DUP2 GT ISZERO PUSH2 0x1AD6 JUMPI PUSH2 0x1AD6 PUSH2 0x25CE JUMP JUMPDEST PUSH1 0x40 MLOAD SWAP1 DUP1 DUP3 MSTORE DUP1 PUSH1 0x1F ADD PUSH1 0x1F NOT AND PUSH1 0x20 ADD DUP3 ADD PUSH1 0x40 MSTORE DUP1 ISZERO PUSH2 0x1B00 JUMPI PUSH1 0x20 DUP3 ADD DUP2 DUP1 CALLDATASIZE DUP4 CALLDATACOPY ADD SWAP1 POP JUMPDEST POP SWAP1 POP JUMPDEST DUP5 ISZERO PUSH2 0x1B6B JUMPI PUSH2 0x1B15 PUSH1 0x1 DUP4 PUSH2 0x24E0 JUMP JUMPDEST SWAP2 POP PUSH2 0x1B22 PUSH1 0xA DUP7 PUSH2 0x2562 JUMP JUMPDEST PUSH2 0x1B2D SWAP1 PUSH1 0x30 PUSH2 0x2495 JUMP JUMPDEST PUSH1 0xF8 SHL DUP2 DUP4 DUP2 MLOAD DUP2 LT PUSH2 0x1B42 JUMPI PUSH2 0x1B42 PUSH2 0x25B8 JUMP JUMPDEST PUSH1 0x20 ADD ADD SWAP1 PUSH1 0x1 PUSH1 0x1 PUSH1 0xF8 SHL SUB NOT AND SWAP1 DUP2 PUSH1 0x0 BYTE SWAP1 MSTORE8 POP PUSH2 0x1B64 PUSH1 0xA DUP7 PUSH2 0x24AD JUMP JUMPDEST SWAP5 POP PUSH2 0x1B04 JUMP JUMPDEST SWAP5 SWAP4 POP POP POP POP JUMP JUMPDEST PUSH1 0x60 DUP2 MLOAD PUSH1 0x0 EQ ISZERO PUSH2 0x1B93 JUMPI POP POP PUSH1 0x40 DUP1 MLOAD PUSH1 0x20 DUP2 ADD SWAP1 SWAP2 MSTORE PUSH1 0x0 DUP2 MSTORE SWAP1 JUMP JUMPDEST PUSH1 0x0 PUSH1 0x40 MLOAD DUP1 PUSH1 0x60 ADD PUSH1 0x40 MSTORE DUP1 PUSH1 0x40 DUP2 MSTORE PUSH1 0x20 ADD PUSH2 0x2685 PUSH1 0x40 SWAP2 CODECOPY SWAP1 POP PUSH1 0x0 PUSH1 0x3 DUP5 MLOAD PUSH1 0x2 PUSH2 0x1BC2 SWAP2 SWAP1 PUSH2 0x2495 JUMP JUMPDEST PUSH2 0x1BCC SWAP2 SWAP1 PUSH2 0x24AD JUMP JUMPDEST PUSH2 0x1BD7 SWAP1 PUSH1 0x4 PUSH2 0x24C1 JUMP JUMPDEST SWAP1 POP PUSH1 0x0 PUSH2 0x1BE6 DUP3 PUSH1 0x20 PUSH2 0x2495 JUMP JUMPDEST PUSH1 0x1 PUSH1 0x1 PUSH1 0x40 SHL SUB DUP2 GT ISZERO PUSH2 0x1BFD JUMPI PUSH2 0x1BFD PUSH2 0x25CE JUMP JUMPDEST PUSH1 0x40 MLOAD SWAP1 DUP1 DUP3 MSTORE DUP1 PUSH1 0x1F ADD PUSH1 0x1F NOT AND PUSH1 0x20 ADD DUP3 ADD PUSH1 0x40 MSTORE DUP1 ISZERO PUSH2 0x1C27 JUMPI PUSH1 0x20 DUP3 ADD DUP2 DUP1 CALLDATASIZE DUP4 CALLDATACOPY ADD SWAP1 POP JUMPDEST POP SWAP1 POP DUP2 DUP2 MSTORE PUSH1 0x1 DUP4 ADD DUP6 DUP7 MLOAD DUP2 ADD PUSH1 0x20 DUP5 ADD JUMPDEST DUP2 DUP4 LT ISZERO PUSH2 0x1C95 JUMPI PUSH1 0x3 SWAP3 DUP4 ADD DUP1 MLOAD PUSH1 0x3F PUSH1 0x12 DUP3 SWAP1 SHR DUP2 AND DUP8 ADD MLOAD PUSH1 0xF8 SWAP1 DUP2 SHL DUP6 MSTORE PUSH1 0xC DUP4 SWAP1 SHR DUP3 AND DUP9 ADD MLOAD DUP2 SHL PUSH1 0x1 DUP7 ADD MSTORE PUSH1 0x6 DUP4 SWAP1 SHR DUP3 AND DUP9 ADD MLOAD DUP2 SHL PUSH1 0x2 DUP7 ADD MSTORE SWAP2 AND DUP7 ADD MLOAD SWAP1 SHL SWAP4 DUP3 ADD SWAP4 SWAP1 SWAP4 MSTORE PUSH1 0x4 ADD PUSH2 0x1C3B JUMP JUMPDEST PUSH1 0x3 DUP10 MLOAD MOD PUSH1 0x1 DUP2 EQ PUSH2 0x1CAF JUMPI PUSH1 0x2 DUP2 EQ PUSH2 0x1CC0 JUMPI PUSH2 0x1CCC JUMP JUMPDEST PUSH2 0x3D3D PUSH1 0xF0 SHL PUSH1 0x1 NOT DUP4 ADD MSTORE PUSH2 0x1CCC JUMP JUMPDEST PUSH1 0x3D PUSH1 0xF8 SHL PUSH1 0x0 NOT DUP4 ADD MSTORE JUMPDEST POP SWAP4 SWAP9 SWAP8 POP POP POP POP POP POP POP POP JUMP JUMPDEST PUSH1 0x60 DUP2 PUSH1 0x40 MLOAD PUSH1 0x20 ADD PUSH2 0x1A3D SWAP2 SWAP1 PUSH2 0x2051 JUMP JUMPDEST DUP1 CALLDATALOAD DUP1 ISZERO ISZERO DUP2 EQ PUSH2 0x1CFD JUMPI PUSH1 0x0 DUP1 REVERT JUMPDEST SWAP2 SWAP1 POP JUMP JUMPDEST DUP1 CALLDATALOAD PUSH4 0xFFFFFFFF DUP2 AND DUP2 EQ PUSH2 0x1CFD JUMPI PUSH1 0x0 DUP1 REVERT JUMPDEST DUP1 CALLDATALOAD PUSH1 0xFF DUP2 AND DUP2 EQ PUSH2 0x1CFD JUMPI PUSH1 0x0 DUP1 REVERT JUMPDEST PUSH1 0x0 DUP1 PUSH1 0x40 DUP4 DUP6 SUB SLT ISZERO PUSH2 0x1D3A JUMPI PUSH1 0x0 DUP1 REVERT JUMPDEST DUP3 CALLDATALOAD PUSH1 0x3 DUP2 LT PUSH2 0x1D49 JUMPI PUSH1 0x0 DUP1 REVERT JUMPDEST SWAP2 POP PUSH2 0x1D57 PUSH1 0x20 DUP5 ADD PUSH2 0x1D16 JUMP JUMPDEST SWAP1 POP SWAP3 POP SWAP3 SWAP1 POP JUMP JUMPDEST PUSH1 0x0 PUSH1 0x20 DUP3 DUP5 SUB SLT ISZERO PUSH2 0x1D72 JUMPI PUSH1 0x0 DUP1 REVERT JUMPDEST DUP2 MLOAD PUSH1 0x1 PUSH1 0x1 PUSH1 0x40 SHL SUB DUP1 DUP3 GT ISZERO PUSH2 0x1D89 JUMPI PUSH1 0x0 DUP1 REVERT JUMPDEST DUP2 DUP5 ADD SWAP2 POP DUP5 PUSH1 0x1F DUP4 ADD SLT PUSH2 0x1D9D JUMPI PUSH1 0x0 DUP1 REVERT JUMPDEST DUP2 MLOAD DUP2 DUP2 GT ISZERO PUSH2 0x1DAF JUMPI PUSH2 0x1DAF PUSH2 0x25CE JUMP JUMPDEST PUSH1 0x40 MLOAD PUSH1 0x1F DUP3 ADD PUSH1 0x1F NOT SWAP1 DUP2 AND PUSH1 0x3F ADD AND DUP2 ADD SWAP1 DUP4 DUP3 GT DUP2 DUP4 LT OR ISZERO PUSH2 0x1DD7 JUMPI PUSH2 0x1DD7 PUSH2 0x25CE JUMP JUMPDEST DUP2 PUSH1 0x40 MSTORE DUP3 DUP2 MSTORE DUP8 PUSH1 0x20 DUP5 DUP8 ADD ADD GT ISZERO PUSH2 0x1DF0 JUMPI PUSH1 0x0 DUP1 REVERT JUMPDEST PUSH2 0x1A17 DUP4 PUSH1 0x20 DUP4 ADD PUSH1 0x20 DUP9 ADD PUSH2 0x24F7 JUMP JUMPDEST PUSH1 0x0 DUP1 PUSH1 0x0 DUP1 PUSH1 0x0 DUP1 PUSH1 0x0 PUSH1 0xE0 DUP9 DUP11 SUB SLT ISZERO PUSH2 0x1E1C JUMPI PUSH1 0x0 DUP1 REVERT JUMPDEST DUP8 CALLDATALOAD PUSH2 0xFFFF DUP2 AND DUP2 EQ PUSH2 0x1E2E JUMPI PUSH1 0x0 DUP1 REVERT JUMPDEST SWAP7 POP PUSH2 0x1E3C PUSH1 0x20 DUP10 ADD PUSH2 0x1D16 JUMP JUMPDEST SWAP6 POP PUSH2 0x1E4A PUSH1 0x40 DUP10 ADD PUSH2 0x1D16 JUMP JUMPDEST SWAP5 POP PUSH2 0x1E58 PUSH1 0x60 DUP10 ADD PUSH2 0x1CED JUMP JUMPDEST SWAP4 POP PUSH2 0x1E66 PUSH1 0x80 DUP10 ADD PUSH2 0x1D02 JUMP JUMPDEST SWAP3 POP PUSH2 0x1E74 PUSH1 0xA0 DUP10 ADD PUSH2 0x1CED JUMP JUMPDEST SWAP2 POP PUSH2 0x1E82 PUSH1 0xC0 DUP10 ADD PUSH2 0x1D16 JUMP JUMPDEST SWAP1 POP SWAP3 SWAP6 SWAP9 SWAP2 SWAP5 SWAP8 POP SWAP3 SWAP6 POP JUMP JUMPDEST PUSH1 0x0 PUSH1 0x20 DUP3 DUP5 SUB SLT ISZERO PUSH2 0x1EA2 JUMPI PUSH1 0x0 DUP1 REVERT JUMPDEST PUSH2 0x1EAB DUP3 PUSH2 0x1D16 JUMP JUMPDEST SWAP4 SWAP3 POP POP POP JUMP JUMPDEST PUSH1 0x0 DUP1 PUSH1 0x40 DUP4 DUP6 SUB SLT ISZERO PUSH2 0x1EC5 JUMPI PUSH1 0x0 DUP1 REVERT JUMPDEST PUSH2 0x1ECE DUP4 PUSH2 0x1D16 JUMP JUMPDEST SWAP2 POP PUSH1 0x20 DUP4 ADD CALLDATALOAD PUSH1 0x1 PUSH1 0x1 PUSH1 0xA0 SHL SUB DUP2 AND DUP2 EQ PUSH2 0x1EEA JUMPI PUSH1 0x0 DUP1 REVERT JUMPDEST DUP1 SWAP2 POP POP SWAP3 POP SWAP3 SWAP1 POP JUMP JUMPDEST PUSH1 0x0 DUP1 PUSH1 0x0 DUP1 PUSH1 0x0 PUSH1 0xA0 DUP7 DUP9 SUB SLT ISZERO PUSH2 0x1F0D JUMPI PUSH1 0x0 DUP1 REVERT JUMPDEST PUSH2 0x1F16 DUP7 PUSH2 0x1D16 JUMP JUMPDEST SWAP5 POP PUSH2 0x1F24 PUSH1 0x20 DUP8 ADD PUSH2 0x1D16 JUMP JUMPDEST SWAP4 POP PUSH2 0x1F32 PUSH1 0x40 DUP8 ADD PUSH2 0x1CED JUMP JUMPDEST SWAP3 POP PUSH2 0x1F40 PUSH1 0x60 DUP8 ADD PUSH2 0x1D02 JUMP JUMPDEST SWAP2 POP PUSH2 0x1F4E PUSH1 0x80 DUP8 ADD PUSH2 0x1CED JUMP JUMPDEST SWAP1 POP SWAP3 SWAP6 POP SWAP3 SWAP6 SWAP1 SWAP4 POP JUMP JUMPDEST PUSH1 0x0 DUP1 PUSH1 0x0 DUP1 PUSH1 0x80 DUP6 DUP8 SUB SLT ISZERO PUSH2 0x1F70 JUMPI PUSH1 0x0 DUP1 REVERT JUMPDEST PUSH2 0x1F79 DUP6 PUSH2 0x1D16 JUMP JUMPDEST SWAP4 POP PUSH2 0x1F87 PUSH1 0x20 DUP7 ADD PUSH2 0x1D16 JUMP JUMPDEST SWAP3 POP PUSH2 0x1F95 PUSH1 0x40 DUP7 ADD PUSH2 0x1CED JUMP JUMPDEST SWAP2 POP PUSH2 0x1FA3 PUSH1 0x60 DUP7 ADD PUSH2 0x1D16 JUMP JUMPDEST SWAP1 POP SWAP3 SWAP6 SWAP2 SWAP5 POP SWAP3 POP JUMP JUMPDEST PUSH1 0x0 DUP2 MLOAD PUSH2 0x1FC0 DUP2 DUP6 PUSH1 0x20 DUP7 ADD PUSH2 0x24F7 JUMP JUMPDEST SWAP3 SWAP1 SWAP3 ADD SWAP3 SWAP2 POP POP JUMP JUMPDEST PUSH1 0x0 DUP3 MLOAD PUSH2 0x1FDC DUP2 DUP5 PUSH1 0x20 DUP8 ADD PUSH2 0x24F7 JUMP JUMPDEST SWAP2 SWAP1 SWAP2 ADD SWAP3 SWAP2 POP POP JUMP JUMPDEST PUSH1 0x0 DUP7 MLOAD PUSH2 0x1FF8 DUP2 DUP5 PUSH1 0x20 DUP12 ADD PUSH2 0x24F7 JUMP JUMPDEST DUP7 MLOAD SWAP1 DUP4 ADD SWAP1 PUSH2 0x200C DUP2 DUP4 PUSH1 0x20 DUP12 ADD PUSH2 0x24F7 JUMP JUMPDEST DUP7 MLOAD SWAP2 ADD SWAP1 PUSH2 0x201F DUP2 DUP4 PUSH1 0x20 DUP11 ADD PUSH2 0x24F7 JUMP JUMPDEST DUP6 MLOAD SWAP2 ADD SWAP1 PUSH2 0x2032 DUP2 DUP4 PUSH1 0x20 DUP10 ADD PUSH2 0x24F7 JUMP JUMPDEST DUP5 MLOAD SWAP2 ADD SWAP1 PUSH2 0x2045 DUP2 DUP4 PUSH1 0x20 DUP9 ADD PUSH2 0x24F7 JUMP JUMPDEST ADD SWAP8 SWAP7 POP POP POP POP POP POP POP JUMP JUMPDEST PUSH32 0x3C696D6167652077696474683D22363022206865696768743D2236302220696D DUP2 MSTORE PUSH32 0x6167652D72656E646572696E673D22706978656C617465642220707265736572 PUSH1 0x20 DUP3 ADD MSTORE PUSH32 0x7665417370656374526174696F3D22784D6964594D69642220786C696E6B3A68 PUSH1 0x40 DUP3 ADD MSTORE PUSH27 0x1C99598F4899185D184E9A5B5859D94BDC1B99CED8985CD94D8D0B PUSH1 0x2A SHL PUSH1 0x60 DUP3 ADD MSTORE PUSH1 0x0 DUP3 MLOAD PUSH2 0x20F9 DUP2 PUSH1 0x7B DUP6 ADD PUSH1 0x20 DUP8 ADD PUSH2 0x24F7 JUMP JUMPDEST PUSH3 0x11179F PUSH1 0xE9 SHL PUSH1 0x7B SWAP4 SWAP1 SWAP2 ADD SWAP3 DUP4 ADD MSTORE POP PUSH1 0x7E ADD SWAP2 SWAP1 POP JUMP JUMPDEST PUSH32 0x7B2274726169745F74797065223A2248616E642054797065222C202276616C75 DUP2 MSTORE PUSH5 0x32911D1011 PUSH1 0xD9 SHL PUSH1 0x20 DUP3 ADD MSTORE PUSH1 0x0 DUP3 MLOAD PUSH2 0x2159 DUP2 PUSH1 0x25 DUP6 ADD PUSH1 0x20 DUP8 ADD PUSH2 0x24F7 JUMP JUMPDEST PUSH2 0x227D PUSH1 0xF0 SHL PUSH1 0x25 SWAP4 SWAP1 SWAP2 ADD SWAP3 DUP4 ADD MSTORE POP PUSH1 0x27 ADD SWAP2 SWAP1 POP JUMP JUMPDEST PUSH17 0x7B226E616D65223A2022546F6B656E2023 PUSH1 0x78 SHL DUP2 MSTORE DUP4 MLOAD PUSH1 0x0 SWAP1 PUSH2 0x219F DUP2 PUSH1 0x11 DUP6 ADD PUSH1 0x20 DUP10 ADD PUSH2 0x24F7 JUMP JUMPDEST PUSH32 0x222C20226465736372697074696F6E223A2022412073696D706C6520546F6B65 PUSH1 0x11 SWAP2 DUP5 ADD SWAP2 DUP3 ADD MSTORE PUSH32 0x6E222C2022696D616765223A2022646174613A696D6167652F7376672B786D6C PUSH1 0x31 DUP3 ADD MSTORE PUSH8 0xED8985CD94D8D0B PUSH1 0xC2 SHL PUSH1 0x51 DUP3 ADD MSTORE DUP5 MLOAD PUSH2 0x2213 DUP2 PUSH1 0x59 DUP5 ADD PUSH1 0x20 DUP10 ADD PUSH2 0x24F7 JUMP JUMPDEST PUSH3 0x11161 PUSH1 0xED SHL PUSH1 0x59 SWAP3 SWAP1 SWAP2 ADD SWAP2 DUP3 ADD MSTORE DUP4 MLOAD PUSH2 0x2237 DUP2 PUSH1 0x5C DUP5 ADD PUSH1 0x20 DUP9 ADD PUSH2 0x24F7 JUMP JUMPDEST PUSH1 0x7D PUSH1 0xF8 SHL PUSH1 0x5C SWAP3 SWAP1 SWAP2 ADD SWAP2 DUP3 ADD MSTORE PUSH1 0x5D ADD SWAP6 SWAP5 POP POP POP POP POP JUMP JUMPDEST PUSH15 0x2261747472696275746573223A205B PUSH1 0x88 SHL DUP2 MSTORE DUP6 MLOAD PUSH1 0x0 SWAP1 PUSH2 0x227D DUP2 PUSH1 0xF DUP6 ADD PUSH1 0x20 DUP12 ADD PUSH2 0x24F7 JUMP JUMPDEST PUSH1 0xB PUSH1 0xFA SHL PUSH1 0xF SWAP2 DUP5 ADD SWAP2 DUP3 ADD MSTORE DUP7 MLOAD PUSH2 0x229E DUP2 PUSH1 0x10 DUP5 ADD PUSH1 0x20 DUP12 ADD PUSH2 0x24F7 JUMP JUMPDEST PUSH32 0x2C7B2274726169745F74797065223A2022506F7461746F222C202276616C7565 PUSH1 0x10 SWAP3 SWAP1 SWAP2 ADD SWAP2 DUP3 ADD MSTORE PUSH3 0x111D11 PUSH1 0xE9 SHL PUSH1 0x30 DUP3 ADD MSTORE DUP6 MLOAD PUSH2 0x22E8 DUP2 PUSH1 0x33 DUP5 ADD PUSH1 0x20 DUP11 ADD PUSH2 0x24F7 JUMP JUMPDEST PUSH32 0x227D2C7B22646973706C61795F74797065223A20226E756D626572222C227472 PUSH1 0x33 SWAP3 SWAP1 SWAP2 ADD SWAP2 DUP3 ADD MSTORE PUSH32 0x6169745F74797065223A202247656E65726174696F6E222C202276616C756522 PUSH1 0x53 DUP3 ADD MSTORE PUSH2 0x1D11 PUSH1 0xF1 SHL PUSH1 0x73 DUP3 ADD MSTORE PUSH2 0x23A6 PUSH2 0x2397 PUSH2 0x2391 PUSH2 0x235A PUSH1 0x75 DUP6 ADD DUP10 PUSH2 0x1FAE JUMP JUMPDEST PUSH32 0x227D2C7B2274726169745F74797065223A2022416374697665222C202276616C DUP2 MSTORE PUSH5 0x3AB2911D11 PUSH1 0xD9 SHL PUSH1 0x20 DUP3 ADD MSTORE PUSH1 0x25 ADD SWAP1 JUMP JUMPDEST DUP7 PUSH2 0x1FAE JUMP JUMPDEST PUSH3 0x227D5D PUSH1 0xE8 SHL DUP2 MSTORE PUSH1 0x3 ADD SWAP1 JUMP JUMPDEST SWAP9 SWAP8 POP POP POP POP POP POP POP POP JUMP JUMPDEST PUSH32 0x7B2274726169745F74797065223A224261636B67726F756E64222C202276616C DUP2 MSTORE PUSH5 0x3AB2911D11 PUSH1 0xD9 SHL PUSH1 0x20 DUP3 ADD MSTORE PUSH1 0x0 DUP3 MLOAD PUSH2 0x2159 DUP2 PUSH1 0x25 DUP6 ADD PUSH1 0x20 DUP8 ADD PUSH2 0x24F7 JUMP JUMPDEST PUSH32 0x646174613A6170706C69636174696F6E2F6A736F6E3B6261736536342C000000 DUP2 MSTORE PUSH1 0x0 DUP3 MLOAD PUSH2 0x2430 DUP2 PUSH1 0x1D DUP6 ADD PUSH1 0x20 DUP8 ADD PUSH2 0x24F7 JUMP JUMPDEST SWAP2 SWAP1 SWAP2 ADD PUSH1 0x1D ADD SWAP3 SWAP2 POP POP JUMP JUMPDEST PUSH1 0x20 DUP2 MSTORE PUSH1 0x0 DUP3 MLOAD DUP1 PUSH1 0x20 DUP5 ADD MSTORE PUSH2 0x245C DUP2 PUSH1 0x40 DUP6 ADD PUSH1 0x20 DUP8 ADD PUSH2 0x24F7 JUMP JUMPDEST PUSH1 0x1F ADD PUSH1 0x1F NOT AND SWAP2 SWAP1 SWAP2 ADD PUSH1 0x40 ADD SWAP3 SWAP2 POP POP JUMP JUMPDEST PUSH1 0x20 DUP1 DUP3 MSTORE PUSH1 0xB SWAP1 DUP3 ADD MSTORE PUSH11 0x3737BA1036B0B730B3B2B9 PUSH1 0xA9 SHL PUSH1 0x40 DUP3 ADD MSTORE PUSH1 0x60 ADD SWAP1 JUMP JUMPDEST PUSH1 0x0 DUP3 NOT DUP3 GT ISZERO PUSH2 0x24A8 JUMPI PUSH2 0x24A8 PUSH2 0x2576 JUMP JUMPDEST POP ADD SWAP1 JUMP JUMPDEST PUSH1 0x0 DUP3 PUSH2 0x24BC JUMPI PUSH2 0x24BC PUSH2 0x258C JUMP JUMPDEST POP DIV SWAP1 JUMP JUMPDEST PUSH1 0x0 DUP2 PUSH1 0x0 NOT DIV DUP4 GT DUP3 ISZERO ISZERO AND ISZERO PUSH2 0x24DB JUMPI PUSH2 0x24DB PUSH2 0x2576 JUMP JUMPDEST POP MUL SWAP1 JUMP JUMPDEST PUSH1 0x0 DUP3 DUP3 LT ISZERO PUSH2 0x24F2 JUMPI PUSH2 0x24F2 PUSH2 0x2576 JUMP JUMPDEST POP SUB SWAP1 JUMP JUMPDEST PUSH1 0x0 JUMPDEST DUP4 DUP2 LT ISZERO PUSH2 0x2512 JUMPI DUP2 DUP2 ADD MLOAD DUP4 DUP3 ADD MSTORE PUSH1 0x20 ADD PUSH2 0x24FA JUMP JUMPDEST DUP4 DUP2 GT ISZERO PUSH2 0x2521 JUMPI PUSH1 0x0 DUP5 DUP5 ADD MSTORE JUMPDEST POP POP POP POP JUMP JUMPDEST PUSH1 0x0 PUSH1 0x0 NOT DUP3 EQ ISZERO PUSH2 0x253B JUMPI PUSH2 0x253B PUSH2 0x2576 JUMP JUMPDEST POP PUSH1 0x1 ADD SWAP1 JUMP JUMPDEST PUSH1 0x0 PUSH1 0xFF DUP3 AND PUSH1 0xFF DUP2 EQ ISZERO PUSH2 0x2559 JUMPI PUSH2 0x2559 PUSH2 0x2576 JUMP JUMPDEST PUSH1 0x1 ADD SWAP3 SWAP2 POP POP JUMP JUMPDEST PUSH1 0x0 DUP3 PUSH2 0x2571 JUMPI PUSH2 0x2571 PUSH2 0x258C JUMP JUMPDEST POP MOD SWAP1 JUMP JUMPDEST PUSH4 0x4E487B71 PUSH1 0xE0 SHL PUSH1 0x0 MSTORE PUSH1 0x11 PUSH1 0x4 MSTORE PUSH1 0x24 PUSH1 0x0 REVERT JUMPDEST PUSH4 0x4E487B71 PUSH1 0xE0 SHL PUSH1 0x0 MSTORE PUSH1 0x12 PUSH1 0x4 MSTORE PUSH1 0x24 PUSH1 0x0 REVERT JUMPDEST PUSH4 0x4E487B71 PUSH1 0xE0 SHL PUSH1 0x0 MSTORE PUSH1 0x21 PUSH1 0x4 MSTORE PUSH1 0x24 PUSH1 0x0 REVERT JUMPDEST PUSH4 0x4E487B71 PUSH1 0xE0 SHL PUSH1 0x0 MSTORE PUSH1 0x32 PUSH1 0x4 MSTORE PUSH1 0x24 PUSH1 0x0 REVERT JUMPDEST PUSH4 0x4E487B71 PUSH1 0xE0 SHL PUSH1 0x0 MSTORE PUSH1 0x41 PUSH1 0x4 MSTORE PUSH1 0x24 PUSH1 0x0 REVERT INVALID EXTCODECOPY PUSH20 0x76672069643D226261636B6275726E6572222077 PUSH10 0x6474683D223130302522 KECCAK256 PUSH9 0x65696768743D223130 ADDRESS 0x25 0x22 KECCAK256 PUSH23 0x657273696F6E3D22312E31222076696577426F783D2230 KECCAK256 ADDRESS KECCAK256 CALLDATASIZE ADDRESS KECCAK256 CALLDATASIZE ADDRESS 0x22 KECCAK256 PUSH25 0x6D6C6E733D22687474703A2F2F7777772E77332E6F72672F32 ADDRESS ADDRESS ADDRESS 0x2F PUSH20 0x76672220786D6C6E733A786C696E6B3D22687474 PUSH17 0x3A2F2F7777772E77332E6F72672F313939 CODECOPY 0x2F PUSH25 0x6C696E6B223E4142434445464748494A4B4C4D4E4F50515253 SLOAD SSTORE JUMP JUMPI PC MSIZE GAS PUSH2 0x6263 PUSH5 0x6566676869 PUSH11 0x6B6C6D6E6F707172737475 PUSH23 0x7778797A303132333435363738392B2F3C7374796C653E 0x23 PUSH3 0x61636B PUSH3 0x75726E PUSH6 0x727B73686170 PUSH6 0x2D72656E6465 PUSH19 0x696E673A20637269737065646765733B20696D PUSH2 0x6765 0x2D PUSH19 0x656E646572696E673A202D7765626B69742D63 PUSH19 0x6973702D65646765733B20696D6167652D7265 PUSH15 0x646572696E673A202D6D6F7A2D6372 PUSH10 0x73702D65646765733B20 PUSH10 0x6D6167652D72656E6465 PUSH19 0x696E673A2063726973702D65646765733B2069 PUSH14 0x6167652D72656E646572696E673A KECCAK256 PUSH17 0x6978656C617465643B202D6D732D696E74 PUSH6 0x72706F6C6174 PUSH10 0x6F6E2D6D6F64653A206E PUSH6 0x61726573742D PUSH15 0x65696768626F723B7D3C2F7374796C PUSH6 0x3E3C2F737667 RETURNDATACOPY LOG1 PUSH5 0x736F6C6343 STOP ADDMOD SMOD STOP EXP "
        },
        "methodIdentifiers": {
          "backgrounds(uint8)": "c3495567",
          "footer()": "3ce30185",
          "get(uint8,uint8)": "f9ec93d4",
          "getAttributes(uint8,uint8,bool,uint32,bool)": "646c1464",
          "getBackgroundName(uint8)": "4342e652",
          "getHandName(uint8)": "22c414eb",
          "getSVG(uint8,uint8,bool,uint8)": "2544c815",
          "getSVGInterface(uint8,uint8,bool,uint8)": "915bb129",
          "getTokenURI(uint16,uint8,uint8,bool,uint32,bool,uint8)": "b6046d7c",
          "hand_types(uint8)": "95fb756a",
          "header()": "0d7163c6",
          "manager()": "481c6a75",
          "potatoes(uint8)": "52b76522",
          "setBackgrounds(uint8,address)": "428bff6b",
          "setHands(uint8,address)": "158eb4e5",
          "setPotatoes(uint8,address)": "b6934925"
        }
      }
    }
  }
}