{
  "@Allcontracts/Inventory.sol": {
    "Hands": {
      "abi": [
        {
          "inputs": [],
          "name": "blue_slime",
          "outputs": [
            {
              "internalType": "string",
              "name": "",
              "type": "string"
            }
          ],
          "stateMutability": "view",
          "type": "function"
        },
        {
          "inputs": [],
          "name": "bubble_gum",
          "outputs": [
            {
              "internalType": "string",
              "name": "",
              "type": "string"
            }
          ],
          "stateMutability": "view",
          "type": "function"
        },
        {
          "inputs": [],
          "name": "cosmic",
          "outputs": [
            {
              "internalType": "string",
              "name": "",
              "type": "string"
            }
          ],
          "stateMutability": "view",
          "type": "function"
        },
        {
          "inputs": [],
          "name": "getBlueSlime",
          "outputs": [
            {
              "internalType": "string",
              "name": "",
              "type": "string"
            }
          ],
          "stateMutability": "pure",
          "type": "function"
        },
        {
          "inputs": [],
          "name": "getBubbleGum",
          "outputs": [
            {
              "internalType": "string",
              "name": "",
              "type": "string"
            }
          ],
          "stateMutability": "pure",
          "type": "function"
        },
        {
          "inputs": [],
          "name": "getCosmic",
          "outputs": [
            {
              "internalType": "string",
              "name": "",
              "type": "string"
            }
          ],
          "stateMutability": "pure",
          "type": "function"
        },
        {
          "inputs": [],
          "name": "getGorilla",
          "outputs": [
            {
              "internalType": "string",
              "name": "",
              "type": "string"
            }
          ],
          "stateMutability": "pure",
          "type": "function"
        },
        {
          "inputs": [],
          "name": "getGreenGoblin",
          "outputs": [
            {
              "internalType": "string",
              "name": "",
              "type": "string"
            }
          ],
          "stateMutability": "pure",
          "type": "function"
        },
        {
          "inputs": [],
          "name": "getGreenSlime",
          "outputs": [
            {
              "internalType": "string",
              "name": "",
              "type": "string"
            }
          ],
          "stateMutability": "pure",
          "type": "function"
        },
        {
          "inputs": [],
          "name": "getHand1",
          "outputs": [
            {
              "internalType": "string",
              "name": "",
              "type": "string"
            }
          ],
          "stateMutability": "pure",
          "type": "function"
        },
        {
          "inputs": [],
          "name": "getHand2",
          "outputs": [
            {
              "internalType": "string",
              "name": "",
              "type": "string"
            }
          ],
          "stateMutability": "pure",
          "type": "function"
        },
        {
          "inputs": [],
          "name": "getHand3",
          "outputs": [
            {
              "internalType": "string",
              "name": "",
              "type": "string"
            }
          ],
          "stateMutability": "pure",
          "type": "function"
        },
        {
          "inputs": [],
          "name": "getHand4",
          "outputs": [
            {
              "internalType": "string",
              "name": "",
              "type": "string"
            }
          ],
          "stateMutability": "pure",
          "type": "function"
        },
        {
          "inputs": [],
          "name": "getPirate",
          "outputs": [
            {
              "internalType": "string",
              "name": "",
              "type": "string"
            }
          ],
          "stateMutability": "pure",
          "type": "function"
        },
        {
          "inputs": [],
          "name": "getPlastic",
          "outputs": [
            {
              "internalType": "string",
              "name": "",
              "type": "string"
            }
          ],
          "stateMutability": "pure",
          "type": "function"
        },
        {
          "inputs": [],
          "name": "getRedGoblin",
          "outputs": [
            {
              "internalType": "string",
              "name": "",
              "type": "string"
            }
          ],
          "stateMutability": "pure",
          "type": "function"
        },
        {
          "inputs": [],
          "name": "getSkeleton",
          "outputs": [
            {
              "internalType": "string",
              "name": "",
              "type": "string"
            }
          ],
          "stateMutability": "pure",
          "type": "function"
        },
        {
          "inputs": [],
          "name": "getSnowTiger",
          "outputs": [
            {
              "internalType": "string",
              "name": "",
              "type": "string"
            }
          ],
          "stateMutability": "pure",
          "type": "function"
        },
        {
          "inputs": [],
          "name": "getSquatch",
          "outputs": [
            {
              "internalType": "string",
              "name": "",
              "type": "string"
            }
          ],
          "stateMutability": "pure",
          "type": "function"
        },
        {
          "inputs": [],
          "name": "getSteve",
          "outputs": [
            {
              "internalType": "string",
              "name": "",
              "type": "string"
            }
          ],
          "stateMutability": "pure",
          "type": "function"
        },
        {
          "inputs": [],
          "name": "getSully",
          "outputs": [
            {
              "internalType": "string",
              "name": "",
              "type": "string"
            }
          ],
          "stateMutability": "pure",
          "type": "function"
        },
        {
          "inputs": [],
          "name": "getTiger",
          "outputs": [
            {
              "internalType": "string",
              "name": "",
              "type": "string"
            }
          ],
          "stateMutability": "pure",
          "type": "function"
        },
        {
          "inputs": [],
          "name": "getVitiligo",
          "outputs": [
            {
              "internalType": "string",
              "name": "",
              "type": "string"
            }
          ],
          "stateMutability": "pure",
          "type": "function"
        },
        {
          "inputs": [],
          "name": "getYellowGoblin",
          "outputs": [
            {
              "internalType": "string",
              "name": "",
              "type": "string"
            }
          ],
          "stateMutability": "pure",
          "type": "function"
        },
        {
          "inputs": [],
          "name": "getYeti",
          "outputs": [
            {
              "internalType": "string",
              "name": "",
              "type": "string"
            }
          ],
          "stateMutability": "pure",
          "type": "function"
        },
        {
          "inputs": [],
          "name": "getZombie",
          "outputs": [
            {
              "internalType": "string",
              "name": "",
              "type": "string"
            }
          ],
          "stateMutability": "pure",
          "type": "function"
        },
        {
          "inputs": [],
          "name": "gorilla",
          "outputs": [
            {
              "internalType": "string",
              "name": "",
              "type": "string"
            }
          ],
          "stateMutability": "view",
          "type": "function"
        },
        {
          "inputs": [],
          "name": "green_goblin",
          "outputs": [
            {
              "internalType": "string",
              "name": "",
              "type": "string"
            }
          ],
          "stateMutability": "view",
          "type": "function"
        },
        {
          "inputs": [],
          "name": "green_slime",
          "outputs": [
            {
              "internalType": "string",
              "name": "",
              "type": "string"
            }
          ],
          "stateMutability": "view",
          "type": "function"
        },
        {
          "inputs": [],
          "name": "pirate",
          "outputs": [
            {
              "internalType": "string",
              "name": "",
              "type": "string"
            }
          ],
          "stateMutability": "view",
          "type": "function"
        },
        {
          "inputs": [],
          "name": "plastic",
          "outputs": [
            {
              "internalType": "string",
              "name": "",
              "type": "string"
            }
          ],
          "stateMutability": "view",
          "type": "function"
        },
        {
          "inputs": [],
          "name": "red_goblin",
          "outputs": [
            {
              "internalType": "string",
              "name": "",
              "type": "string"
            }
          ],
          "stateMutability": "view",
          "type": "function"
        },
        {
          "inputs": [],
          "name": "skeleton",
          "outputs": [
            {
              "internalType": "string",
              "name": "",
              "type": "string"
            }
          ],
          "stateMutability": "view",
          "type": "function"
        },
        {
          "inputs": [],
          "name": "skin_tone_1",
          "outputs": [
            {
              "internalType": "string",
              "name": "",
              "type": "string"
            }
          ],
          "stateMutability": "view",
          "type": "function"
        },
        {
          "inputs": [],
          "name": "skin_tone_2",
          "outputs": [
            {
              "internalType": "string",
              "name": "",
              "type": "string"
            }
          ],
          "stateMutability": "view",
          "type": "function"
        },
        {
          "inputs": [],
          "name": "skin_tone_3",
          "outputs": [
            {
              "internalType": "string",
              "name": "",
              "type": "string"
            }
          ],
          "stateMutability": "view",
          "type": "function"
        },
        {
          "inputs": [],
          "name": "skin_tone_4",
          "outputs": [
            {
              "internalType": "string",
              "name": "",
              "type": "string"
            }
          ],
          "stateMutability": "view",
          "type": "function"
        },
        {
          "inputs": [],
          "name": "snow_tiger",
          "outputs": [
            {
              "internalType": "string",
              "name": "",
              "type": "string"
            }
          ],
          "stateMutability": "view",
          "type": "function"
        },
        {
          "inputs": [],
          "name": "squatch",
          "outputs": [
            {
              "internalType": "string",
              "name": "",
              "type": "string"
            }
          ],
          "stateMutability": "view",
          "type": "function"
        },
        {
          "inputs": [],
          "name": "steve",
          "outputs": [
            {
              "internalType": "string",
              "name": "",
              "type": "string"
            }
          ],
          "stateMutability": "view",
          "type": "function"
        },
        {
          "inputs": [],
          "name": "sully",
          "outputs": [
            {
              "internalType": "string",
              "name": "",
              "type": "string"
            }
          ],
          "stateMutability": "view",
          "type": "function"
        },
        {
          "inputs": [],
          "name": "tiger",
          "outputs": [
            {
              "internalType": "string",
              "name": "",
              "type": "string"
            }
          ],
          "stateMutability": "view",
          "type": "function"
        },
        {
          "inputs": [],
          "name": "vitiligo",
          "outputs": [
            {
              "internalType": "string",
              "name": "",
              "type": "string"
            }
          ],
          "stateMutability": "view",
          "type": "function"
        },
        {
          "inputs": [],
          "name": "yellow_goblin",
          "outputs": [
            {
              "internalType": "string",
              "name": "",
              "type": "string"
            }
          ],
          "stateMutability": "view",
          "type": "function"
        },
        {
          "inputs": [],
          "name": "yeti",
          "outputs": [
            {
              "internalType": "string",
              "name": "",
              "type": "string"
            }
          ],
          "stateMutability": "view",
          "type": "function"
        },
        {
          "inputs": [],
          "name": "zombie",
          "outputs": [
            {
              "internalType": "string",
              "name": "",
              "type": "string"
            }
          ],
          "stateMutability": "view",
          "type": "function"
        }
      ],
      "evm": {
        "bytecode": {
          "linkReferences": {},
          "object": "608060405234801561001057600080fd5b506146a9806100206000396000f3fe608060405234801561001057600080fd5b506004361061022a5760003560e01c806385ead00a1161012c57806385ead00a146102fd578063888a0b77146103055780638a99b7fb1461030d5780638e4f449b1461031557806396b678a41461031d57806399726ec2146103255780639b45d56d1461032d5780639e15f49514610335578063a1b9bb531461033d578063a592a45114610345578063ac81d87b1461034d578063b3f22af214610355578063c305b2b21461035d578063c63fb76f14610365578063c7c866b21461036d578063d54807e714610375578063da2643bc1461037d578063e6595f4214610385578063e7d01d7a1461038d578063ecc53b5e14610395578063ecde90671461039d578063ed6f1156146103a5578063fbe154bb146103ad57600080fd5b8063020a41be1461022f578063067567291461024d578063080576e1146102555780630e2a80381461025d5780630f114e0c1461026557806315c466a61461026d5780631e7b565b14610275578063233ab6b61461027d578063240cf269146102855780632817e5be1461028d57806332e8e54414610295578063343e613a1461029d57806334739b2a146102a557806343cf51ff146102ad57806344d333ff146102b557806345aad66d146102bd5780634e9e4cfa146102c55780635408e269146102cd578063557dd064146102d55780636941464f146102dd578063697e9262146102e55780637f478d38146102ed578063832e548a146102f5575b600080fd5b6102376103b5565b60405161024491906109a3565b60405180910390f35b6102376103d8565b6102376103fb565b61023761041e565b61023761043d565b61023761045c565b61023761047b565b61023761049e565b6102376104bd565b6102376104e0565b610237610503565b610237610526565b610237610545565b610237610568565b610237610587565b6102376105a6565b6102376105c5565b6102376105e4565b610237610603565b610237610626565b610237610649565b610237610668565b610237610687565b6102376106a6565b6102376106c5565b6102376106e8565b61023761070b565b61023761072e565b61023761074d565b610237610770565b610237610793565b6102376107b6565b6102376107d5565b6102376107f8565b610237610817565b61023761083a565b61023761085d565b61023761087c565b61023761089b565b6102376108ba565b6102376108d9565b6102376108fc565b61023761091f565b61023761093e565b610237610961565b610237610980565b6060604051806102c00160405280610290815260200161440d6102909139905090565b606060405180610260016040528061023081526020016135696102309139905090565b6060604051806102a0016040528061027881526020016114b16102789139905090565b6040518061036001604052806103308152602001610f4d610330913981565b6040518061022001604052806101fc81526020016117296101fc913981565b604051806102e001604052806102bc8152602001611bdd6102bc913981565b6060604051806102a001604052806102708152602001613cdd6102709139905090565b604051806102c00160405280610290815260200161440d610290913981565b60606040518061022001604052806101fc81526020016117296101fc9139905090565b606060405180610360016040528061032c815260200161323d61032c9139905090565b60606040518061036001604052806103308152602001610f4d6103309139905090565b6040518061030001604052806102dc81526020016109f96102dc913981565b6060604051806102c00160405280610290815260200161417d6102909139905090565b6040518061030001604052806102dc815260200161234d6102dc913981565b60405180610380016040528061036081526020016129d1610360913981565b604051806102e001604052806102b881526020016119256102b8913981565b60405180610360016040528061032c815260200161323d61032c913981565b604051806102a001604052806102788152602001610cd5610278913981565b6060604051806102c001604052806102908152602001613a4d6102909139905090565b60606040518061030001604052806102dc81526020016109f96102dc9139905090565b604051806102e001604052806102b481526020016137996102b4913981565b6040518061026001604052806102348152602001611e99610234913981565b604051806102c00160405280610290815260200161417d610290913981565b604051806102a0016040528061027881526020016114b1610278913981565b60606040518061026001604052806102348152602001611e996102349139905090565b6060604051806102600160405280610234815260200161127d6102349139905090565b6060604051806102a001604052806102788152602001610cd56102789139905090565b6040518061026001604052806102308152602001613f4d610230913981565b6060604051806102e001604052806102bc8152602001611bdd6102bc9139905090565b60606040518061026001604052806102308152602001613f4d6102309139905090565b60606040518061030001604052806102dc815260200161234d6102dc9139905090565b604051806102a0016040528061028081526020016120cd610280913981565b6060604051806102a0016040528061028081526020016120cd6102809139905090565b604051806102a001604052806102708152602001613cdd610270913981565b6060604051806102e001604052806102b881526020016119256102b89139905090565b6060604051806102a0016040528061027c8152602001612fc161027c9139905090565b604051806102c001604052806102908152602001612d31610290913981565b604051806102a0016040528061027c8152602001612fc161027c913981565b604051806103e001604052806103a881526020016126296103a8913981565b6040518061026001604052806102308152602001613569610230913981565b6060604051806103e001604052806103a881526020016126296103a89139905090565b6060604051806102c001604052806102908152602001612d316102909139905090565b604051806102c001604052806102908152602001613a4d610290913981565b606060405180610380016040528061036081526020016129d16103609139905090565b604051806102600160405280610234815260200161127d610234913981565b6060604051806102e001604052806102b481526020016137996102b49139905090565b600060208083528351808285015260005b818110156109d0578581018301518582016040015282016109b4565b818111156109e2576000604083870101525b50601f01601f191692909201604001939250505056fe6956424f5277304b47676f414141414e5355684555674141414477414141413842414d414141444930735242414141414746424d56455541414144723363416648423367352b374d7434322b7a647a31374e72783966697a49544f4f4141414141585253546c4d41514f62595a6741414162744a524546554f4d76746b6b467577794151525331754d4769554e6469343252745a58594d345153774f6b4378366750542b55762f5941747951525139515547512b6a2f396e694433386a2f2f78626f7a44614f5370734f69702b6872764776756a7659786670734f575074676d6f35494f44394b646d646853594b4d436b77373061762b675a4a6b455539434a48692f6d4f30564d4c555563357357385a6b6647675745414441377066625a4e31696964644a39756b5378326f324357644e31687a474155412f615964797a33336e46346936573144697455504c44632b38446f77685163315a3046486a67497668685873425673435463546a48755246717a623279414f784f6e414b596836554d4f524b4246526b4e61596475482b6968567059555173574a36516c6d726e415667344778476767726e67435630484242614d4a6150375a3345765a464739595654574e4a6d4b673241754f416a6d69712b726f2f44627a525333456a34426b7a356a5338424c4366664f3754674a546a754f3064666132374b67474279696b495257706d6d744f48742f437a71365764793336437a503375654342346a567a644d4e426b544e797931754d4c5476415771526e584a327773395550476376597a3377746f7663334a4e664e3942736a6b3677686c35614f41356e6e3864446a566d554e79634d33744a6d30444f2b656f6e4f707478543476337a722b3578452f4d5a59324f73357539632b363639353039545a4c766e2b58396f3739763362723839612b4e792b6f78462b6d63702f543638464c384b7a5764334669377548796a76664d5458476f375a4141414141456c46546b5375516d43436956424f5277304b47676f414141414e5355684555674141414473414141413742414d4141414133432b2b4141414141456c424d564555414141436e706c6c7a636a5931476944477858784d4d4462395a4c444c4141414141585253546c4d41514f62595a67414141585a4a524546554f4d7674307547526843414d4257426e714f43466253436841534a724159346c4f4e742f4b78635145567976675a7654482f4434426f505236662f36733165716f347550756b2f4a49455733787764643976545a4a2f657849583235673163737472776f457679644651466c31646e41694b4f3646544d51386f7842696d336b643135446444464e4e7335347852754c67754a6939327a4d49377556416f50534a7935374c694c594267626c565571546d7a336e3442385977553732794b4b41466f626d346f3354795234482b384a6e3878647a7a5278416c753235624977347553577a5179784d6a65566739556664594b3974706d665838674e653058466c696d38493547496d34786d5645565951652f44424e684e67343870384d43436c6b3161336370684b42685167674134756332694a745a706c7670685244316f5a44414838456330596a4a48527545792f6d4272376b56473435764a524376764b713148504e573774543372695678795a61703576374b527476725a546a615750337978785a496f74336c6c59674a5956784e4b786b7369774f2b63627938553873454f4f59577135734239594f6862702b5633595835796a7461566e7474544f30724e6248786c627a2b695a52685968644c56424a487a794778432b4d597872636632463062474d7a4a562f414c566f5569347047306a644141414141456c46546b5375516d43436956424f5277304b47676f414141414e5355684555674141414473414141413742414d4141414133432b2b41414141414746424d56455541414144653274493147694333723646776156354f53554479372b6d3373616662565137614141414141585253546c4d41514f62595a6741414166684a524546554f4d76746b6b475332794151525658636f427550737755684b32766f75594131754c49656c33304161354839704f622b6c642f4943492f474e306a51516732503139424139372f397336327676366577762f57753630792f3735394d4d4c66522b74523167654f3864392f777945536b4744382f66354d4a4c6a6b4e344e4e573935536f596e79387854625a744351504d555465626b7938395449364d7774486c73336d526d525733526e496d6e3365374d7a6a5339595a514d626e766d4a646d4c78694a6c332b4755364d505959744e7134623764666b63635a6f78636e63314c622b785a6c336a6d727658616759527a326f7a585279356b4a6537516d48587a473534533253465a2b425752432b546f596154766b6f525052783772714452534337484659384170506971477358544c6d646a434879594f31434d594f4a584d55663642547530436b55776f2b4b6632613142654e7152345271357a2f562f695175766c5537467466547230656241656c4638547446344566375345764c576c692b64336175346874364d775a4f616c387765635441373470484c57507669612b4b727767773337653676532b46356f4d6d5032646c78467874584e6d79326d49764f776b727857325861676249304b64534932353874517475617866633743346b48346c447573646b4e57357443434a455567536a6b61537055664d356954364878533768554d3530505659724c476d786733694a4f4e4a6d44316c456771746c6f704d6e3979446e4e306d6165386b65354456446232746e706456576e7476615a6f424d346645516f5776326c727533716549512b355a64632f636f4a6a55376f4c4a2b7a5434795363726e5376564a4243452f72362f42792b3577626662316642536d76627662524845365064715877524b702f5263586532694f4d794248557741414141424a52553545726b4a6767673d3d6956424f5277304b47676f414141414e5355684555674141414477414141413841674d41414142486b6a4868414141414446424d56455541414144567049533568574d31476944396c4d79744141414141585253546c4d41514f62595a6741414155644a524546554b4d2f747a6a464c77314151414f43447a49322f4a6b4a642f42575830435447715168704c56306337503849623143365a5568734e637372564a6441666b4d65534f6459366941754c754c673565573970454e2b51672f65335833764f44673452552b633066732b347338665846353348356259775a37357255584a5144684d30374233506c6a374b46636565423635717562616b346b4831654767626131763138586966754672627a6538434a617a7a6e78627a494c573535792f46733942384e6a35446236306a56787776696d575163434d7648596d2b496138444a685a6535434a556f69434d59655a3839712b69454a79596a4e4c32734d59482b414458617a366244673477676b636349786c3368696a4b517874564d5a3346386b593332446a4855726a7676575950476f3955764f784d74354a583645306c4f5156584a41643644463169426d596c4666535a7152735a39725555645a4f596a634849336244786f4d7744736d4a6d38793158366a38486a6d72317a716e30716d7946616279376a54786c5a396b2f565175577a764b712b5a7537585171367a43564e6a4252446a4876743971762f512b50554c795053744b30546741414141424a52553545726b4a6767673d3d6956424f5277304b47676f414141414e5355684555674141414477414141413842414d414141444930735242414141414431424d56455541414141314769446e374f2b7575384c2f2f2f386e753372774141414141585253546c4d41514f62595a67414141586c4a524546554f4d7674303875523369414d4147445267523430494f454742476b414a2f3358465067646c7366366b7674797363553359695247774d2f3657652b4c74732b4a77514d434242536b3778702b73306346344372364337397856505062416551533433707175443178366f646e7a584c68796379545655396d5a373831414342666f714a4863684b4b70494c426d537035786f4e62636a2b396e39335333396974563237797773594e75624f4b69646f62653639635467344938634e5059782b7562586477685668595a392b737057304e6a6771426b6b2b57544168664e38734f4d5246533842354a2b36466351585279613474757752344676366931646e4a4d2f47527272687548684f774e373465625a64475138654430484a372f6b3933745a424d5a44504c4750692f386a5132334f574d647a4c7250573550573175546547697673484166586738574e5055334f6f6b7470454e6930312f5a4576624b32675444645346646d61726f7749656d4e2f344b4c4b64444b38553846536f4d7a39593256373053465274522b3837577857556b2b49736e46374742623258594f643076487236676c37302b597550694d70436974694c4231456a34627936574f5943614972322b2f304b5a465253636e6669716274576e575a567169705a577a5662466c55735054396577636e306e3943772b6453704f35695378774141414141456c46546b5375516d43436956424f5277304b47676f414141414e5355684555674141414477414141413842414d414141444930735242414141414746424d56455541414144704b536b31476944393177502f384a7a366433666376787a4f4943443652574a534141414141585253546c4d41514f62595a67414141524e4a524546554f4d76746b4c4678777a414d52585863674958504c515079504144687977415746306a684256786f4144645a5078384b76306a5a6958336e63796b3078502f7645345130624c58565675386f467834364d64436a377a4b5a3954795a35456d6258746432732b2f78306a7a486648734d546d733045535034467a3645425664504445744e4e6e794d3258704a4f626959786179557077357246704579476c5a466d3862383266414a3572466f506d427a744158423247456f78533159546b2b43467272484e68793234574c446f363678466248564b2f694350336948423377476e6d7659464871574779505137374b75594f3170756968366c71304e5a37365146446b59486658656939514c5471504132432f63675a6f576a7072314e36642f2b4c6d75773072767235513778747377564d4e6663337a426b4959706431557a66665974446e786559332b4c2f514e4d3254416634326250636238354d64554e626f397a38582f77447a535a55724657536369314141414141456c46546b5375516d43436956424f5277304b47676f414141414e5355684555674141414477414141413842414d414141444930735242414141414a46424d56455541414142474f433466484230384f446f794b434862334e3969556b59724b43713175635433392f65696f614a54546c4745442b51394141414141585253546c4d41514f62595a674141415a4e4a524546554f4d767430374675776a41514275444962334257354e6b4f4163727349564b5a6a4b772b414a4b6c7247546f413843515056496c586942536d646b59752f626c65676e344f45506843666739495054357a6d6373736c6465655a726947597043365363625a6730306e2f6f6847775734346635457a4e67636a415451747963652b68434b4d797344546172547674352f68594246426f596c45313645476e76765135654a426c61346c4f6246665433304c554b746853707a6b357362377362503663446d6a6866312b5a744168704742383353645263354d695a69773643506a614b35454c50466d67766737377455444f32516e73356d4f58464d725a4f6d6b7835575a356e2f324f514249415a77704a59785235696d7a483162306e423361426c6c703475374b416a6d2f3454566e42654241736c655a4a714e2f414d434d38794a306a4c46316e7242494744414f6b4e6d5446516e50414d4d346b41742f3459612f57646a727941357951307a6c73566670343947732f4d44594f79716d376f774856536e6a3258773232456a4f622f737549336144792f732f474d336d457862326143747967624d6c6f30314f523274622f5944462b386c615779485431654b39597a48796c72464c32413468466e3777686e6f6637396d44544c6d367a72597169744c48713037734c63396275793373723737776d4a5a34337535737462504c48385956735768626447755857503448637064732b7532686f6a6f41414141415355564f524b35435949493d6956424f5277304b47676f414141414e5355684555674141414477414141413842414d414141444930735242414141414656424d564555414141416447687462563167744a69684a513056396533772b4e6a6a334f38426a4141414141585253546c4d41514f62595a6741414161564a524546554f4d767430303175777941514257427a412f36615061504a415a436c376b4663494a4636674b6a33763050664d774b3763525935514f784b4c7636594e304f694c4a2f7263373236334f49736e77622f6e4e583875487643652b657637736565324d75582b6d5a4e532f556d36565173367157714e56556c56586b752f354c6d5663685355355062552f4664437537454a6848333154356e463857475a5148576950527a746d2f656d7454534f64306a6d6558576f4a6a7036635334717a554b504c4e757a484e7658463879527a75785163664f5048646e5447454846334e585975644b76746f34324a4f393447526b6e4573534f653366686d6756625a316235656f6d4f7865524a694b566f366c73692f677547306b304553587a696155584f37694336577135674a4a31634d44556c5947646d6132592f6a47717333683033786d646b775137755a4a31634358723545754f557639587135517777674e593070473967504d4958325063754a4862787157737333664947633151775257534d456f4965624a62563164546963357955614a5876686d38594a476a437936543858416c6741456a4863343359792f5864724a7a4b362f634759624c376457683778382f344a36563933427578742f4d597077394d4a33614858726b7939615932543139612f3934743970686b502f4d4637503431383235352b7a75322b375a2b7a6e337a32482f7674647a39526f6563334475506a4b5836324f306668302b6d6c383250566254742b6f2f2b6c5a726b6a376831695941414141415355564f524b35435949493d6956424f5277304b47676f414141414e5355684555674141414477414141413841674d41414142486b6a4868414141414446424d5645554141414369634574395343493147694270414c716c4141414141585253546c4d41514f62595a6741414155644a524546554b4d2f747a6a464c77314151414f43447a49322f4a6b4a642f42575830435447715168704c56306337503849623143365a5568734e637372564a6441666b4d65534f6459366941754c754c673565573970454e2b51672f65335833764f44673452552b633066732b347338665846353348356259775a37357255584a5144684d30374233506c6a374b46636565423635717562616b346b4831654767626131763138586966754672627a6538434a617a7a6e78627a494c573535792f46733942384e6a35446236306a56787776696d575163434d7648596d2b496138444a685a6535434a556f69434d59655a3839712b69454a79596a4e4c32734d59482b414458617a366244673477676b636349786c3368696a4b517874564d5a3346386b593332446a4855726a7676575950476f3955764f784d74354a583645306c4f5156584a41643644463169426d596c4666535a7152735a39725555645a4f596a634849336244786f4d7744736d4a6d38793158366a38486a6d72317a716e30716d7946616279376a54786c5a396b2f565175577a764b712b5a7537585171367a43564e6a4252446a4876743971762f512b50554c795053744b30546741414141424a52553545726b4a6767673d3d6956424f5277304b47676f414141414e5355684555674141414477414141413842414d414141444930735242414141414656424d5645554141414335744a5131476943576a32764f79712b5151442b75626d35612b5a57554141414141585253546c4d41514f62595a67414141586c4a524546554f4d7674302b324e7044414d4275444948627a7846704477636638645677446143704232436c6a70727638537a68356d494948635662424745516c5037495149776b2f3852442b473439624459526c53434452384470304a68496c7a4357474d73694c64324241535138694d4b50475776466775764467732f2b4f616e6c48775a7276574b335068416c7662554d5a7264594a6d7a6a6f6c577457575671766563684650542b544a504b4c443168495a645a674e55545352476c75464c76765765707833356b537938786f6f585a683346756359786f597a72446c4869596a4f735759423638357158596d4567326b41464944343168672b71412f323135622f772f5459566a4f416e5450674d2f4a78726a525045653663624c426c686a4d4f6a6d364b4a3464355778516363664943464f4446394a57423863373834742f546b7a39716c6a50376a7a476a5a6353447678646b5642796d462b75544e7a68586e317575655a36755449706e4642384d4150617052347879386767504c75484b764c5063575558663963683758464c466d5658426278616f7a6a6657392f2b7458533748556a33576b37566c6776473547584c65576935442f534c6c3637757144626270445439614c6f393673545a37677259734f70396a576d374d5a6435716c726c6c5859663054315a57665071447632316f56545453355543674141414141456c46546b5375516d43436956424f5277304b47676f414141414e5355684555674141414477414141413842414d414141444930735242414141414746424d564555414141444c6c6d73314769423654797977653146544f5354657249535a616b514d4c4877304141414141585253546c4d41514f62595a6741414162744a524546554f4d76746b6b467577794151525331754d4769554e6469343252745a58594d345153774f6b4378366750542b55762f5941747951525139515547512b6a2f396e694433386a2f2f78626f7a44614f5370734f69702b6872764776756a7659786670734f575074676d6f35494f44394b646d646853594b4d436b77373061762b675a4a6b455539434a48692f6d4f30564d4c555563357357385a6b6647675745414441377066625a4e31696964644a39756b5378326f324357644e31687a474155412f615964797a33336e46346936573144697455504c44632b38446f77685163315a3046486a67497668685873425673435463546a48755246717a623279414f784f6e414b596836554d4f524b4246526b4e61596475482b6968567059555173574a36516c6d726e415667344778476767726e67435630484242614d4a6150375a3345765a464739595654574e4a6d4b673241754f416a6d69712b726f2f44627a525333456a34426b7a356a5338424c4366664f3754674a546a754f3064666132374b67474279696b495257706d6d744f48742f437a71365764793336437a503375654342346a567a644d4e426b544e797931754d4c5476415771526e584a327773395550476376597a3377746f7663334a4e664e3942736a6b3677686c35614f41356e6e3864446a566d554e79634d33744a6d30444f2b656f6e4f707478543476337a722b3578452f4d5a59324f73357539632b363639353039545a4c766e2b58396f3739763362723839612b4e792b6f78462b6d63702f543638464c384b7a5764334669377548796a76664d5458476f375a4141414141456c46546b5375516d43436956424f5277304b47676f414141414e5355684555674141414477414141413843414d414141414e49696c41414141414e6c424d5645554141414170494549774b456b6546436b624554636c4845464d52474a444f316b324c552f372b763946505673374d6c5077362f37577966644e523231434f325454304e764b784e716a53646b634141414141585253546c4d41514f62595a674141416a5a4a52454655534d6674315175796d7a414d4264424b6c697844674c623733327a7656647a486741504a41714b4a536242314a4f557a6b312f662b4d5933766e45547051783348304b4557666b762b74316e425a42617a6279616c3778317135356235515062434b463764736d584c4e444b2b3737454469396c6e34546432784c6c72563066315839726c524d7547746936787949506446566937652b5a324b58712f4159586b426b4f6c7235674230716a7576443558686336705a32786e6a6837357562484f50684d6a4a74354372543941434f4842574b5a6b55394d744570746d324c6a4457374176544d7464645551776d7463536c726432673832366b496b66665735537a6e6a7a4252303772394e4c6d35356f68316e36736c4b7837525772634632624a5a537144755763734c634c79476f626d435041335a3341387a4f6d5470694c524c5044477454382f3058356f333163424a302b68725857434a78544f7330483746752b735231774e516846517552476c5536686c6c794975344344355a3432724879526472553872516976664f495762614338617557455163304c6b7778472f416b532b436b736a5069674247545a4663386672746464613550654d627a456f6d746d747549575a7371756a33676d4153317a5145764d594f7a6234664f4a473170566830544934694875624e6a5779714c532b694f46666d5435635374323647315a65554762416573755a325058444a696a7564357a4968315a6b7258316f50545a39475832686939387847337276316752357a5857586673766d4f3978672b3348423758636a686f617a506e3453553265344479382f4554686b5a426e4b72494657352f71476e502f382f2b49466139786d33313144614f5671446d76374f2b366179495678674265344668555678334f2b724572335752784c73643953576d466233486a54696b584f463574344f2b77516f4c4c44643467343570784555537a3274633479772b72564f5534576a4c773541626e416c547949436c6e2b6b317a756f53386f502f4162566a45307171567354664141414141456c46546b5375516d43436956424f5277304b47676f414141414e5355684555674141414473414141413742414d4141414133432b2b41414141414746424d5645554141414437697773314769444b5867426a4a514e464751482f754765414d77724f3042466c4141414141585253546c4d41514f62595a6741414168354a524546554f4d76746b6b46796e44415152536c753846764b724355456543334a506742596b367944527763594b69647735663656626a466f384e6733694d55434e592b762f743274356e76397436757272363967642b314d3037546471667669682f59364b68756178704666542b5954486d6b434241506172702f456b2b6f44354843343265744865542b46464362423269576e357764737a304746535137587a72734c5052714c567656766f326e586c396c5466444133496f446c4d433159444966316f7871576e2f4444744c386469422f7a456239795974697a6153384554762f38674d39695042423764474c395967374d4e452f4b6f6b39426d6461374e4950384f332f64635769765371785a795531697a5a2b4d327a473332724c6145695333764d6b544e332f484d4c3379554846545239373675635564687a524641463636706742456e567a465477684177574b74594d44687655344c6c686e3267554942424632642f79564165426c6f6f59443974654e52543759637145547479356230744e5a786759706569646f58725555643268506e4a6f5937397042595632734a32394a4c30777a544c55683361387858414764525877434d544f2f574d4538345756415548486c7a68653552726245526944636e7a674d4169636e556951615574616d337661753047565770706c386b474f5a536f3138506436566779714c4f7475446a66526b57363046755577634c52515076362b7148474c6655572f49596c376c434c6e7a4f63683243424337794e76653162476c724f6d654b59564f3761504d6c76522f55466a6c6e5a2f59794f5141644367505579354b586d38383876486e67554e6945474d725a74394e646844615639756b3177683262474a2f54764d6439596d6564436a7432766d4e766164372f2f695068636c6350387676504f6c424358744a79614749614d7578617235726c315047756a70796363444b314c6b2b532b70376371713279662f3278624178714a7a6a2b4141414141456c46546b5375516d43436956424f5277304b47676f414141414e5355684555674141414477414141413842414d414141444930735242414141414431424d564555414141443875767236692f59314769442f3550362b76736f354141414141585253546c4d41514f62595a6741414159704a524546554f4d76743034734e7044414d424e424971574473626342324137464441346a7276365a7a344c4a386c684975306f72456a394567735a542f362f3936583331655872462f6569756c3972572f334642584a376453676f5852666e676868334170546d445a66734f5a48616d4b7a482f614d377a717959727479525268474e30494d336c7768585932585672644e4c7a72707a3359784d492b72613568515945587a6c2b725353394d69544274565a4d523873726a3058363474724963544b334b7a72726c644c4b56685163654c4d6d2b6c5a6938574845324e764c424c4f453762354d2f7a636b5265724161574c6975583835614b4f412b6e707835507753657a444a592f6347785a674143554c527134357048683131354f505653757154654f5138435a614c78516b5663515977625a2f764a32667a43664c442f4d73756f4f7a67463550683832584d77686763444d676262354c6f7a415470594a33396632733538737538387459534f35736c486b64714642575046594e7533644f5851665853773748733775575a6341547334414d337735652f6b724a71424f765974424b724f3563716b6d47325257376e7877685258746764545637584a6f64726c777655506159346d397a7863762b47364a6c7564334f4c4f7977746a4f786e4a72667937763562365a465736666c5769436a36726f584a6e556e7a4c4b3934594e395972362b532f6c4970616a4f767a372b4541414141415355564f524b35435949493d6956424f5277304b47676f414141414e5355684555674141414473414141413742414d4141414133432b2b4141414141456c424d5645554141414344576b52554c786b314769444e6c587176646c47484a4168454141414141585253546c4d41514f62595a6741414158644a524546554f4d7674302b46743943414d426d416b4a6e6a4e66514e676576394e376a6f4164335341543033325836563249793468515632674a596f7765624364494d58396a563837626d306134673033636337724e4e6a676b536b6e35365951412b5445696f6a425a75694763374c6d51697a512f464e36526b4a6a76593770643071556f4c30563433537337697472633837694132747268687a344d3171366545756d6163524955627a53674438556b5667384b327546496475726e64694c757a2b2b6d6354486c594d2b625a78634a734f56626350623030324e7333474733735a32357345344e495a6b696942656d5457636e7834624a3441425248733141734331546d4e2b6677433431724b78316a4544794867756f45737447644b782b6a2f52785677495052666b614e552f5674627745624378376b30414c6f324271654e715443752f495a36347846653252534230584248326e4c466a6431385a697a47586c594d3738745834576f2f736c776f627952627674566a4d3074534f3673686b6352765466314e616561346e357369746e6e5971544c7a6e544d7967786e4e686a754849335037765a636a7031516f44356f32355a77396a6553324e4954326e335966306e45663837466b32396b666d3562486e794c79785231336d6e6f6c527061307550334e56376e73332f674b4a535633424565654c705141414141424a52553545726b4a6767673d3d6956424f5277304b47676f414141414e5355684555674141414473414141413742414d4141414133432b2b41414141414746424d564555414141425632644531476941726a5966506739696b5661312f386572646d755842585950634141414141585253546c4d41514f62595a6741414166564a524546554f4d76746b6c467932794151686a5863594266486651556871382b77755941565048324f787a364164594e6d65762f70767967675266454e577653676859397659594875662f746e5731392f5432482f364633586d66375950356c674871503171657343782f6e6f7675475269556778666e372b4a684e6363687241703733754b5648462b48695062624a7053523569694c7a666d486a725a58526d466f34737538324e794b79364d3541312b377a626d63655872444f416a4d393978626f776563564d7576777a6e426837444874735844666172386e6a6a4e474b6b336d6f6266324c4d2b3863315436365544474f656c436236654c4d6a627a614577362f596e4c4457795172586a454c7774664a3049705450677352785776586e5377434f6554513841684d4265766142525077334d3645504e68366f5a6a42524b3769332b675537744170464d4b50696e396d7451586a616b654561756550617638684c7235564f78625830362b747a5944306f766964497644575074505373686157507a7348562f454476526b44463756766d447869344f6861335979654a37347276695041664c2f57375830704e4a38302b545572492b5a713438715731525a3732556c6f464c646471686b675135394b6a626a785a686663316c3777616e63682b556763306d644d56754f3144554745534970674e4a49304e5968546e55536677324b586343686e326f3756436b7461374342655976375932454d576b6542716d656a6b7957336b2f435a4a63792f5a6737786d364f766157576d316c57657333584a4470724139524f6954322b6275626173307842353438317036464a4e574f364379766d55666d5354684b625232796b48497a2b303165446d6337717439763536463233735969654a303264713377524b702f5265637732662f77735031435141414141424a52553545726b4a6767673d3d6956424f5277304b47676f414141414e5355684555674141414473414141413741674d414141433453786f67414141414446424d564555414141426e526a4e554c786b3147694172377267584141414141585253546c4d41514f62595a67414141555a4a524546554b4d2f747a6a464c77314151414f43447a49322f4a6f49752f6f704c61424b665578485357726f3432503852337142307935445961705a58714336422f4959386b4d367831454663584d5442793874375359662b42412f65335833764f446a3444346f54656c38482f5036466936762b7735466232504777733677345349386257753432424763584639714449434458396378345041366733752b4e6e64584e71707a667a55506a7a567155624448744c54626c6c48552b46654b6c66474c736f666372664270626852526958533459343162524f4a646954563477626a6365354c4b5373755463342f617363536a6a694a79363346454f4d4d46376545636636324f3250427a69475059347771706f6a6645457a6c7a55786a6366795a6863592b73744b754f753834673837447a5538354532336970666f6a4a55354357636b7a303459756f51633741704c355874574e764e6a616d6a624a776d66674657346b6574423145536b564d2f6e526b2f552f6b35634e3673396336554d32306e7974546457527071503672366f56313139725358376433473255545673307a5a776c513777754b343958376a5034394176492b392b3065394141414141456c46546b5375516d43436956424f5277304b47676f414141414e5355684555674141414477414141413842414d414141444930735242414141414d46424d56455541414143575830474856547331476941794d69565a57566c4f546b34364f69784f6f45372f49794d5448526d6c704b44386157434756447151577a364655546255766965364141414141585253546c4d41514f62595a6741414159564a524546554f4d74694741576a5942514d456d4273624143696d49324e55595368596f41363653656c5953414b41336768577a6676445334435670677646437855794d525656323561584c6330755546794173457269437662493768306c3369536567505034415638727a4d78553173483870673376387958763364455271654f534a7238614b4f73556541776a534953324c2f4d4750595849414c496b43776c35416a615a775066456b7541595758724473316e466d576673716248544f51346b795272694478486c3962686f41796a382b6a696a6e6f323076524d4a6d54334c5948795245702f656e37454758753252637768472f686d79336c69326434444954316d31374f4a4f61476559665857474d6f6876576447526b7a36594753706750316c397a38627a367a5a6d5a37757777704e74384c616a67466c4e3744784b33764b706558704e45326e30336d6170765052364f4a4b786d776d4256625945574f373365313257366d767372747432342b75613975756b2f695270704147786e2b4c4867516f582b506d4f52347637324738345575594d616d6171716d62576f764d7973613361316a506938566d735477706e6f484a772b506d61586c53317343424c382f7a53706d467a34634c57324637575a565658546148556b75707936715264735843384b2f664557444372776551385a384a776e7650504c443150415a2b414f487468686251547938564141414141456c46546b5375516d43436956424f5277304b47676f414141414e5355684555674141414473414141413742414d4141414133432b2b41414141414431424d564555414141423736464261775445314769444e2f726b65634642784141414141585253546c4d41514f62595a6741414159744a524546554f4d7674303432747044414d424f424971574473626342324137464441346a7276365a7a34504c345754713446326c46346f2f52494c4755332f5866726a34767239672f765a56532b397066627169726b31737077634a6f58377951513767554a374273332b484d6a6c5246356a2f74475637315a4d58325a496f776a4736456d547934516a75624c7131754774373130783573596d4766567465776f4d414c35362f567042656d524a693271736b49656558786146396357316b4f706c5a6c5a3931794f746e4b77674d506c6d5466536b786572446762472f6c676c76436474386d66357551495056674e4c467a58483835614b4f412b6e707835507753657a444a592f6347785a674143554c527134357048683131354f505653757154654f5138435a614c78516b5663515977625a2f764a32667a43664c422f4d38756f4f7a674635506a38734f6467444138475a4179327958566e416e5377547635356154767a7962377a314249366d69636652576f58466f775667323366307056443939484273752f74354a707842657a67414454446c372b5473326f4736746933454b67366c79755459725a466275584743314e633252354d5864556d683271584339632f70446d6133504e772f5962726d6d7831636f73374c792b4d3757516b742f4c762f6c72716b3158702b6c574a4b766973687371645366465458764847754c46655753662f425a5272576f7a36764867344141414141456c46546b5375516d43436956424f5277304b47676f414141414e5355684555674141414477414141413842414d41414144493073524241414141456c424d564555414141436e61316c79514441314769444a6b6f4a4d4d445a7a4e6462734141414141585253546c4d41514f62595a6741414158424a524546554f4d7674307475746f7a41516747464c727541667034455a477243354649416f4161582f566862624a4d59734b2b33374f63354478766b794e34543750542f31544331343074314e30546b2f75615635303257663372747a797a7448642f5745784a4b7a39787a4647796347434456694a4e7953312b4d3368687a6d623135392b6f776b6944352f49436a626a53306863596c2b393071776e76307167794c544f2f72336441536a647455396b6c764b6443796f4f5649656d434650397353574946554f454f7a4c303463446c556d464b35556e6e4449505348357179706735484c71587a466859476d766d44495748592b334453757653504266596a71437978426e44476838584e71386e4d367949427253796b4552356a565457796d4178737a636f58455935563046414b69736f353572755841573073554264732f336449487a65444179685a36344d3435326c63657159776d5755632f48436e4c7743485a667a66642f6d5a393563783656586d61566e6279323570567638337656766c755061754e5575315873324e57674d4a74593469566d66626161685a3274734858737974324a757a457938736c335a726a7a664f5258654f6f364e2f5a58392b7379762b4a39734a76316f6176626847557a764c4d625a5050324c512b50373369662f4159593256433973484d6d624141414141456c46546b5375516d43436956424f5277304b47676f414141414e5355684555674141414477414141413842414d414141444930735242414141414431424d564555414141443233626e6c76594931476944343463444a5473464a4141414141585253546c4d41514f62595a67414141554a4a524546554f4d76743039474e7779414d426d416b4a766a744c6d427a4139686b6774372b5178302b53684d4344783267524d67326e77784555644a33664d642b48434e73386342684b6555576a6c557a2f4e644c5370562f474c61776b304d34496c6834625359767a396a3855566d57646b6470547a427165336a5a753142424f377568564c6c78686a7135756d5657466c62596a597445752b566f7072726a4e693033326a41315246484c3268685674687858577a68623873356b5754707a577831634f6c4e6e365677486537436a7a5741574267667a594a6954674c537a746c5134342b51434b41434a7178482b692f6f705a334159514d45524154687334755a6b725a44516d65454378654357456d50694170774d314a56707343774d6d62734a4d344f76374c687738686472734c365930346363537a464b464c586e65766e695665354d6b63394d6e57566c4652333735636849722b796b43686f735542572b7334372f57376463336b667457452f576d544f4337563047773259756c78655a3258664d4d39764a2b6336716447565250546b2f6f54497a4b5234324b7577594538396e442f3444665a524d547635794b723041414141415355564f524b35435949493d6956424f5277304b47676f414141414e5355684555674141414477414141413842414d414141444930735242414141414431424d564555414141423736464261775445314769444e2f726b65634642784141414141585253546c4d41514f62595a6741414159704a524546554f4d76743034734e7044414d424e424971574473626342324137464441346a7276365a7a344c4a386c684975306f72456a394567735a542f362f3936583331655872462f6569756c3972572f334642584a376453676f5852666e676868334170546d445a66734f5a48616d4b7a482f614d377a717959727479525268474e30494d336c7768585932585672644e4c7a72707a3359784d492b72613568515945587a6c2b725353394d69544274565a4d523873726a3058363474724963544b334b7a72726c644c4b56685163654c4d6d2b6c5a6938574845324e764c424c4f453762354d2f7a636b5265724161574c6975583835614b4f412b6e707835507753657a444a592f6347785a674143554c527134357048683131354f505653757154654f5138435a614c78516b5663515977625a2f764a32667a43664c442f4d73756f4f7a67463550683832584d77686763444d676262354c6f7a415470594a33396632733538737538387459534f35736c486b64714642575046594e7533644f5851665853773748733775575a6341547334414d337735652f6b724a71424f765974424b724f3563716b6d47325257376e7877685258746764545637584a6f64726c777655506159346d397a7863762b47364a6c7564334f4c4f7977746a4f786e4a72667937763562365a465736666c5769436a36726f584a6e556e7a4c4b3934594e395972362b532f6c4970616a4f767a372b4541414141415355564f524b35435949493d6956424f5277304b47676f414141414e5355684555674141414477414141413842414d414141444930735242414141414431424d564555414141434531663941707563314769446d39762f626165624e4141414141585253546c4d41514f62595a6741414159704a524546554f4d76743034734e7044414d424e424971574473626342324137464441346a7276365a7a344c4a386c684975306f72456a394567735a542f362f3936583331655872462f6569756c3972572f334642584a376453676f5852666e676868334170546d445a66734f5a48616d4b7a482f614d377a717959727479525268474e30494d336c7768585932585672644e4c7a72707a3359784d492b72613568515945587a6c2b725353394d69544274565a4d523873726a3058363474724963544b334b7a72726c644c4b56685163654c4d6d2b6c5a6938574845324e764c424c4f453762354d2f7a636b5265724161574c6975583835614b4f412b6e707835507753657a444a592f6347785a674143554c527134357048683131354f505653757154654f5138435a614c78516b5663515977625a2f764a32667a43664c442f4d73756f4f7a67463550683832584d77686763444d676262354c6f7a415470594a33396632733538737538387459534f35736c486b64714642575046594e7533644f5851665853773748733775575a6341547334414d337735652f6b724a71424f765974424b724f3563716b6d47325257376e7877685258746764545637584a6f64726c777655506159346d397a7863762b47364a6c7564334f4c4f7977746a4f786e4a72667937763562365a465736666c5769436a36726f584a6e556e7a4c4b3934594e395972362b532f6c4970616a4f767a372b4541414141415355564f524b35435949493da164736f6c6343000807000a",
          "opcodes": "PUSH1 0x80 PUSH1 0x40 MSTORE CALLVALUE DUP1 ISZERO PUSH2 0x10 JUMPI PUSH1 0x0 DUP1 REVERT JUMPDEST POP PUSH2 0x46A9 DUP1 PUSH2 0x20 PUSH1 0x0 CODECOPY PUSH1 0x0 RETURN INVALID PUSH1 0x80 PUSH1 0x40 MSTORE CALLVALUE DUP1 ISZERO PUSH2 0x10 JUMPI PUSH1 0x0 DUP1 REVERT JUMPDEST POP PUSH1 0x4 CALLDATASIZE LT PUSH2 0x22A JUMPI PUSH1 0x0 CALLDATALOAD PUSH1 0xE0 SHR DUP1 PUSH4 0x85EAD00A GT PUSH2 0x12C JUMPI DUP1 PUSH4 0x85EAD00A EQ PUSH2 0x2FD JUMPI DUP1 PUSH4 0x888A0B77 EQ PUSH2 0x305 JUMPI DUP1 PUSH4 0x8A99B7FB EQ PUSH2 0x30D JUMPI DUP1 PUSH4 0x8E4F449B EQ PUSH2 0x315 JUMPI DUP1 PUSH4 0x96B678A4 EQ PUSH2 0x31D JUMPI DUP1 PUSH4 0x99726EC2 EQ PUSH2 0x325 JUMPI DUP1 PUSH4 0x9B45D56D EQ PUSH2 0x32D JUMPI DUP1 PUSH4 0x9E15F495 EQ PUSH2 0x335 JUMPI DUP1 PUSH4 0xA1B9BB53 EQ PUSH2 0x33D JUMPI DUP1 PUSH4 0xA592A451 EQ PUSH2 0x345 JUMPI DUP1 PUSH4 0xAC81D87B EQ PUSH2 0x34D JUMPI DUP1 PUSH4 0xB3F22AF2 EQ PUSH2 0x355 JUMPI DUP1 PUSH4 0xC305B2B2 EQ PUSH2 0x35D JUMPI DUP1 PUSH4 0xC63FB76F EQ PUSH2 0x365 JUMPI DUP1 PUSH4 0xC7C866B2 EQ PUSH2 0x36D JUMPI DUP1 PUSH4 0xD54807E7 EQ PUSH2 0x375 JUMPI DUP1 PUSH4 0xDA2643BC EQ PUSH2 0x37D JUMPI DUP1 PUSH4 0xE6595F42 EQ PUSH2 0x385 JUMPI DUP1 PUSH4 0xE7D01D7A EQ PUSH2 0x38D JUMPI DUP1 PUSH4 0xECC53B5E EQ PUSH2 0x395 JUMPI DUP1 PUSH4 0xECDE9067 EQ PUSH2 0x39D JUMPI DUP1 PUSH4 0xED6F1156 EQ PUSH2 0x3A5 JUMPI DUP1 PUSH4 0xFBE154BB EQ PUSH2 0x3AD JUMPI PUSH1 0x0 DUP1 REVERT JUMPDEST DUP1 PUSH4 0x20A41BE EQ PUSH2 0x22F JUMPI DUP1 PUSH4 0x6756729 EQ PUSH2 0x24D JUMPI DUP1 PUSH4 0x80576E1 EQ PUSH2 0x255 JUMPI DUP1 PUSH4 0xE2A8038 EQ PUSH2 0x25D JUMPI DUP1 PUSH4 0xF114E0C EQ PUSH2 0x265 JUMPI DUP1 PUSH4 0x15C466A6 EQ PUSH2 0x26D JUMPI DUP1 PUSH4 0x1E7B565B EQ PUSH2 0x275 JUMPI DUP1 PUSH4 0x233AB6B6 EQ PUSH2 0x27D JUMPI DUP1 PUSH4 0x240CF269 EQ PUSH2 0x285 JUMPI DUP1 PUSH4 0x2817E5BE EQ PUSH2 0x28D JUMPI DUP1 PUSH4 0x32E8E544 EQ PUSH2 0x295 JUMPI DUP1 PUSH4 0x343E613A EQ PUSH2 0x29D JUMPI DUP1 PUSH4 0x34739B2A EQ PUSH2 0x2A5 JUMPI DUP1 PUSH4 0x43CF51FF EQ PUSH2 0x2AD JUMPI DUP1 PUSH4 0x44D333FF EQ PUSH2 0x2B5 JUMPI DUP1 PUSH4 0x45AAD66D EQ PUSH2 0x2BD JUMPI DUP1 PUSH4 0x4E9E4CFA EQ PUSH2 0x2C5 JUMPI DUP1 PUSH4 0x5408E269 EQ PUSH2 0x2CD JUMPI DUP1 PUSH4 0x557DD064 EQ PUSH2 0x2D5 JUMPI DUP1 PUSH4 0x6941464F EQ PUSH2 0x2DD JUMPI DUP1 PUSH4 0x697E9262 EQ PUSH2 0x2E5 JUMPI DUP1 PUSH4 0x7F478D38 EQ PUSH2 0x2ED JUMPI DUP1 PUSH4 0x832E548A EQ PUSH2 0x2F5 JUMPI JUMPDEST PUSH1 0x0 DUP1 REVERT JUMPDEST PUSH2 0x237 PUSH2 0x3B5 JUMP JUMPDEST PUSH1 0x40 MLOAD PUSH2 0x244 SWAP2 SWAP1 PUSH2 0x9A3 JUMP JUMPDEST PUSH1 0x40 MLOAD DUP1 SWAP2 SUB SWAP1 RETURN JUMPDEST PUSH2 0x237 PUSH2 0x3D8 JUMP JUMPDEST PUSH2 0x237 PUSH2 0x3FB JUMP JUMPDEST PUSH2 0x237 PUSH2 0x41E JUMP JUMPDEST PUSH2 0x237 PUSH2 0x43D JUMP JUMPDEST PUSH2 0x237 PUSH2 0x45C JUMP JUMPDEST PUSH2 0x237 PUSH2 0x47B JUMP JUMPDEST PUSH2 0x237 PUSH2 0x49E JUMP JUMPDEST PUSH2 0x237 PUSH2 0x4BD JUMP JUMPDEST PUSH2 0x237 PUSH2 0x4E0 JUMP JUMPDEST PUSH2 0x237 PUSH2 0x503 JUMP JUMPDEST PUSH2 0x237 PUSH2 0x526 JUMP JUMPDEST PUSH2 0x237 PUSH2 0x545 JUMP JUMPDEST PUSH2 0x237 PUSH2 0x568 JUMP JUMPDEST PUSH2 0x237 PUSH2 0x587 JUMP JUMPDEST PUSH2 0x237 PUSH2 0x5A6 JUMP JUMPDEST PUSH2 0x237 PUSH2 0x5C5 JUMP JUMPDEST PUSH2 0x237 PUSH2 0x5E4 JUMP JUMPDEST PUSH2 0x237 PUSH2 0x603 JUMP JUMPDEST PUSH2 0x237 PUSH2 0x626 JUMP JUMPDEST PUSH2 0x237 PUSH2 0x649 JUMP JUMPDEST PUSH2 0x237 PUSH2 0x668 JUMP JUMPDEST PUSH2 0x237 PUSH2 0x687 JUMP JUMPDEST PUSH2 0x237 PUSH2 0x6A6 JUMP JUMPDEST PUSH2 0x237 PUSH2 0x6C5 JUMP JUMPDEST PUSH2 0x237 PUSH2 0x6E8 JUMP JUMPDEST PUSH2 0x237 PUSH2 0x70B JUMP JUMPDEST PUSH2 0x237 PUSH2 0x72E JUMP JUMPDEST PUSH2 0x237 PUSH2 0x74D JUMP JUMPDEST PUSH2 0x237 PUSH2 0x770 JUMP JUMPDEST PUSH2 0x237 PUSH2 0x793 JUMP JUMPDEST PUSH2 0x237 PUSH2 0x7B6 JUMP JUMPDEST PUSH2 0x237 PUSH2 0x7D5 JUMP JUMPDEST PUSH2 0x237 PUSH2 0x7F8 JUMP JUMPDEST PUSH2 0x237 PUSH2 0x817 JUMP JUMPDEST PUSH2 0x237 PUSH2 0x83A JUMP JUMPDEST PUSH2 0x237 PUSH2 0x85D JUMP JUMPDEST PUSH2 0x237 PUSH2 0x87C JUMP JUMPDEST PUSH2 0x237 PUSH2 0x89B JUMP JUMPDEST PUSH2 0x237 PUSH2 0x8BA JUMP JUMPDEST PUSH2 0x237 PUSH2 0x8D9 JUMP JUMPDEST PUSH2 0x237 PUSH2 0x8FC JUMP JUMPDEST PUSH2 0x237 PUSH2 0x91F JUMP JUMPDEST PUSH2 0x237 PUSH2 0x93E JUMP JUMPDEST PUSH2 0x237 PUSH2 0x961 JUMP JUMPDEST PUSH2 0x237 PUSH2 0x980 JUMP JUMPDEST PUSH1 0x60 PUSH1 0x40 MLOAD DUP1 PUSH2 0x2C0 ADD PUSH1 0x40 MSTORE DUP1 PUSH2 0x290 DUP2 MSTORE PUSH1 0x20 ADD PUSH2 0x440D PUSH2 0x290 SWAP2 CODECOPY SWAP1 POP SWAP1 JUMP JUMPDEST PUSH1 0x60 PUSH1 0x40 MLOAD DUP1 PUSH2 0x260 ADD PUSH1 0x40 MSTORE DUP1 PUSH2 0x230 DUP2 MSTORE PUSH1 0x20 ADD PUSH2 0x3569 PUSH2 0x230 SWAP2 CODECOPY SWAP1 POP SWAP1 JUMP JUMPDEST PUSH1 0x60 PUSH1 0x40 MLOAD DUP1 PUSH2 0x2A0 ADD PUSH1 0x40 MSTORE DUP1 PUSH2 0x278 DUP2 MSTORE PUSH1 0x20 ADD PUSH2 0x14B1 PUSH2 0x278 SWAP2 CODECOPY SWAP1 POP SWAP1 JUMP JUMPDEST PUSH1 0x40 MLOAD DUP1 PUSH2 0x360 ADD PUSH1 0x40 MSTORE DUP1 PUSH2 0x330 DUP2 MSTORE PUSH1 0x20 ADD PUSH2 0xF4D PUSH2 0x330 SWAP2 CODECOPY DUP2 JUMP JUMPDEST PUSH1 0x40 MLOAD DUP1 PUSH2 0x220 ADD PUSH1 0x40 MSTORE DUP1 PUSH2 0x1FC DUP2 MSTORE PUSH1 0x20 ADD PUSH2 0x1729 PUSH2 0x1FC SWAP2 CODECOPY DUP2 JUMP JUMPDEST PUSH1 0x40 MLOAD DUP1 PUSH2 0x2E0 ADD PUSH1 0x40 MSTORE DUP1 PUSH2 0x2BC DUP2 MSTORE PUSH1 0x20 ADD PUSH2 0x1BDD PUSH2 0x2BC SWAP2 CODECOPY DUP2 JUMP JUMPDEST PUSH1 0x60 PUSH1 0x40 MLOAD DUP1 PUSH2 0x2A0 ADD PUSH1 0x40 MSTORE DUP1 PUSH2 0x270 DUP2 MSTORE PUSH1 0x20 ADD PUSH2 0x3CDD PUSH2 0x270 SWAP2 CODECOPY SWAP1 POP SWAP1 JUMP JUMPDEST PUSH1 0x40 MLOAD DUP1 PUSH2 0x2C0 ADD PUSH1 0x40 MSTORE DUP1 PUSH2 0x290 DUP2 MSTORE PUSH1 0x20 ADD PUSH2 0x440D PUSH2 0x290 SWAP2 CODECOPY DUP2 JUMP JUMPDEST PUSH1 0x60 PUSH1 0x40 MLOAD DUP1 PUSH2 0x220 ADD PUSH1 0x40 MSTORE DUP1 PUSH2 0x1FC DUP2 MSTORE PUSH1 0x20 ADD PUSH2 0x1729 PUSH2 0x1FC SWAP2 CODECOPY SWAP1 POP SWAP1 JUMP JUMPDEST PUSH1 0x60 PUSH1 0x40 MLOAD DUP1 PUSH2 0x360 ADD PUSH1 0x40 MSTORE DUP1 PUSH2 0x32C DUP2 MSTORE PUSH1 0x20 ADD PUSH2 0x323D PUSH2 0x32C SWAP2 CODECOPY SWAP1 POP SWAP1 JUMP JUMPDEST PUSH1 0x60 PUSH1 0x40 MLOAD DUP1 PUSH2 0x360 ADD PUSH1 0x40 MSTORE DUP1 PUSH2 0x330 DUP2 MSTORE PUSH1 0x20 ADD PUSH2 0xF4D PUSH2 0x330 SWAP2 CODECOPY SWAP1 POP SWAP1 JUMP JUMPDEST PUSH1 0x40 MLOAD DUP1 PUSH2 0x300 ADD PUSH1 0x40 MSTORE DUP1 PUSH2 0x2DC DUP2 MSTORE PUSH1 0x20 ADD PUSH2 0x9F9 PUSH2 0x2DC SWAP2 CODECOPY DUP2 JUMP JUMPDEST PUSH1 0x60 PUSH1 0x40 MLOAD DUP1 PUSH2 0x2C0 ADD PUSH1 0x40 MSTORE DUP1 PUSH2 0x290 DUP2 MSTORE PUSH1 0x20 ADD PUSH2 0x417D PUSH2 0x290 SWAP2 CODECOPY SWAP1 POP SWAP1 JUMP JUMPDEST PUSH1 0x40 MLOAD DUP1 PUSH2 0x300 ADD PUSH1 0x40 MSTORE DUP1 PUSH2 0x2DC DUP2 MSTORE PUSH1 0x20 ADD PUSH2 0x234D PUSH2 0x2DC SWAP2 CODECOPY DUP2 JUMP JUMPDEST PUSH1 0x40 MLOAD DUP1 PUSH2 0x380 ADD PUSH1 0x40 MSTORE DUP1 PUSH2 0x360 DUP2 MSTORE PUSH1 0x20 ADD PUSH2 0x29D1 PUSH2 0x360 SWAP2 CODECOPY DUP2 JUMP JUMPDEST PUSH1 0x40 MLOAD DUP1 PUSH2 0x2E0 ADD PUSH1 0x40 MSTORE DUP1 PUSH2 0x2B8 DUP2 MSTORE PUSH1 0x20 ADD PUSH2 0x1925 PUSH2 0x2B8 SWAP2 CODECOPY DUP2 JUMP JUMPDEST PUSH1 0x40 MLOAD DUP1 PUSH2 0x360 ADD PUSH1 0x40 MSTORE DUP1 PUSH2 0x32C DUP2 MSTORE PUSH1 0x20 ADD PUSH2 0x323D PUSH2 0x32C SWAP2 CODECOPY DUP2 JUMP JUMPDEST PUSH1 0x40 MLOAD DUP1 PUSH2 0x2A0 ADD PUSH1 0x40 MSTORE DUP1 PUSH2 0x278 DUP2 MSTORE PUSH1 0x20 ADD PUSH2 0xCD5 PUSH2 0x278 SWAP2 CODECOPY DUP2 JUMP JUMPDEST PUSH1 0x60 PUSH1 0x40 MLOAD DUP1 PUSH2 0x2C0 ADD PUSH1 0x40 MSTORE DUP1 PUSH2 0x290 DUP2 MSTORE PUSH1 0x20 ADD PUSH2 0x3A4D PUSH2 0x290 SWAP2 CODECOPY SWAP1 POP SWAP1 JUMP JUMPDEST PUSH1 0x60 PUSH1 0x40 MLOAD DUP1 PUSH2 0x300 ADD PUSH1 0x40 MSTORE DUP1 PUSH2 0x2DC DUP2 MSTORE PUSH1 0x20 ADD PUSH2 0x9F9 PUSH2 0x2DC SWAP2 CODECOPY SWAP1 POP SWAP1 JUMP JUMPDEST PUSH1 0x40 MLOAD DUP1 PUSH2 0x2E0 ADD PUSH1 0x40 MSTORE DUP1 PUSH2 0x2B4 DUP2 MSTORE PUSH1 0x20 ADD PUSH2 0x3799 PUSH2 0x2B4 SWAP2 CODECOPY DUP2 JUMP JUMPDEST PUSH1 0x40 MLOAD DUP1 PUSH2 0x260 ADD PUSH1 0x40 MSTORE DUP1 PUSH2 0x234 DUP2 MSTORE PUSH1 0x20 ADD PUSH2 0x1E99 PUSH2 0x234 SWAP2 CODECOPY DUP2 JUMP JUMPDEST PUSH1 0x40 MLOAD DUP1 PUSH2 0x2C0 ADD PUSH1 0x40 MSTORE DUP1 PUSH2 0x290 DUP2 MSTORE PUSH1 0x20 ADD PUSH2 0x417D PUSH2 0x290 SWAP2 CODECOPY DUP2 JUMP JUMPDEST PUSH1 0x40 MLOAD DUP1 PUSH2 0x2A0 ADD PUSH1 0x40 MSTORE DUP1 PUSH2 0x278 DUP2 MSTORE PUSH1 0x20 ADD PUSH2 0x14B1 PUSH2 0x278 SWAP2 CODECOPY DUP2 JUMP JUMPDEST PUSH1 0x60 PUSH1 0x40 MLOAD DUP1 PUSH2 0x260 ADD PUSH1 0x40 MSTORE DUP1 PUSH2 0x234 DUP2 MSTORE PUSH1 0x20 ADD PUSH2 0x1E99 PUSH2 0x234 SWAP2 CODECOPY SWAP1 POP SWAP1 JUMP JUMPDEST PUSH1 0x60 PUSH1 0x40 MLOAD DUP1 PUSH2 0x260 ADD PUSH1 0x40 MSTORE DUP1 PUSH2 0x234 DUP2 MSTORE PUSH1 0x20 ADD PUSH2 0x127D PUSH2 0x234 SWAP2 CODECOPY SWAP1 POP SWAP1 JUMP JUMPDEST PUSH1 0x60 PUSH1 0x40 MLOAD DUP1 PUSH2 0x2A0 ADD PUSH1 0x40 MSTORE DUP1 PUSH2 0x278 DUP2 MSTORE PUSH1 0x20 ADD PUSH2 0xCD5 PUSH2 0x278 SWAP2 CODECOPY SWAP1 POP SWAP1 JUMP JUMPDEST PUSH1 0x40 MLOAD DUP1 PUSH2 0x260 ADD PUSH1 0x40 MSTORE DUP1 PUSH2 0x230 DUP2 MSTORE PUSH1 0x20 ADD PUSH2 0x3F4D PUSH2 0x230 SWAP2 CODECOPY DUP2 JUMP JUMPDEST PUSH1 0x60 PUSH1 0x40 MLOAD DUP1 PUSH2 0x2E0 ADD PUSH1 0x40 MSTORE DUP1 PUSH2 0x2BC DUP2 MSTORE PUSH1 0x20 ADD PUSH2 0x1BDD PUSH2 0x2BC SWAP2 CODECOPY SWAP1 POP SWAP1 JUMP JUMPDEST PUSH1 0x60 PUSH1 0x40 MLOAD DUP1 PUSH2 0x260 ADD PUSH1 0x40 MSTORE DUP1 PUSH2 0x230 DUP2 MSTORE PUSH1 0x20 ADD PUSH2 0x3F4D PUSH2 0x230 SWAP2 CODECOPY SWAP1 POP SWAP1 JUMP JUMPDEST PUSH1 0x60 PUSH1 0x40 MLOAD DUP1 PUSH2 0x300 ADD PUSH1 0x40 MSTORE DUP1 PUSH2 0x2DC DUP2 MSTORE PUSH1 0x20 ADD PUSH2 0x234D PUSH2 0x2DC SWAP2 CODECOPY SWAP1 POP SWAP1 JUMP JUMPDEST PUSH1 0x40 MLOAD DUP1 PUSH2 0x2A0 ADD PUSH1 0x40 MSTORE DUP1 PUSH2 0x280 DUP2 MSTORE PUSH1 0x20 ADD PUSH2 0x20CD PUSH2 0x280 SWAP2 CODECOPY DUP2 JUMP JUMPDEST PUSH1 0x60 PUSH1 0x40 MLOAD DUP1 PUSH2 0x2A0 ADD PUSH1 0x40 MSTORE DUP1 PUSH2 0x280 DUP2 MSTORE PUSH1 0x20 ADD PUSH2 0x20CD PUSH2 0x280 SWAP2 CODECOPY SWAP1 POP SWAP1 JUMP JUMPDEST PUSH1 0x40 MLOAD DUP1 PUSH2 0x2A0 ADD PUSH1 0x40 MSTORE DUP1 PUSH2 0x270 DUP2 MSTORE PUSH1 0x20 ADD PUSH2 0x3CDD PUSH2 0x270 SWAP2 CODECOPY DUP2 JUMP JUMPDEST PUSH1 0x60 PUSH1 0x40 MLOAD DUP1 PUSH2 0x2E0 ADD PUSH1 0x40 MSTORE DUP1 PUSH2 0x2B8 DUP2 MSTORE PUSH1 0x20 ADD PUSH2 0x1925 PUSH2 0x2B8 SWAP2 CODECOPY SWAP1 POP SWAP1 JUMP JUMPDEST PUSH1 0x60 PUSH1 0x40 MLOAD DUP1 PUSH2 0x2A0 ADD PUSH1 0x40 MSTORE DUP1 PUSH2 0x27C DUP2 MSTORE PUSH1 0x20 ADD PUSH2 0x2FC1 PUSH2 0x27C SWAP2 CODECOPY SWAP1 POP SWAP1 JUMP JUMPDEST PUSH1 0x40 MLOAD DUP1 PUSH2 0x2C0 ADD PUSH1 0x40 MSTORE DUP1 PUSH2 0x290 DUP2 MSTORE PUSH1 0x20 ADD PUSH2 0x2D31 PUSH2 0x290 SWAP2 CODECOPY DUP2 JUMP JUMPDEST PUSH1 0x40 MLOAD DUP1 PUSH2 0x2A0 ADD PUSH1 0x40 MSTORE DUP1 PUSH2 0x27C DUP2 MSTORE PUSH1 0x20 ADD PUSH2 0x2FC1 PUSH2 0x27C SWAP2 CODECOPY DUP2 JUMP JUMPDEST PUSH1 0x40 MLOAD DUP1 PUSH2 0x3E0 ADD PUSH1 0x40 MSTORE DUP1 PUSH2 0x3A8 DUP2 MSTORE PUSH1 0x20 ADD PUSH2 0x2629 PUSH2 0x3A8 SWAP2 CODECOPY DUP2 JUMP JUMPDEST PUSH1 0x40 MLOAD DUP1 PUSH2 0x260 ADD PUSH1 0x40 MSTORE DUP1 PUSH2 0x230 DUP2 MSTORE PUSH1 0x20 ADD PUSH2 0x3569 PUSH2 0x230 SWAP2 CODECOPY DUP2 JUMP JUMPDEST PUSH1 0x60 PUSH1 0x40 MLOAD DUP1 PUSH2 0x3E0 ADD PUSH1 0x40 MSTORE DUP1 PUSH2 0x3A8 DUP2 MSTORE PUSH1 0x20 ADD PUSH2 0x2629 PUSH2 0x3A8 SWAP2 CODECOPY SWAP1 POP SWAP1 JUMP JUMPDEST PUSH1 0x60 PUSH1 0x40 MLOAD DUP1 PUSH2 0x2C0 ADD PUSH1 0x40 MSTORE DUP1 PUSH2 0x290 DUP2 MSTORE PUSH1 0x20 ADD PUSH2 0x2D31 PUSH2 0x290 SWAP2 CODECOPY SWAP1 POP SWAP1 JUMP JUMPDEST PUSH1 0x40 MLOAD DUP1 PUSH2 0x2C0 ADD PUSH1 0x40 MSTORE DUP1 PUSH2 0x290 DUP2 MSTORE PUSH1 0x20 ADD PUSH2 0x3A4D PUSH2 0x290 SWAP2 CODECOPY DUP2 JUMP JUMPDEST PUSH1 0x60 PUSH1 0x40 MLOAD DUP1 PUSH2 0x380 ADD PUSH1 0x40 MSTORE DUP1 PUSH2 0x360 DUP2 MSTORE PUSH1 0x20 ADD PUSH2 0x29D1 PUSH2 0x360 SWAP2 CODECOPY SWAP1 POP SWAP1 JUMP JUMPDEST PUSH1 0x40 MLOAD DUP1 PUSH2 0x260 ADD PUSH1 0x40 MSTORE DUP1 PUSH2 0x234 DUP2 MSTORE PUSH1 0x20 ADD PUSH2 0x127D PUSH2 0x234 SWAP2 CODECOPY DUP2 JUMP JUMPDEST PUSH1 0x60 PUSH1 0x40 MLOAD DUP1 PUSH2 0x2E0 ADD PUSH1 0x40 MSTORE DUP1 PUSH2 0x2B4 DUP2 MSTORE PUSH1 0x20 ADD PUSH2 0x3799 PUSH2 0x2B4 SWAP2 CODECOPY SWAP1 POP SWAP1 JUMP JUMPDEST PUSH1 0x0 PUSH1 0x20 DUP1 DUP4 MSTORE DUP4 MLOAD DUP1 DUP3 DUP6 ADD MSTORE PUSH1 0x0 JUMPDEST DUP2 DUP2 LT ISZERO PUSH2 0x9D0 JUMPI DUP6 DUP2 ADD DUP4 ADD MLOAD DUP6 DUP3 ADD PUSH1 0x40 ADD MSTORE DUP3 ADD PUSH2 0x9B4 JUMP JUMPDEST DUP2 DUP2 GT ISZERO PUSH2 0x9E2 JUMPI PUSH1 0x0 PUSH1 0x40 DUP4 DUP8 ADD ADD MSTORE JUMPDEST POP PUSH1 0x1F ADD PUSH1 0x1F NOT AND SWAP3 SWAP1 SWAP3 ADD PUSH1 0x40 ADD SWAP4 SWAP3 POP POP POP JUMP INVALID PUSH10 0x56424F5277304B47676F COINBASE COINBASE COINBASE COINBASE 0x4E MSTORE8 SSTORE PUSH9 0x455567414141447741 COINBASE COINBASE COINBASE CODESIZE TIMESTAMP COINBASE 0x4D COINBASE COINBASE COINBASE DIFFICULTY 0x49 ADDRESS PUSH20 0x5242414141414746424D56455541414144723363 COINBASE PUSH7 0x48423367352B37 0x4D PUSH21 0x34322B7A647A31374E72783966697A49544F4F4141 COINBASE COINBASE COINBASE PC MSTORE MSTORE8 SLOAD PUSH13 0x4D41514F62595A674141416274 0x4A MSTORE GASLIMIT CHAINID SSTORE 0x4F 0x4D PUSH23 0x746B6B467577794151525331754D4769554E6469343252 PUSH21 0x5A58594D345153774F6B4378366750542B55762F59 COINBASE PUSH21 0x7951525139515547512B6A2F396E694433386A2F2F PUSH25 0x626F7A44614F5370734F69702B6872764776756A7659786670 PUSH20 0x4F575074676D6F35494F44394B646D646853594B 0x4D NUMBER PUSH12 0x77373061762B675A4A6B4555 CODECOPY NUMBER 0x4A BASEFEE PUSH10 0x2F6D4F30564D4C555563 CALLDATALOAD PUSH20 0x57385A6B6647675745414441377066625A4E3169 PUSH10 0x64644A39756B5378326F ORIGIN NUMBER JUMPI PUSH5 0x4E31687A47 COINBASE SSTORE COINBASE 0x2F PUSH2 0x5964 PUSH26 0x7A33336E46346936573144697455504C44632B38446F77685163 BALANCE GAS ADDRESS CHAINID BASEFEE PUSH11 0x6749766868587342567343 SLOAD PUSH4 0x546A4875 MSTORE CHAINID PUSH18 0x7A623279414F784F6E414B596836554D4F52 0x4B TIMESTAMP CHAINID MSTORE PUSH12 0x4E61596475482B6968567059 SSTORE MLOAD PUSH20 0x574A36516C6D726E415667344778476767726E67 NUMBER JUMP ADDRESS BASEFEE TIMESTAMP TIMESTAMP PUSH2 0x4D4A PUSH2 0x5037 GAS CALLER GASLIMIT PUSH23 0x5A464739595654574E4A6D4B673241754F416A6D69712B PUSH19 0x6F2F44627A525333456A34426B7A356A533842 0x4C NUMBER PUSH7 0x664F3754674A54 PUSH11 0x754F3064666132374B6747 TIMESTAMP PUSH26 0x696B495257706D6D744F48742F437A71365764793336437A5033 PUSH22 0x654342346A567A644D4E426B544E797931754D4C5476 COINBASE JUMPI PUSH18 0x526E584A327773395550476376597A337774 PUSH16 0x7663334A4E664E3942736A6B3677686C CALLDATALOAD PUSH2 0x4F41 CALLDATALOAD PUSH15 0x6E3864446A566D554E79634D33744A PUSH14 0x30444F2B656F6E4F707478543476 CALLER PUSH27 0x722B3578452F4D5A59324F73357539632B363639353039545A4C76 PUSH15 0x2B58396F3739763362723839612B4E PUSH26 0x2B6F78462B6D63702F543638464C384B7A576433466937754879 PUSH11 0x76664D5458476F375A4141 COINBASE COINBASE COINBASE GASLIMIT PUSH13 0x46546B5375516D43436956424F MSTORE PUSH24 0x304B47676F414141414E5355684555674141414473414141 COINBASE CALLDATACOPY TIMESTAMP COINBASE 0x4D COINBASE COINBASE COINBASE COINBASE CALLER NUMBER 0x2B 0x2B COINBASE COINBASE COINBASE COINBASE COINBASE GASLIMIT PUSH13 0x424D564555414141436E706C6C PUSH27 0x636A5931476944477858784D4D4462395A4C444C41414141415852 MSTORE8 SLOAD PUSH13 0x4D41514F62595A67414141585A 0x4A MSTORE GASLIMIT CHAINID SSTORE 0x4F 0x4D PUSH23 0x74307547526843414D4257426E714F4346625343684153 0x4A PUSH19 0x4159346C4F4E742F4B78635145567976675A76 SLOAD BASEFEE 0x2F DIFFICULTY CALLVALUE TIMESTAMP PUSH16 0x505236662F36733165716F347550756B 0x2F 0x4A 0x49 GASLIMIT JUMPI CALLER PUSH25 0x7764643976545A4A2F657849583235673163737472776F4576 PUSH26 0x644651466C31646E41694B4F3646544D51386F7842696D336B64 BALANCE CALLDATALOAD DIFFICULTY PUSH5 0x44464E4E73 CALLDATALOAD CALLVALUE PUSH25 0x52754C67754A6939327A4D49377556416F50534A7935374C69 0x4C MSIZE TIMESTAMP PUSH8 0x626C565571546D7A CALLER PUSH15 0x3442385977553732794B4B41466F62 PUSH14 0x346F3354795234482B384A6E3878 PUSH5 0x7A7A527841 PUSH13 0x753235624977347553577A5179 PUSH25 0x4D6A65566739556664594B3974706D665838674E653058466C PUSH10 0x6D38493547496D34786D JUMP GASLIMIT JUMP MSIZE MLOAD PUSH6 0x2F44424E684E PUSH8 0x343870384D43436C PUSH12 0x3161336370684B4268516767 COINBASE CALLVALUE PUSH22 0x6332694A745A706C7670685244316F5A444148384563 ADDRESS MSIZE PUSH11 0x4A48527545792F6D427237 PUSH12 0x56473435764A524376764B71 BALANCE BASEFEE POP 0x4E JUMPI CALLDATACOPY PUSH21 0x543372695678795A61703576374B527476725A546A PUSH2 0x5750 CALLER PUSH26 0x78785A496F74336C6C59674A5956784E4B786B7369774F2B6362 PUSH26 0x38553873454F4F59577135734239594F6862702B563359583579 PUSH11 0x7461566E7474544F30724E PUSH3 0x48786C PUSH3 0x7A2B69 GAS MSTORE PUSH9 0x5968644C56424A487A PUSH26 0x4778432B4D597872636632463062474D7A4A562F414C566F5569 CALLVALUE PUSH17 0x47306A644141414141456C46546B537551 PUSH14 0x43436956424F5277304B47676F41 COINBASE COINBASE COINBASE 0x4E MSTORE8 SSTORE PUSH9 0x455567414141447341 COINBASE COINBASE COINBASE CALLDATACOPY TIMESTAMP COINBASE 0x4D COINBASE COINBASE COINBASE COINBASE CALLER NUMBER 0x2B 0x2B COINBASE COINBASE COINBASE COINBASE COINBASE SELFBALANCE CHAINID TIMESTAMP 0x4D JUMP GASLIMIT SSTORE COINBASE COINBASE COINBASE DIFFICULTY PUSH6 0x327449314769 NUMBER CALLER PUSH19 0x3646776156354F53554479372B6D3373616662 JUMP MLOAD CALLDATACOPY PUSH2 0x4141 COINBASE COINBASE COINBASE PC MSTORE MSTORE8 SLOAD PUSH13 0x4D41514F62595A674141416668 0x4A MSTORE GASLIMIT CHAINID SSTORE 0x4F 0x4D PUSH23 0x746B6B475332794151525658636F427550737755684B32 PUSH23 0x6F75594131754C49656C33304161354839704F622B6C64 0x2F 0x49 NUMBER 0x49 0x2F SELFBALANCE 0x4E ADDRESS PUSH11 0x5151673250313942413937 0x2F CODECOPY PUSH20 0x36327676366577762F57753630792F3735394D4D 0x4C PUSH7 0x522B7452316765 0x4F CODESIZE PUSH5 0x392F777945 MSTORE8 PUSH12 0x4744382F66354D4A4C6A6B4E CALLVALUE 0x4E 0x4E JUMPI CODECOPY CALLDATALOAD MSTORE8 PUSH16 0x596E79387854625A744351504D555465 PUSH3 0x6B7938 CODECOPY SLOAD 0x49 CALLDATASIZE 0x4D PUSH24 0x74486C73336D526D525733526E496D6E3365374D7A6A5339 MSIZE GAS MLOAD 0x4D PUSH3 0x6E766D 0x4A PUSH5 0x6D4C78694A PUSH13 0x332B4755364D505959744E7134 PUSH3 0x376466 PUSH12 0x63635A6F78636E63314C622B PUSH25 0x5A6C336A6D727658616759527A326F7A585279356B4A653751 PUSH14 0x48587A473534533253465A2B4257 MSTORE NUMBER 0x2B SLOAD PUSH16 0x596154766B6F52505278377271445253 NUMBER CALLDATACOPY BASEFEE CHAINID MSIZE CODESIZE COINBASE PUSH17 0x506971477358544C6D646A434879594F31 NUMBER 0x4D MSIZE 0x4F 0x4A PC 0x4D SSTORE PUSH7 0x3642547530436B SSTORE PUSH24 0x6F2B4B6632613142654E7152345271357A2F562F69517576 PUSH13 0x5537467466547230656241656C CHAINID CODESIZE SLOAD PUSH21 0x46344566375345764C576C692B6433617534687436 0x4D PUSH24 0x5A4F616C387765635441373470484C57507669612B4B7277 PUSH8 0x773337653676532B CHAINID CALLDATALOAD PUSH16 0x4D6D5032646C78467874584E6D79326D 0x49 PUSH23 0x4F776B727857325861676249304B645349323538745174 PUSH22 0x617866633743346B48346C447573646B4E5735744343 0x4A GASLIMIT SSTORE PUSH8 0x536A6B6153705566 0x4D CALLDATALOAD PUSH10 0x54364878533768554D35 ADDRESS POP JUMP MSIZE PUSH19 0x4C476D786733694A4F4E4A6D44316C45677174 PUSH13 0x6F704D6E3979446E4E306D6165 CODESIZE PUSH12 0x65354456446232746E706456 JUMPI PUSH15 0x7476615A6F424D346645516F577632 PUSH13 0x727533716549512B355A64632F PUSH4 0x6F4A6A55 CALLDATACOPY PUSH16 0x4C4A2B7A5434795363726E5376564A42 NUMBER GASLIMIT 0x2F PUSH19 0x362F42792B3577626662316642536D76627662 MSTORE BASEFEE GASLIMIT CALLDATASIZE POP PUSH5 0x715877524B PUSH17 0x2F5263586532694F4D7942485577414141 COINBASE TIMESTAMP 0x4A MSTORE SSTORE CALLDATALOAD GASLIMIT PUSH19 0x6B4A6767673D3D6956424F5277304B47676F41 COINBASE COINBASE COINBASE 0x4E MSTORE8 SSTORE PUSH9 0x455567414141447741 COINBASE COINBASE COINBASE CODESIZE COINBASE PUSH8 0x4D41414142486B6A BASEFEE PUSH9 0x414141414446424D56 GASLIMIT SSTORE COINBASE COINBASE COINBASE DIFFICULTY JUMP PUSH17 0x49533568574D31476944396C4D79744141 COINBASE COINBASE COINBASE PC MSTORE MSTORE8 SLOAD PUSH13 0x4D41514F62595A674141415564 0x4A MSTORE GASLIMIT CHAINID SSTORE 0x4B 0x4D 0x2F PUSH21 0x7A6A464C77314151414F43447A49322F4A6B4A642F TIMESTAMP JUMPI PC ADDRESS NUMBER SLOAD SELFBALANCE PUSH18 0x5168704C56306337503849623143365A5568 PUSH20 0x4E637372564A6441666B4D65534F645936694175 0x4C PUSH22 0x4C673565573970454E2B51672F65335833764F446734 MSTORE SSTORE 0x2B PUSH4 0x3066732B CALLVALUE PUSH20 0x38665846353348356259775A37357255584A5144 PUSH9 0x4D30374233506C6A37 0x4B CHAINID PUSH4 0x65654236 CALLDATALOAD PUSH18 0x7562616B346B483165476762613176313858 PUSH10 0x66754672627A6538434A PUSH2 0x7A7A PUSH15 0x78627A494C573535792F4673394238 0x4E PUSH11 0x35446236306A5678777669 PUSH14 0x575163434D7648596D2B49613844 0x4A PUSH9 0x5A6535434A556F6943 0x4D MSIZE PUSH6 0x5A3839712B69 GASLIMIT 0x4A PUSH26 0x596A4E4C32734D59482B414458617A366244673477676B636349 PUSH25 0x6C3368696A4B517874564D5A3346386B593332446A4855726A PUSH23 0x76575950476F3955764F784D74354A583645306C4F5156 PC 0x4A COINBASE PUSH5 0x3644463169 TIMESTAMP PUSH14 0x596C4666535A7152735A39725555 PUSH5 0x5A4F596A63 BASEFEE 0x49 CALLER PUSH3 0x44786F 0x4D PUSH24 0x44736D4A6D38793158366A38486A6D72317A716E30716D79 CHAINID PUSH2 0x6279 CALLDATACOPY PUSH11 0x54786C5A396B2F56517557 PUSH27 0x764B712B5A7537585171367A43564E6A4252446A4876743971762F MLOAD 0x2B POP SSTORE 0x4C PUSH26 0x5053744B30546741414141424A52553545726B4A6767673D3D69 JUMP TIMESTAMP 0x4F MSTORE PUSH24 0x304B47676F414141414E5355684555674141414477414141 COINBASE CODESIZE TIMESTAMP COINBASE 0x4D COINBASE COINBASE COINBASE DIFFICULTY 0x49 ADDRESS PUSH20 0x5242414141414431424D56455541414141314769 DIFFICULTY PUSH15 0x374F2B7575384C2F2F2F386E753372 PUSH24 0x4141414141585253546C4D41514F62595A67414141586C4A MSTORE GASLIMIT CHAINID SSTORE 0x4F 0x4D PUSH23 0x74303875523369414D4147445267523430494F45474247 PUSH12 0x414A2F3358465067646C7366 CALLDATASIZE PUSH12 0x767479736355335969524777 0x4D 0x2F CALLDATASIZE JUMPI PUSH6 0x2B4C74732B4A PUSH24 0x514D434242536B3778702B73306346344372364337397856 POP POP PUSH3 0x416551 MSTORE8 CALLVALUE CALLER PUSH17 0x7175443178366F646E7A584C6879637954 JUMP SSTORE CODECOPY PUSH14 0x5A373831414342666F714A486368 0x4B 0x4B PUSH17 0x494C426D537035786F4E62636A2B396E39 CALLER MSTORE8 CALLER CODECOPY PUSH10 0x74563237797773594E75 PUSH3 0x4F4B69 PUSH5 0x6F62653639 PUSH4 0x54673449 CODESIZE PUSH4 0x4E505978 0x2B PUSH22 0x62586477685668595A392B737057304E6A6771426B6B 0x2B JUMPI SLOAD COINBASE PUSH9 0x664E38734F4D524653 CODESIZE TIMESTAMP CALLDATALOAD 0x4A 0x2B CALLDATASIZE CHAINID PUSH4 0x51585279 PUSH2 0x3474 PUSH22 0x7752344676366931646E4A4D2F47527272687548684F PUSH24 0x4E373465625A64475138654430484A372F6B3933745A424D GAS DIFFICULTY POP 0x4C SELFBALANCE POP PUSH10 0x2F386A5132334F574D64 PUSH27 0x4C7250573550573175546547697673484166586738574E5055334F PUSH16 0x6B7470454E6930312F5A4576624B3267 SLOAD DIFFICULTY PUSH5 0x5346646D61 PUSH19 0x6F7749656D4E2F344B4C4B64444B3855384653 PUSH16 0x4D7A39593256373053465274522B3837 JUMPI PUSH25 0x57556B2B49736E46374742623258594F643076487236676C37 ADDRESS 0x2B MSIZE PUSH22 0x50694D70436974694C4231456A34627936574F594361 0x49 PUSH19 0x322B2F304B5A465253636E6669716274576E57 GAS JUMP PUSH18 0x69705A577A5662466C55735054396577636E ADDRESS PUSH15 0x3943772B6453704F35695378774141 COINBASE COINBASE COINBASE GASLIMIT PUSH13 0x46546B5375516D43436956424F MSTORE PUSH24 0x304B47676F414141414E5355684555674141414477414141 COINBASE CODESIZE TIMESTAMP COINBASE 0x4D COINBASE COINBASE COINBASE DIFFICULTY 0x49 ADDRESS PUSH20 0x5242414141414746424D56455541414144704B53 PUSH12 0x31476944393177502F384A7A CALLDATASIZE PUSH5 0x3366637678 PUSH27 0x4F4943443652574A534141414141585253546C4D41514F62595A67 COINBASE COINBASE COINBASE MSTORE 0x4E 0x4A MSTORE GASLIMIT CHAINID SSTORE 0x4F 0x4D PUSH23 0x746B4C4678777A414D52585863674958504C5150795041 DIFFICULTY PUSH9 0x7977415746306A6842 JUMP PUSH25 0x6F4144645A5078384B76306A5A6958336E63796B3078502F76 GASLIMIT CALLVALUE MLOAD ADDRESS PUSH3 0x4C5856 JUMP PUSH22 0x386F467834364D64436A377A4B5A3954795A35456D62 PC PUSH21 0x6432732B2F78306A7A486648734D546D7330455350 CALLVALUE CHAINID PUSH27 0x3645425664504445744E4E6E794D3258704A4F6269597861795570 PUSH24 0x357246704579476C5A466D3862383266414A3572466F506D TIMESTAMP PUSH27 0x744158423247456F78533159546B2B43467272484E68793234574C DIFFICULTY PUSH16 0x363678466248564B2F69435033694842 CALLER PUSH24 0x476E6D7659464871574779505137374B75594F3170756968 CALLDATASIZE PUSH13 0x71304E5A37365146446B594866 PC PUSH6 0x6939514C5471 POP COINBASE ORIGIN NUMBER 0x2F PUSH4 0x675A6F57 PUSH11 0x7072314E36642F2B4C6D75 PUSH24 0x3072767235513778747377564D4E6663337A426B49597064 BALANCE SSTORE PUSH27 0x66665974446E786559332B4C2F514E4D3254416634326250636238 CALLDATALOAD 0x4D PUSH5 0x554E626F39 PUSH27 0x38582F77447A535A55724657536369314141414141456C46546B53 PUSH22 0x516D43436956424F5277304B47676F414141414E5355 PUSH9 0x455567414141447741 COINBASE COINBASE COINBASE CODESIZE TIMESTAMP COINBASE 0x4D COINBASE COINBASE COINBASE DIFFICULTY 0x49 ADDRESS PUSH20 0x5242414141414A46424D56455541414142474F43 CALLVALUE PUSH7 0x484230384F446F PUSH26 0x4B434862334E3969556B59724B43713175635433392F65696F61 0x4A SLOAD SLOAD PUSH13 0x4745442B513941414141415852 MSTORE8 SLOAD PUSH13 0x4D41514F62595A674141415A4E 0x4A MSTORE GASLIMIT CHAINID SSTORE 0x4F 0x4D PUSH23 0x7430374675776A41514275444962334257354E6B4F4163 PUSH19 0x7349564B5A6A4B772B414A4B6C7247546F4138 NUMBER MLOAD POP JUMP 0x49 PUSH13 0x586942536D646B59752F626C65 PUSH8 0x6E344F4550684366 PUSH8 0x39495054357A6D63 PUSH20 0x736C6465655A726947597043365363625A673030 PUSH15 0x2F6F6847775734346635457A4E6763 PUSH11 0x415451747963652B68434B 0x4D PUSH26 0x7344546172547674352F68594246426F596C45313645476E7676 MLOAD CALLDATALOAD PUSH6 0x4A426C61346C 0x4F PUSH3 0x466654 CALLER ADDRESS 0x4C SSTORE 0x4B PUSH21 0x6853707A6B357362377362503663446D6A6866312B GAS PUSH21 0x4168704742383353645263354D695A69773643506A PUSH2 0x4B35 GASLIMIT 0x4C POP CHAINID PUSH14 0x67766737377455444F32516E7335 PUSH14 0x4F58464D725A4F6D6B7835575A35 PUSH15 0x2F324F514249415A77704A59785235 PUSH10 0x6D7A483162306E423361 TIMESTAMP PUSH13 0x6C703475374B416A6D2F345456 PUSH15 0x42654241736C655A4A714E2F414D43 0x4D CODESIZE PUSH26 0x4A306A4C46316E7242494744414F6B4E6D5446516E50414D4D34 PUSH12 0x41742F3459612F57646A7279 COINBASE CALLDATALOAD PUSH26 0x51307A6C73566670343947732F4D44594F79716D376F77485653 PUSH15 0x6A3258773232456A4F622F73754933 PUSH2 0x4479 0x2F PUSH20 0x2F474D336D457862326143747967624D6C6F3031 0x4F MSTORE ORIGIN PUSH21 0x622F5944462B386C615779485431654B39597A4879 PUSH13 0x72464C32413468466E3777686E PUSH16 0x6637396D44544C6D367A72597169744C BASEFEE PUSH18 0x3037734C63396275793373723737776D4A5A CALLVALUE CALLER PUSH22 0x35737462504C48385956735768626447755857503448 PUSH4 0x7064732B PUSH22 0x32686F6A6F41414141415355564F524B35435949493D PUSH10 0x56424F5277304B47676F COINBASE COINBASE COINBASE COINBASE 0x4E MSTORE8 SSTORE PUSH9 0x455567414141447741 COINBASE COINBASE COINBASE CODESIZE TIMESTAMP COINBASE 0x4D COINBASE COINBASE COINBASE DIFFICULTY 0x49 ADDRESS PUSH20 0x5242414141414656424D56455541414141644768 PUSH21 0x62563167744A69684A513056396533772B4E6A6A33 0x4F CODESIZE TIMESTAMP PUSH11 0x4141414141585253546C4D COINBASE MLOAD 0x4F PUSH3 0x595A67 COINBASE COINBASE COINBASE PUSH2 0x564A MSTORE GASLIMIT CHAINID SSTORE 0x4F 0x4D PUSH23 0x7430303175777941514257427A412F36615061504A415A NUMBER PUSH13 0x376B4663494A4636674B6A3376 ADDRESS POP PUSH7 0x4D774B37635259 CALLDATALOAD MLOAD 0x4F PUSH25 0x4B4C7636594E304F694C4A2F7263373236334F49736E77622F PUSH15 0x4E583875487643652B657637736565 ORIGIN 0x4D PUSH22 0x582B6D5A4E532F556D36565173367157714E56556C56 PC PUSH12 0x752F354C6D56636853553550 PUSH3 0x552F46 PUSH5 0x437537454A PUSH9 0x48333154356E463857 SELFBALANCE GAS MLOAD BASEFEE JUMPI PUSH10 0x50527A746D2F656D7454 MSTORE8 0x4F PUSH5 0x306A6D6558 JUMPI PUSH16 0x4A6A7036635334717A554B504C4E757A BASEFEE 0x4E PUSH23 0x58463879527A75785163664F5048646E5447454846334E PC MSIZE PUSH22 0x644B76746F34324A4F393447526B6E4573534F653366 PUSH9 0x6D6756625A31623565 PUSH16 0x6D4F7865524A694B566F366C73692F67 PUSH22 0x47306B304553587A696155584F37694336577135674A 0x4A BALANCE PUSH4 0x4D44556C MSIZE SELFBALANCE PUSH5 0x6D6132592F PUSH11 0x47717333683033786D646B PUSH24 0x5137755A4A31634358723545754F55763958713551777767 0x4E MSIZE ADDRESS PUSH17 0x473967504D4958325063754A4862787157 PUSH20 0x7333664947633151775257534D456F4965624A62 JUMP BALANCE PUSH5 0x5469633579 SSTORE PUSH2 0x4A58 PUSH23 0x686D38594A476A437936543858416C6741456A48633433 MSIZE PUSH26 0x2F5864724A7A4B362F634759624C376457683778382F344A3656 CODECOPY CALLER TIMESTAMP PUSH22 0x78742F4D597077394D4A33614858726B793961593254 BALANCE CODECOPY PUSH2 0x2F39 CALLVALUE PUSH21 0x3970686B502F4D4637503431383235352B7A75322B CALLDATACOPY GAS 0x2B PUSH27 0x6E337A32482F7674647A39526F6563334475506A4B5836324F3066 PUSH9 0x302B6D6C3832505662 SLOAD PUSH21 0x2B6F2F2B6C5A726B6A376831695941414141415355 JUMP 0x4F MSTORE 0x4B CALLDATALOAD NUMBER MSIZE 0x49 0x49 RETURNDATASIZE PUSH10 0x56424F5277304B47676F COINBASE COINBASE COINBASE COINBASE 0x4E MSTORE8 SSTORE PUSH9 0x455567414141447741 COINBASE COINBASE COINBASE CODESIZE COINBASE PUSH8 0x4D41414142486B6A BASEFEE PUSH9 0x414141414446424D56 GASLIMIT SSTORE COINBASE COINBASE COINBASE NUMBER PUSH10 0x63457439534349314769 TIMESTAMP PUSH17 0x414C716C4141414141585253546C4D4151 0x4F PUSH3 0x595A67 COINBASE COINBASE COINBASE SSTORE PUSH5 0x4A52454655 0x4B 0x4D 0x2F PUSH21 0x7A6A464C77314151414F43447A49322F4A6B4A642F TIMESTAMP JUMPI PC ADDRESS NUMBER SLOAD SELFBALANCE PUSH18 0x5168704C56306337503849623143365A5568 PUSH20 0x4E637372564A6441666B4D65534F645936694175 0x4C PUSH22 0x4C673565573970454E2B51672F65335833764F446734 MSTORE SSTORE 0x2B PUSH4 0x3066732B CALLVALUE PUSH20 0x38665846353348356259775A37357255584A5144 PUSH9 0x4D30374233506C6A37 0x4B CHAINID PUSH4 0x65654236 CALLDATALOAD PUSH18 0x7562616B346B483165476762613176313858 PUSH10 0x66754672627A6538434A PUSH2 0x7A7A PUSH15 0x78627A494C573535792F4673394238 0x4E PUSH11 0x35446236306A5678777669 PUSH14 0x575163434D7648596D2B49613844 0x4A PUSH9 0x5A6535434A556F6943 0x4D MSIZE PUSH6 0x5A3839712B69 GASLIMIT 0x4A PUSH26 0x596A4E4C32734D59482B414458617A366244673477676B636349 PUSH25 0x6C3368696A4B517874564D5A3346386B593332446A4855726A PUSH23 0x76575950476F3955764F784D74354A583645306C4F5156 PC 0x4A COINBASE PUSH5 0x3644463169 TIMESTAMP PUSH14 0x596C4666535A7152735A39725555 PUSH5 0x5A4F596A63 BASEFEE 0x49 CALLER PUSH3 0x44786F 0x4D PUSH24 0x44736D4A6D38793158366A38486A6D72317A716E30716D79 CHAINID PUSH2 0x6279 CALLDATACOPY PUSH11 0x54786C5A396B2F56517557 PUSH27 0x764B712B5A7537585171367A43564E6A4252446A4876743971762F MLOAD 0x2B POP SSTORE 0x4C PUSH26 0x5053744B30546741414141424A52553545726B4A6767673D3D69 JUMP TIMESTAMP 0x4F MSTORE PUSH24 0x304B47676F414141414E5355684555674141414477414141 COINBASE CODESIZE TIMESTAMP COINBASE 0x4D COINBASE COINBASE COINBASE DIFFICULTY 0x49 ADDRESS PUSH20 0x5242414141414656424D5645554141414335744A MLOAD BALANCE SELFBALANCE PUSH10 0x43576A32764F79712B51 MLOAD DIFFICULTY 0x2B PUSH22 0x626D35612B5A57554141414141585253546C4D41514F PUSH3 0x595A67 COINBASE COINBASE COINBASE PC PUSH13 0x4A524546554F4D7674302B324E PUSH17 0x44414D4275444948627A78467044776366 CODESIZE PUSH5 0x5677446143 PUSH17 0x4232436C6A70727638537A68356D494948 PUSH4 0x56624247 GASLIMIT MLOAD PUSH13 0x5037495149776B2F3852442B47 CALLVALUE CODECOPY PUSH3 0x445952 PUSH13 0x53434452384470304A68496C7A NUMBER JUMPI SELFBALANCE 0x4D PUSH20 0x694C64324241535138694D4B5047577646677576 DIFFICULTY PUSH8 0x732F2B4F616E6C48 PUSH24 0x5A7276574B335068416C7662554D5A7264594A6D7A6A6F6C JUMPI PUSH21 0x57575671766563684650542B544A504B4C44316849 GAS PUSH5 0x5A674E5554 MSTORE8 MSTORE SELFBALANCE PUSH13 0x75464C76765765707833356B53 PUSH26 0x38786F6F585A683346756359786F597A72446C4869596A4F7357 MSIZE TIMESTAMP CALLDATASIZE CODESIZE CALLDATALOAD PUSH18 0x58596D4567326B41464944343168672B7141 0x2F ORIGIN BALANCE CALLDATALOAD PUSH3 0x2F772F SLOAD MSIZE JUMP PUSH11 0x4F416E5450674D2F4A7872 PUSH11 0x525045653663624C426C68 PUSH11 0x4D4F6A6D364B4A34643557 PUSH25 0x516363664943464F4446394A57423863373834742F546B7A39 PUSH18 0x6C6A50376A7A476A5A6353447678646B5642 PUSH26 0x6D462B75544E7A68586E317575655A36755449706E4642384D41 POP PUSH2 0x7052 CALLVALUE PUSH25 0x79386767504C75484B764C5063575558663963683758464C46 PUSH14 0x5658426278616F7A6A6657392F2B PUSH21 0x58533748556A33576B37566C6776473547584C6557 PUSH10 0x35442F534C6C36377571 DIFFICULTY PUSH3 0x627044 SLOAD CODECOPY PUSH2 0x4C6F CODECOPY CALLDATASIZE PUSH20 0x545A37677259734F70396A576D374D5A6435716C PUSH19 0x6C6C5859663054315A57665071447632316F56 SLOAD SLOAD MSTORE8 CALLDATALOAD SSTORE NUMBER PUSH8 0x4141414141456C46 SLOAD PUSH12 0x5375516D43436956424F5277 ADDRESS 0x4B SELFBALANCE PUSH8 0x6F414141414E5355 PUSH9 0x455567414141447741 COINBASE COINBASE COINBASE CODESIZE TIMESTAMP COINBASE 0x4D COINBASE COINBASE COINBASE DIFFICULTY 0x49 ADDRESS PUSH20 0x5242414141414746424D564555414141444C6C6D PUSH20 0x314769423654797977653146544F535465724953 GAS PUSH2 0x6B51 0x4D 0x4C BASEFEE PUSH24 0x304141414141585253546C4D41514F62595A674141416274 0x4A MSTORE GASLIMIT CHAINID SSTORE 0x4F 0x4D PUSH23 0x746B6B467577794151525331754D4769554E6469343252 PUSH21 0x5A58594D345153774F6B4378366750542B55762F59 COINBASE PUSH21 0x7951525139515547512B6A2F396E694433386A2F2F PUSH25 0x626F7A44614F5370734F69702B6872764776756A7659786670 PUSH20 0x4F575074676D6F35494F44394B646D646853594B 0x4D NUMBER PUSH12 0x77373061762B675A4A6B4555 CODECOPY NUMBER 0x4A BASEFEE PUSH10 0x2F6D4F30564D4C555563 CALLDATALOAD PUSH20 0x57385A6B6647675745414441377066625A4E3169 PUSH10 0x64644A39756B5378326F ORIGIN NUMBER JUMPI PUSH5 0x4E31687A47 COINBASE SSTORE COINBASE 0x2F PUSH2 0x5964 PUSH26 0x7A33336E46346936573144697455504C44632B38446F77685163 BALANCE GAS ADDRESS CHAINID BASEFEE PUSH11 0x6749766868587342567343 SLOAD PUSH4 0x546A4875 MSTORE CHAINID PUSH18 0x7A623279414F784F6E414B596836554D4F52 0x4B TIMESTAMP CHAINID MSTORE PUSH12 0x4E61596475482B6968567059 SSTORE MLOAD PUSH20 0x574A36516C6D726E415667344778476767726E67 NUMBER JUMP ADDRESS BASEFEE TIMESTAMP TIMESTAMP PUSH2 0x4D4A PUSH2 0x5037 GAS CALLER GASLIMIT PUSH23 0x5A464739595654574E4A6D4B673241754F416A6D69712B PUSH19 0x6F2F44627A525333456A34426B7A356A533842 0x4C NUMBER PUSH7 0x664F3754674A54 PUSH11 0x754F3064666132374B6747 TIMESTAMP PUSH26 0x696B495257706D6D744F48742F437A71365764793336437A5033 PUSH22 0x654342346A567A644D4E426B544E797931754D4C5476 COINBASE JUMPI PUSH18 0x526E584A327773395550476376597A337774 PUSH16 0x7663334A4E664E3942736A6B3677686C CALLDATALOAD PUSH2 0x4F41 CALLDATALOAD PUSH15 0x6E3864446A566D554E79634D33744A PUSH14 0x30444F2B656F6E4F707478543476 CALLER PUSH27 0x722B3578452F4D5A59324F73357539632B363639353039545A4C76 PUSH15 0x2B58396F3739763362723839612B4E PUSH26 0x2B6F78462B6D63702F543638464C384B7A576433466937754879 PUSH11 0x76664D5458476F375A4141 COINBASE COINBASE COINBASE GASLIMIT PUSH13 0x46546B5375516D43436956424F MSTORE PUSH24 0x304B47676F414141414E5355684555674141414477414141 COINBASE CODESIZE NUMBER COINBASE 0x4D COINBASE COINBASE COINBASE COINBASE 0x4E 0x49 PUSH10 0x6C41414141414E6C424D JUMP GASLIMIT SSTORE COINBASE COINBASE COINBASE COINBASE PUSH17 0x494549774B456B6546436B624554636C48 GASLIMIT CHAINID 0x4D MSTORE SELFBALANCE 0x4A DIFFICULTY 0x4F BALANCE PUSH12 0x324C552F372B763946505673 CALLDATACOPY 0x4D PUSH13 0x5077362F37577966644E523231 NUMBER 0x4F ORIGIN SLOAD SLOAD ADDRESS 0x4E PUSH23 0x4B784E716A53646B634141414141585253546C4D41514F PUSH3 0x595A67 COINBASE COINBASE COINBASE PUSH11 0x5A4A52454655534D667431 MLOAD PUSH22 0x796D7A414D4264424B6C697844674C623733327A7656 PUSH5 0x7A48674150 0x4A COINBASE PUSH18 0x4B4A536242314A4F557A6B312F662B4D5933 PUSH23 0x6E45547051783348304B4557666B762B74316E425A4261 PUSH27 0x6279616C3778317135356235515062434B463764736D584C4E444B 0x2B CALLDATACOPY CALLDATACOPY GASLIMIT DIFFICULTY PUSH10 0x396C6E34546432784C6C PUSH19 0x563066315839726C524D754774693678794950 PUSH5 0x4656693765 0x2B GAS ORIGIN 0x4B PC PUSH18 0x2F4159586B426B4F6C7235674230716A7576 DIFFICULTY CALLDATALOAD PC PUSH9 0x6336705A32786E6A68 CALLDATACOPY CALLDATALOAD PUSH22 0x62484F50684D6A4A74354372543941434F4842574B5A PUSH12 0x55394D744570746D324C6A44 JUMPI CALLDATACOPY COINBASE PUSH23 0x544D7464645551776D7463536C726432673832366B496B PUSH7 0x665735537A6E6A PUSH27 0x4252303772394E4C6D35356F68316E36736C4B7837525772634632 PUSH3 0x4A5A53 PUSH18 0x44755763734C634C79476F626D435041335A CALLER COINBASE CODESIZE PUSH27 0x4F6D5470694C524C5044477454382F3058356F333163424A302B68 PUSH19 0x5857434A78544F7330483746752B735231774E MLOAD PUSH9 0x46517552476C553668 PUSH13 0x6C794975344344355A34327248 PUSH26 0x526472553872516976664F495762614338617557455163304C6B PUSH24 0x78472F416B532B436B736A5069674247545A466338667274 PUSH5 0x6461355065 0x4D PUSH3 0x7A456F PUSH14 0x746D747549575A7371756A33676D COINBASE MSTORE8 BALANCE PUSH27 0x5145764D594F7A6234664F4A473170566830544934694875624E6A JUMPI PUSH26 0x714C532B694F46666D5435635374323647315A65554762416573 PUSH22 0x5A325058444A696A7564357A4968315A6B7258316F50 SLOAD GAS CODECOPY SELFBALANCE PC ORIGIN PUSH9 0x693938784733727631 PUSH8 0x52357A5857586673 PUSH23 0x6D4F3978672B3348423758636A686F617A506E34535532 PUSH6 0x344479382F45 SLOAD PUSH9 0x6B5A426E4B72494657 CALLDATALOAD 0x2F PUSH18 0x476E502F382F2B49466139786D3331314461 0x4F JUMP PUSH18 0x446D76374F2B366179495678674265344668 SSTORE JUMP PUSH25 0x334F2B724572335752784C73643953576D466233486A54696B PC 0x4F CHAINID CALLDATALOAD PUSH21 0x344F2B77516F4C4C44643467343570784555537A32 PUSH21 0x633479772B72564F5534576A4C773541626E416C54 PUSH26 0x49436C6E2B6B317A756F53386F502F4162566A45307171567354 PUSH7 0x4141414141456C CHAINID SLOAD PUSH12 0x5375516D43436956424F5277 ADDRESS 0x4B SELFBALANCE PUSH8 0x6F414141414E5355 PUSH9 0x455567414141447341 COINBASE COINBASE COINBASE CALLDATACOPY TIMESTAMP COINBASE 0x4D COINBASE COINBASE COINBASE COINBASE CALLER NUMBER 0x2B 0x2B COINBASE COINBASE COINBASE COINBASE COINBASE SELFBALANCE CHAINID TIMESTAMP 0x4D JUMP GASLIMIT SSTORE COINBASE COINBASE COINBASE DIFFICULTY CALLDATACOPY PUSH10 0x7773314769444B586742 PUSH11 0x4A514E464751482F754765 COINBASE 0x4D PUSH24 0x724F3042466C4141414141585253546C4D41514F62595A67 COINBASE COINBASE COINBASE PUSH9 0x354A524546554F4D76 PUSH21 0x6B6B46796E44415152536C753846764B7243554565 NUMBER CALLER 0x4A POP PUSH8 0x42596B3679445277 PUSH4 0x594B6964 PUSH24 0x35663656626A466F384E6733694D55434E592B762F743274 CALLDATALOAD PUSH15 0x76397436757272363967642B314D30 CALLDATACOPY SLOAD PUSH5 0x7166766968 0x2F MSIZE CALLDATASIZE 0x4B PUSH9 0x756178704666542B59 SLOAD BASEFEE PUSH14 0x6B434241506172702F456B2B6F44 CALLDATALOAD BASEFEE NUMBER CALLVALUE ORIGIN PUSH6 0x744865542B46 CHAINID NUMBER PUSH3 0x423269 JUMPI PUSH15 0x357764737A304746535137587A7273 0x4C POP MSTORE PUSH18 0x4C567656766F326E586C396C546644413349 PUSH16 0x446C4D433159444966316F7871576E2F DIFFICULTY DIFFICULTY PUSH21 0x4C386469422F7A456239795974697A615338455476 0x2F CODESIZE PUSH8 0x4D39695042423764 SELFBALANCE 0x4C CODECOPY MSIZE PUSH8 0x374D4E452F4B6F6B CODECOPY TIMESTAMP PUSH14 0x6461374E4950384F332F64635769 PUSH23 0x5371785A795531697A5A2B4D327A473332724C61456953 CALLER PUSH23 0x4D6B544E332F484D4C3379554846545239373675635564 PUSH9 0x7A5246414636367067 TIMESTAMP GASLIMIT PUSH15 0x567A465477684177574B74594D4468 PUSH23 0x55344C6C686E3267554942424632642F79564165426C6F PUSH16 0x59443974654E52543759637145547479 CALLDATALOAD PUSH3 0x30744E GAS PUSH25 0x6759706569646F58725555643268506E4A6F59373970425956 ORIGIN PUSH20 0x4A32394A4C30777A544C55683361387858414764 MSTORE PC PUSH24 0x434D544F2F574D4538345756415548486C7A686535527262 GASLIMIT MSTORE PUSH10 0x44636E7A674D4169636E SSTORE PUSH10 0x51615574616D33766175 ADDRESS SELFBALANCE JUMP JUMPI PUSH17 0x706C386B474F5A536F3138506436566779 PUSH18 0x4C4F7475446A66526B57363046755577634C MSTORE MLOAD POP PUSH23 0x362B7148474C6655572F49596C376C434C6E7A4F636832 NUMBER TIMESTAMP NUMBER CALLDATACOPY PUSH26 0x4E76653162476C724F6D654B59564F3761504D6C76522F55466A PUSH13 0x6E5A2F59794F51416443675055 PUSH26 0x354B586D38383876486E67554E6945474D725A74394E64684461 JUMP CODECOPY PUSH22 0x6B3177683262474A2F54764D6439596D6564436A7432 PUSH23 0x6D4E766164372F2F695068636C6350387676504F6C4243 PC PUSH21 0x4A79614749614D7578617235726C315047756A7079 PUSH4 0x63444B31 0x4C PUSH12 0x2B532B70376371713279662F ORIGIN PUSH25 0x624178714A7A6A2B4141414141456C46546B5375516D434369 JUMP TIMESTAMP 0x4F MSTORE PUSH24 0x304B47676F414141414E5355684555674141414477414141 COINBASE CODESIZE TIMESTAMP COINBASE 0x4D COINBASE COINBASE COINBASE DIFFICULTY 0x49 ADDRESS PUSH20 0x5242414141414431424D56455541414144387576 PUSH19 0x36692F59314769442F3550362B76736F354141 COINBASE COINBASE COINBASE PC MSTORE MSTORE8 SLOAD PUSH13 0x4D41514F62595A674141415970 0x4A MSTORE GASLIMIT CHAINID SSTORE 0x4F 0x4D PUSH23 0x743034734E7044414D424E424971574473626342324137 CHAINID DIFFICULTY COINBASE CALLVALUE PUSH11 0x7276365A7A344C4A386C68 0x49 PUSH22 0x306F72456A394567735A542F362F3936583331655872 CHAINID 0x2F PUSH6 0x69756C397257 0x2F CALLER CHAINID TIMESTAMP PC 0x4A CALLDATACOPY PUSH5 0x53676F5852 PUSH7 0x6E676868334170 SLOAD PUSH14 0x445A66734F5A48616D4B7A482F61 0x4D CALLDATACOPY PUSH27 0x717959727479525268474E30494D336C7768585932585672644E4C PUSH27 0x72707A3359784D492B72613568515945587A6C2B725353394D6954 TIMESTAMP PUSH21 0x565A4D523873726A3058363474724963544B334B7A PUSH19 0x726C644C4B56685163654C4D6D2B6C5A693857 BASEFEE GASLIMIT ORIGIN 0x4E PUSH23 0x4C424C4F453762354D2F7A636B5265724161574C697558 CODESIZE CALLDATALOAD PUSH2 0x4B4F COINBASE 0x2B PUSH15 0x707835507753657A444A592F634778 GAS PUSH8 0x4143554C52713435 PUSH17 0x48683131354F505653757154654F513843 GAS PUSH2 0x4C78 MLOAD PUSH12 0x5663515977625A2F764A3266 PUSH27 0x43664C442F4D73756F4F7A67463550683832584D77686763444D67 PUSH3 0x62354C PUSH16 0x7A415470594A33396632733538737538 CODESIZE PUSH21 0x59534F35736C486B64714642575046594E7533644F PC MLOAD PUSH7 0x58537737487337 PUSH22 0x575A6341547334414D337735652F6B724A71424F7659 PUSH21 0x424B724F3563716B6D47325257376E787768525874 PUSH8 0x64545637584A6F64 PUSH19 0x6C777655506159346D397A7863762B47364A6C PUSH22 0x64334F4C4F7977746A4F786E4A72667937763562365A CHAINID JUMPI CALLDATASIZE PUSH7 0x6C5769436A3672 PUSH16 0x584A6E556E7A4C4B3934594E39597236 0x2B MSTORE8 0x2F PUSH13 0x4970616A4F767A372B45414141 COINBASE COINBASE MSTORE8 SSTORE JUMP 0x4F MSTORE 0x4B CALLDATALOAD NUMBER MSIZE 0x49 0x49 RETURNDATASIZE PUSH10 0x56424F5277304B47676F COINBASE COINBASE COINBASE COINBASE 0x4E MSTORE8 SSTORE PUSH9 0x455567414141447341 COINBASE COINBASE COINBASE CALLDATACOPY TIMESTAMP COINBASE 0x4D COINBASE COINBASE COINBASE COINBASE CALLER NUMBER 0x2B 0x2B COINBASE COINBASE COINBASE COINBASE COINBASE GASLIMIT PUSH13 0x424D5645554141414344576B52 SSTORE 0x4C PUSH25 0x6B314769444E6C587176646C47484A41684541414141415852 MSTORE8 SLOAD PUSH13 0x4D41514F62595A674141415864 0x4A MSTORE GASLIMIT CHAINID SSTORE 0x4F 0x4D PUSH23 0x74302B46743943414D426D416B4A6E6A4E66514E676576 CODECOPY 0x4E CALLDATACOPY PUSH11 0x6F41643353415430333258 CALLDATASIZE JUMP ORIGIN 0x49 PUSH26 0x3468515632674A596F7765624364494D58396A563837626D3061 CALLVALUE PUSH8 0x3033636337724E4E PUSH11 0x676B536B6E35365951412B SLOAD GASLIMIT PUSH10 0x6F6A425A75694763374C PUSH14 0x51697A512F464E36526B4A6A7659 CALLDATACOPY PUSH17 0x643071556F4C3056343353733769747263 CODESIZE CALLDATACOPY PUSH10 0x4132747268687A344D31 PUSH18 0x366545756D6163524955627A53674438556B JUMP PUSH8 0x384B327546496475 PUSH19 0x6E64694C757A2B2B6D6354486C594D2B625A78 PUSH4 0x4A734F56 PUSH3 0x635062 ADDRESS ADDRESS ORIGIN 0x4E PUSH20 0x33474733735A32357345344E495A6B696942656D SLOAD JUMPI PUSH4 0x6E783462 0x4A CALLVALUE COINBASE TIMESTAMP MSTORE BASEFEE PUSH20 0x3141734331546D4E2B6677433431724B78316A45 DIFFICULTY PUSH26 0x4867756F45737447644B782B6A2F52785677495052666B614E55 0x2F JUMP PUSH21 0x627745624378376B30414C6F324271654E71544375 0x2F 0x49 GAS CALLDATASIZE CALLVALUE PUSH25 0x46653252534230584248326E4C466A6431385A697A47586C59 0x4D CALLDATACOPY CODESIZE PUSH21 0x5834576F2F736C776F627952627674566A4D307453 0x4F CALLDATASIZE PUSH20 0x686B6352765466314E616561346E357369746E6E MSIZE PUSH18 0x544C7A6E544D7967786E4E686A7548493350 CALLDATACOPY PUSH23 0x5A636A7031516F44356F32355A77396A6553324E495432 PUSH15 0x335966306E45663837466B32396B66 PUSH14 0x3562486E794C79785231336D6E6F PUSH13 0x527061307550334E56376E7333 0x2F PUSH8 0x4B4A535633424565 PUSH6 0x4C7051414141 COINBASE TIMESTAMP 0x4A MSTORE SSTORE CALLDATALOAD GASLIMIT PUSH19 0x6B4A6767673D3D6956424F5277304B47676F41 COINBASE COINBASE COINBASE 0x4E MSTORE8 SSTORE PUSH9 0x455567414141447341 COINBASE COINBASE COINBASE CALLDATACOPY TIMESTAMP COINBASE 0x4D COINBASE COINBASE COINBASE COINBASE CALLER NUMBER 0x2B 0x2B COINBASE COINBASE COINBASE COINBASE COINBASE SELFBALANCE CHAINID TIMESTAMP 0x4D JUMP GASLIMIT SSTORE COINBASE COINBASE COINBASE TIMESTAMP JUMP ORIGIN PUSH5 0x4531476941 PUSH19 0x6A5966506739696B5661312F386572646D7558 TIMESTAMP PC MSIZE POP PUSH4 0x41414141 COINBASE PC MSTORE MSTORE8 SLOAD PUSH13 0x4D41514F62595A674141416656 0x4A MSTORE GASLIMIT CHAINID SSTORE 0x4F 0x4D PUSH23 0x746B6C467932794151686A586359426648665155687138 0x2B PUSH24 0x755941565048324F787A364164594E6D65762F7076796767 MSTORE PUSH7 0x454E5776536768 MSIZE CODECOPY PUSH23 0x59594875662F746E5731392F5432482F364633586D6637 MSIZE POP CALLDATALOAD PUSH13 0x674871503171657343782F6E6F PUSH23 0x75475269556778666E372B4A684E636368724170373375 0x4B JUMP BASEFEE CHAINID 0x2B BASEFEE PUSH10 0x5062624A705352356969 0x4C PUSH27 0x666D486A725A58526D466F34737538324E794B79364D3541312B37 PUSH27 0x626D63655872444F416A4D393978626F776563564D7576777A6E42 PUSH9 0x374448747358446661 PUSH19 0x386E6A6A4E474B6B336D6F6266324C4D2B3863 BALANCE SLOAD CALLDATASIZE CALLDATASIZE SSTORE DIFFICULTY SELFBALANCE 0x4F PUSH6 0x6C436236654C 0x4D PUSH11 0x627A614577362F596E4C44 JUMPI PUSH26 0x5172586A454C7774664A3049705450677352785776586E537743 0x4F PUSH6 0x54513841684D TIMESTAMP PUSH6 0x766142525077 CALLER 0x4D CALLDATASIZE GASLIMIT POP 0x4E PUSH9 0x366F5A6A42524B3769 CALLER 0x2B PUSH8 0x5537744170464D4B POP PUSH10 0x6E396D7451586A616B65 GASLIMIT PUSH2 0x7565 POP PUSH2 0x7638 PUSH9 0x4C7235564F78625830 CALLDATASIZE 0x2B PUSH21 0x7A5944306F76696449764457507450537368615750 PUSH27 0x7348562F454476526B44463756766D447869344F6861335979654A CALLDATACOPY CALLVALUE PUSH19 0x76695041664C2F57375830704E4A38302B5455 PUSH19 0x492B5A713438715731525A3732556C6F464C64 PUSH5 0x71686B6751 CALLDATALOAD CODECOPY 0x4B PUSH11 0x626A785A686663316C3777 PUSH2 0x6E63 PUSH9 0x2B556763306D644D56 PUSH22 0x4F3144554745534970674E4A49304E5968546E555366 PUSH24 0x324B586343686E326F3756436B7461374342655976375932 GASLIMIT 0x4D JUMPI PUSH12 0x6542716D656A6B7957336B2F NUMBER GAS 0x4A PUSH4 0x792F5A67 CALLDATACOPY PUSH25 0x6D364F766157576D316C57657333584A4470724139524F6954 ORIGIN 0x2B PUSH3 0x756261 PUSH20 0x307842353438317036464A4E574F364379766D55 PUSH7 0x6D5354684B6252 ORIGIN PUSH26 0x6B48497A2B303165446D6337717439763536463233735969654A ADDRESS ORIGIN PUSH5 0x713377524B PUSH17 0x2F5265637732662F777350314351414141 COINBASE TIMESTAMP 0x4A MSTORE SSTORE CALLDATALOAD GASLIMIT PUSH19 0x6B4A6767673D3D6956424F5277304B47676F41 COINBASE COINBASE COINBASE 0x4E MSTORE8 SSTORE PUSH9 0x455567414141447341 COINBASE COINBASE COINBASE CALLDATACOPY COINBASE PUSH8 0x4D41414143345378 PUSH16 0x67414141414446424D56455541414142 PUSH15 0x526A4E554C786B3147694172377267 PC COINBASE COINBASE COINBASE COINBASE COINBASE PC MSTORE MSTORE8 SLOAD PUSH13 0x4D41514F62595A67414141555A 0x4A MSTORE GASLIMIT CHAINID SSTORE 0x4B 0x4D 0x2F PUSH21 0x7A6A464C77314151414F43447A49322F4A6F49752F PUSH16 0x704C61424B665578485357726F343250 CODESIZE MSTORE CALLER PUSH18 0x42307935445961705A58714336422F495938 PUSH12 0x4D367831454663584D544279 CODESIZE PUSH21 0x375359662B42412F65335833764F446A3444346F54 PUSH6 0x6C38482F5036 CHAINID PUSH10 0x36762B77354662325047 PUSH24 0x733677345349386257753432424763584639714449434458 CODECOPY PUSH4 0x78345041 CALLDATASIZE PUSH8 0x33752B4E6E64584E PUSH18 0x707A667A55506A7A567155624448744C5462 PUSH13 0x6C48552B46654B6C66474C736F PUSH7 0x63726642706268 MSTORE MSTORE PUSH10 0x58533459343162524F4A PUSH5 0x6954563477 PUSH3 0x6A6365 CALLDATALOAD 0x4C 0x4B MSTORE8 PUSH20 0x755463342F617363536A6A694A79363346454F4D 0x4D CHAINID CALLDATACOPY PUSH6 0x45636636324F ORIGIN POP TIMESTAMP PUSH27 0x69475059347771706F6A6645457A6C7A55786A6366795A6863592B PUSH20 0x744B754F753834673837447A5538354532336970 PUSH7 0x6F6A4A55354357 PUSH4 0x6B7A3034 MSIZE PUSH22 0x6F51633741704C355874574E764E6A616D6A624A776D PUSH7 0x674657346B6574 TIMESTAMP BALANCE GASLIMIT MSTORE8 PUSH12 0x564D2F6E526B2F552F6B3563 0x4E CALLDATASIZE PUSH20 0x396336554D32306E797454645752707150367236 PUSH16 0x56313139725358376433473255545673 ADDRESS PUSH27 0x5A776C513777754B343958376A5034394176492B392B3065394141 COINBASE COINBASE COINBASE GASLIMIT PUSH13 0x46546B5375516D43436956424F MSTORE PUSH24 0x304B47676F414141414E5355684555674141414477414141 COINBASE CODESIZE TIMESTAMP COINBASE 0x4D COINBASE COINBASE COINBASE DIFFICULTY 0x49 ADDRESS PUSH20 0x5242414141414D46424D56455541414143575830 SELFBALANCE BASEFEE JUMP SLOAD PUSH20 0x31476941794D69565A57566C4F546B34364F6978 0x4F PUSH16 0x45372F49794D5448526D6C704B443861 JUMPI NUMBER SELFBALANCE JUMP DIFFICULTY PUSH18 0x51577A364655546255766965364141414141 PC MSTORE MSTORE8 SLOAD PUSH13 0x4D41514F62595A674141415956 0x4A MSTORE GASLIMIT CHAINID SSTORE 0x4F 0x4D PUSH21 0x694741576A5942514D456D4273624143696D49324E SSTORE MSIZE MSTORE8 PUSH9 0x596F41363653656C59 MSTORE8 COINBASE 0x4B COINBASE CALLER PUSH8 0x68577A6676445334 NUMBER JUMP PUSH17 0x677646437855794D525656323561584C63 ADDRESS PUSH22 0x5546794173457269437662493768306C336953656750 POP CALLVALUE COINBASE JUMP CODESIZE PUSH19 0x7A4D7855317348387067337638795876336445 MSTORE PUSH18 0x654F534A7238614B4F73556541776A534953 ORIGIN 0x4C 0x2F 0x4D SELFBALANCE POP MSIZE PC 0x49 COINBASE 0x4C 0x49 PUSH12 0x43776C35416A615A77506645 PUSH12 0x7541595758724473316E466D JUMPI PUSH7 0x73716248544F51 CALLVALUE PUSH12 0x795272694478486C3962686F COINBASE PUSH26 0x6A382B6A696A6E6F323076524D4A6D54334C5948795245702F65 PUSH15 0x37454758753252637768472F686D79 CALLER PUSH13 0x69326434444954316D31374F4A 0x4F PUSH2 0x4765 MSIZE PUSH7 0x5857474D6F6876 JUMPI PUSH5 0x47526B7A36 MSIZE SELFBALANCE MSTORE8 PUSH17 0x6750316C397A38627A367A5A6D5A377577 PUSH24 0x704E74384C616A67466C4E3744784B33764B706558704E45 ORIGIN PUSH15 0x30336D6170765052364F4A4B786D77 PUSH14 0x4256625945574F37336531325736 PUSH14 0x767372747432342B75613975756B 0x2F PUSH10 0x5270704147786E2B4C48 PUSH8 0x516F582B506D4F52 CALLVALUE PUSH23 0x37324738345575594D616D6171716D62576F764D797361 CALLER PUSH2 0x316A POP PUSH10 0x38566D735477706E6F48 0x4A PUSH24 0x2B506D61586C53317343424C382F7A53706D467A34634C57 ORIGIN CHAINID CALLDATACOPY JUMPI GAS JUMP JUMP PC SLOAD PUSH2 0x4855 PUSH12 0x75707936715264735843384B 0x2F PUSH7 0x45574443727765 MLOAD CODESIZE GAS CODESIZE 0x4A PUSH24 0x6E7650504C443150415A2B414F4874686862515479385641 COINBASE COINBASE COINBASE COINBASE GASLIMIT PUSH13 0x46546B5375516D43436956424F MSTORE PUSH24 0x304B47676F414141414E5355684555674141414473414141 COINBASE CALLDATACOPY TIMESTAMP COINBASE 0x4D COINBASE COINBASE COINBASE COINBASE CALLER NUMBER 0x2B 0x2B COINBASE COINBASE COINBASE COINBASE COINBASE DIFFICULTY BALANCE TIMESTAMP 0x4D JUMP GASLIMIT SSTORE COINBASE COINBASE COINBASE TIMESTAMP CALLDATACOPY CALLDATASIZE CHAINID TIMESTAMP PUSH2 0x7754 GASLIMIT BALANCE SELFBALANCE PUSH10 0x444E2F726B6563464278 COINBASE COINBASE COINBASE COINBASE COINBASE PC MSTORE MSTORE8 SLOAD PUSH13 0x4D41514F62595A674141415974 0x4A MSTORE GASLIMIT CHAINID SSTORE 0x4F 0x4D PUSH23 0x74303432747044414D424F424971574473626342324137 CHAINID DIFFICULTY COINBASE CALLVALUE PUSH11 0x7276365A7A34504C345754 PUSH18 0x3446326C46346F2F52494C4755332F586672 PUSH11 0x34767239672F765A56532B CODECOPY PUSH17 0x66627169726B31737077634A6F58377951 MLOAD CALLDATACOPY PUSH8 0x554A374273332B48 0x4D PUSH11 0x6C5246356A2F7447563731 GAS 0x4D PC ORIGIN GAS 0x49 PUSH16 0x776A4736456D547934516A75624C7131 PUSH22 0x4774373130783573596D4766567465776F4D414C3536 0x2F JUMP PUSH17 0x42656D524A693271736B49656558786146 CODECOPY PUSH4 0x57316B4F PUSH17 0x6C5A6C5A3931794F746E4B77674D506C6D SLOAD PUSH7 0x536B7865724467 PUSH3 0x472F6C PUSH8 0x6C76436474386D66 CALLDATALOAD PUSH22 0x51495056674E4C467A58483835614B4F412B6E707835 POP PUSH24 0x53657A444A592F6347785A674143554C5271343570486831 BALANCE CALLDATALOAD 0x4F POP JUMP MSTORE8 PUSH22 0x7154654F5138435A614C78516B5663515977625A2F76 0x4A ORIGIN PUSH7 0x7A43664C422F4D CODESIZE PUSH22 0x6F4F7A674635506A38734F6467444138475A41793279 PC JUMP PUSH15 0x416E5377547635356154767A796237 PUSH27 0x314249366D69636652576F58466F77566732336630705644393948 TIMESTAMP PUSH20 0x752F74354A707842657A67414454446C372B5473 ORIGIN PUSH16 0x4736746933454B67366C79755459725A CHAINID PUSH3 0x755847 NUMBER BALANCE 0x4E PUSH4 0x3252354D PC PUSH5 0x556D683271 PC NUMBER CODECOPY PUSH4 0x2F70446D PUSH2 0x3350 0x4E PUSH24 0x2F5962726D6D7831636F73374C792B4D3757516B742F4C76 0x2F PUSH13 0x72716B3158702B6C574A4B7669 PUSH20 0x687371645366465458764847754C46655753662F TIMESTAMP GAS MSTORE PUSH19 0x576F7A36764867344141414141456C46546B53 PUSH22 0x516D43436956424F5277304B47676F414141414E5355 PUSH9 0x455567414141447741 COINBASE COINBASE COINBASE CODESIZE TIMESTAMP COINBASE 0x4D COINBASE COINBASE COINBASE DIFFICULTY 0x49 ADDRESS PUSH20 0x524241414141456C424D564555414141436E6131 PUSH13 0x79514441314769444A6B6F4A4D 0x4D DIFFICULTY GAS PUSH27 0x4E6462734141414141585253546C4D41514F62595A674141415842 0x4A MSTORE GASLIMIT CHAINID SSTORE 0x4F 0x4D PUSH23 0x74307475746F7A41516747464C727541667034455A4772 NUMBER CALLDATALOAD CHAINID 0x49 COINBASE PUSH16 0x4161582F566862624A4D59734B2B3337 0x4F PUSH4 0x35447876 PUSH12 0x794E34543750542F31544331 CALLVALUE ADDRESS PUSH21 0x314E30546B2F75615635303257663372747A797A74 BASEFEE PUSH5 0x2F5745784A 0x4B PUSH27 0x39787A4647796347434456694A4E7953312B4D3368687A6D623135 CODECOPY 0x2B PUSH16 0x776B6944352F49436A626A5330686359 PUSH13 0x2B393071776E76307167794C54 0x4F 0x2F PUSH19 0x336441536A647455396B6C764B6443796F4F56 0x49 PUSH6 0x6D4346503973 MSTORE8 JUMPI 0x49 CHAINID SSTORE 0x4F GASLIMIT 0x4F PUSH27 0x4C303463446C556D464B35556E6E4449505348357179706735484C PUSH18 0x587A466859476D766D44495748592B334453 PUSH22 0x7653504266596A71437978426E44476838584E71386E 0x4D CALLDATASIZE PUSH26 0x49427253796B4552356A565457796D4178737A636F5845593556 ADDRESS CHAINID COINBASE 0x4B PUSH10 0x736F3535727558415730 PUSH20 0x554264732F336449487A65444179685A36344D34 CALLDATALOAD ORIGIN PUSH13 0x63657159776D5755632F48436E 0x4C PUSH24 0x43485A667A66642F6D5A393563783656586D61566E627932 CALLDATALOAD PUSH17 0x567638337656766C755061754E55753158 PUSH20 0x324E57674D4A74593469566D66626161685A3274 PUSH20 0x4858737974324A757A457938736C335A726A7A66 0x4F MSTORE PC PUSH6 0x4F6F364E2F5A PC CODECOPY 0x2B PUSH20 0x79762B4A39734A76316F6176626847557A764C4D PUSH3 0x5A5050 ORIGIN 0x4C MLOAD 0x2B POP CALLDATACOPY CALLER PUSH10 0x662F4159593256433973 BASEFEE 0x4D PUSH14 0x624141414141456C46546B537551 PUSH14 0x43436956424F5277304B47676F41 COINBASE COINBASE COINBASE 0x4E MSTORE8 SSTORE PUSH9 0x455567414141447741 COINBASE COINBASE COINBASE CODESIZE TIMESTAMP COINBASE 0x4D COINBASE COINBASE COINBASE DIFFICULTY 0x49 ADDRESS PUSH20 0x5242414141414431424D56455541414144323362 PUSH15 0x6C76594931476944343463444A5473 CHAINID 0x4A COINBASE COINBASE COINBASE COINBASE COINBASE PC MSTORE MSTORE8 SLOAD PUSH13 0x4D41514F62595A67414141554A 0x4A MSTORE GASLIMIT CHAINID SSTORE 0x4F 0x4D PUSH23 0x743039474E7779414D426D416B4A766A744C6D427A4139 PUSH9 0x6B6774372B5178302B MSTORE8 PUSH9 0x4D4344783267524D67 ORIGIN PUSH15 0x77784555644A33664D642B48434E73 CODESIZE PUSH4 0x42684B65 SSTORE JUMPI PUSH11 0x6C557A2F4E644C5370562F SELFBALANCE 0x4C PUSH2 0x776B ADDRESS 0x4D CALLVALUE 0x49 PUSH13 0x6834625359767A396A3855566D JUMPI PUSH5 0x6B6470547A TIMESTAMP PUSH18 0x65336A5A753142424F377568564C6C78686A PUSH18 0x35756D5657466C62596A597445752B566F70 PUSH19 0x726A4E693033326A41315246484C3268685674 PUSH9 0x7858577A6862387335 PUSH12 0x5754707A577831634F6C4E6E CALLDATASIZE JUMP PUSH24 0x486537436A7A5741574267667A594A6954674C537A746C51 CALLVALUE CALLVALUE 0x2B MLOAD NUMBER 0x4B COINBASE NUMBER 0x4A PUSH18 0x78482B692F6F705A334159514D4552415468 PUSH20 0x34755A6B725A44516D65454378654357456D5069 COINBASE PUSH17 0x774D314A56707343774D6D62734A4D344F PUSH23 0x374C687738686472734C365930346363537A464B464C58 PUSH15 0x65766E695665354D6B63394D6E5756 PUSH13 0x4652333735636849722B796B43 PUSH9 0x6F735542572B733437 0x2F JUMPI CALLDATACOPY PUSH5 0x63336B6674 JUMPI GASLIMIT 0x2F JUMPI PUSH14 0x544F4337563047773259756C7865 GAS ORIGIN PC PUSH7 0x4D4D39764A2B63 CALLDATASIZE PUSH18 0x6447565250546B2F6F54497A4B5234324B75 PUSH24 0x594538396E442F3444665A524D547635794B723041414141 COINBASE MSTORE8 SSTORE JUMP 0x4F MSTORE 0x4B CALLDATALOAD NUMBER MSIZE 0x49 0x49 RETURNDATASIZE PUSH10 0x56424F5277304B47676F COINBASE COINBASE COINBASE COINBASE 0x4E MSTORE8 SSTORE PUSH9 0x455567414141447741 COINBASE COINBASE COINBASE CODESIZE TIMESTAMP COINBASE 0x4D COINBASE COINBASE COINBASE DIFFICULTY 0x49 ADDRESS PUSH20 0x5242414141414431424D56455541414142373646 TIMESTAMP PUSH2 0x7754 GASLIMIT BALANCE SELFBALANCE PUSH10 0x444E2F726B6563464278 COINBASE COINBASE COINBASE COINBASE COINBASE PC MSTORE MSTORE8 SLOAD PUSH13 0x4D41514F62595A674141415970 0x4A MSTORE GASLIMIT CHAINID SSTORE 0x4F 0x4D PUSH23 0x743034734E7044414D424E424971574473626342324137 CHAINID DIFFICULTY COINBASE CALLVALUE PUSH11 0x7276365A7A344C4A386C68 0x49 PUSH22 0x306F72456A394567735A542F362F3936583331655872 CHAINID 0x2F PUSH6 0x69756C397257 0x2F CALLER CHAINID TIMESTAMP PC 0x4A CALLDATACOPY PUSH5 0x53676F5852 PUSH7 0x6E676868334170 SLOAD PUSH14 0x445A66734F5A48616D4B7A482F61 0x4D CALLDATACOPY PUSH27 0x717959727479525268474E30494D336C7768585932585672644E4C PUSH27 0x72707A3359784D492B72613568515945587A6C2B725353394D6954 TIMESTAMP PUSH21 0x565A4D523873726A3058363474724963544B334B7A PUSH19 0x726C644C4B56685163654C4D6D2B6C5A693857 BASEFEE GASLIMIT ORIGIN 0x4E PUSH23 0x4C424C4F453762354D2F7A636B5265724161574C697558 CODESIZE CALLDATALOAD PUSH2 0x4B4F COINBASE 0x2B PUSH15 0x707835507753657A444A592F634778 GAS PUSH8 0x4143554C52713435 PUSH17 0x48683131354F505653757154654F513843 GAS PUSH2 0x4C78 MLOAD PUSH12 0x5663515977625A2F764A3266 PUSH27 0x43664C442F4D73756F4F7A67463550683832584D77686763444D67 PUSH3 0x62354C PUSH16 0x7A415470594A33396632733538737538 CODESIZE PUSH21 0x59534F35736C486B64714642575046594E7533644F PC MLOAD PUSH7 0x58537737487337 PUSH22 0x575A6341547334414D337735652F6B724A71424F7659 PUSH21 0x424B724F3563716B6D47325257376E787768525874 PUSH8 0x64545637584A6F64 PUSH19 0x6C777655506159346D397A7863762B47364A6C PUSH22 0x64334F4C4F7977746A4F786E4A72667937763562365A CHAINID JUMPI CALLDATASIZE PUSH7 0x6C5769436A3672 PUSH16 0x584A6E556E7A4C4B3934594E39597236 0x2B MSTORE8 0x2F PUSH13 0x4970616A4F767A372B45414141 COINBASE COINBASE MSTORE8 SSTORE JUMP 0x4F MSTORE 0x4B CALLDATALOAD NUMBER MSIZE 0x49 0x49 RETURNDATASIZE PUSH10 0x56424F5277304B47676F COINBASE COINBASE COINBASE COINBASE 0x4E MSTORE8 SSTORE PUSH9 0x455567414141447741 COINBASE COINBASE COINBASE CODESIZE TIMESTAMP COINBASE 0x4D COINBASE COINBASE COINBASE DIFFICULTY 0x49 ADDRESS PUSH20 0x5242414141414431424D56455541414143453166 CODECOPY COINBASE PUSH17 0x7563314769446D39762F626165624E4141 COINBASE COINBASE COINBASE PC MSTORE MSTORE8 SLOAD PUSH13 0x4D41514F62595A674141415970 0x4A MSTORE GASLIMIT CHAINID SSTORE 0x4F 0x4D PUSH23 0x743034734E7044414D424E424971574473626342324137 CHAINID DIFFICULTY COINBASE CALLVALUE PUSH11 0x7276365A7A344C4A386C68 0x49 PUSH22 0x306F72456A394567735A542F362F3936583331655872 CHAINID 0x2F PUSH6 0x69756C397257 0x2F CALLER CHAINID TIMESTAMP PC 0x4A CALLDATACOPY PUSH5 0x53676F5852 PUSH7 0x6E676868334170 SLOAD PUSH14 0x445A66734F5A48616D4B7A482F61 0x4D CALLDATACOPY PUSH27 0x717959727479525268474E30494D336C7768585932585672644E4C PUSH27 0x72707A3359784D492B72613568515945587A6C2B725353394D6954 TIMESTAMP PUSH21 0x565A4D523873726A3058363474724963544B334B7A PUSH19 0x726C644C4B56685163654C4D6D2B6C5A693857 BASEFEE GASLIMIT ORIGIN 0x4E PUSH23 0x4C424C4F453762354D2F7A636B5265724161574C697558 CODESIZE CALLDATALOAD PUSH2 0x4B4F COINBASE 0x2B PUSH15 0x707835507753657A444A592F634778 GAS PUSH8 0x4143554C52713435 PUSH17 0x48683131354F505653757154654F513843 GAS PUSH2 0x4C78 MLOAD PUSH12 0x5663515977625A2F764A3266 PUSH27 0x43664C442F4D73756F4F7A67463550683832584D77686763444D67 PUSH3 0x62354C PUSH16 0x7A415470594A33396632733538737538 CODESIZE PUSH21 0x59534F35736C486B64714642575046594E7533644F PC MLOAD PUSH7 0x58537737487337 PUSH22 0x575A6341547334414D337735652F6B724A71424F7659 PUSH21 0x424B724F3563716B6D47325257376E787768525874 PUSH8 0x64545637584A6F64 PUSH19 0x6C777655506159346D397A7863762B47364A6C PUSH22 0x64334F4C4F7977746A4F786E4A72667937763562365A CHAINID JUMPI CALLDATASIZE PUSH7 0x6C5769436A3672 PUSH16 0x584A6E556E7A4C4B3934594E39597236 0x2B MSTORE8 0x2F PUSH13 0x4970616A4F767A372B45414141 COINBASE COINBASE MSTORE8 SSTORE JUMP 0x4F MSTORE 0x4B CALLDATALOAD NUMBER MSIZE 0x49 0x49 RETURNDATASIZE LOG1 PUSH5 0x736F6C6343 STOP ADDMOD SMOD STOP EXP "
        },
        "methodIdentifiers": {
          "blue_slime()": "233ab6b6",
          "bubble_gum()": "c63fb76f",
          "cosmic()": "d54807e7",
          "getBlueSlime()": "020a41be",
          "getBubbleGum()": "e7d01d7a",
          "getCosmic()": "e6595f42",
          "getGorilla()": "99726ec2",
          "getGreenGoblin()": "34739b2a",
          "getGreenSlime()": "557dd064",
          "getHand1()": "9b45d56d",
          "getHand2()": "8a99b7fb",
          "getHand3()": "888a0b77",
          "getHand4()": "06756729",
          "getPirate()": "b3f22af2",
          "getPlastic()": "240cf269",
          "getRedGoblin()": "1e7b565b",
          "getSkeleton()": "080576e1",
          "getSnowTiger()": "32e8e544",
          "getSquatch()": "9e15f495",
          "getSteve()": "fbe154bb",
          "getSully()": "2817e5be",
          "getTiger()": "ecde9067",
          "getVitiligo()": "c305b2b2",
          "getYellowGoblin()": "8e4f449b",
          "getYeti()": "6941464f",
          "getZombie()": "a592a451",
          "gorilla()": "15c466a6",
          "green_goblin()": "832e548a",
          "green_slime()": "ecc53b5e",
          "pirate()": "45aad66d",
          "plastic()": "0f114e0c",
          "red_goblin()": "ac81d87b",
          "skeleton()": "85ead00a",
          "skin_tone_1()": "96b678a4",
          "skin_tone_2()": "ed6f1156",
          "skin_tone_3()": "7f478d38",
          "skin_tone_4()": "da2643bc",
          "snow_tiger()": "0e2a8038",
          "squatch()": "43cf51ff",
          "steve()": "697e9262",
          "sully()": "4e9e4cfa",
          "tiger()": "44d333ff",
          "vitiligo()": "c7c866b2",
          "yellow_goblin()": "5408e269",
          "yeti()": "343e613a",
          "zombie()": "a1b9bb53"
        }
      }
    }
  }
}