{
  "_format": "hh-sol-artifact-1",
  "contractName": "Game",
  "sourceName": "@Allcontracts/Game.sol",
  "abi": [
    {
      "inputs": [
        {
          "internalType": "uint256",
          "name": "subscriptionId",
          "type": "uint256"
        }
      ],
      "stateMutability": "payable",
      "type": "constructor"
    },
    {
      "inputs": [],
      "name": "ApprovalCallerNotOwnerNorApproved",
      "type": "error"
    },
    {
      "inputs": [],
      "name": "ApprovalQueryForNonexistentToken",
      "type": "error"
    },
    {
      "inputs": [],
      "name": "BalanceQueryForZeroAddress",
      "type": "error"
    },
    {
      "inputs": [],
      "name": "InvalidQueryRange",
      "type": "error"
    },
    {
      "inputs": [],
      "name": "MintERC2309QuantityExceedsLimit",
      "type": "error"
    },
    {
      "inputs": [],
      "name": "MintToZeroAddress",
      "type": "error"
    },
    {
      "inputs": [],
      "name": "MintZeroQuantity",
      "type": "error"
    },
    {
      "inputs": [],
      "name": "NotCompatibleWithSpotMints",
      "type": "error"
    },
    {
      "inputs": [
        {
          "internalType": "address",
          "name": "owner",
          "type": "address"
        }
      ],
      "name": "OwnableInvalidOwner",
      "type": "error"
    },
    {
      "inputs": [
        {
          "internalType": "address",
          "name": "account",
          "type": "address"
        }
      ],
      "name": "OwnableUnauthorizedAccount",
      "type": "error"
    },
    {
      "inputs": [],
      "name": "OwnerQueryForNonexistentToken",
      "type": "error"
    },
    {
      "inputs": [],
      "name": "OwnershipNotInitializedForExtraData",
      "type": "error"
    },
    {
      "inputs": [],
      "name": "SequentialMintExceedsLimit",
      "type": "error"
    },
    {
      "inputs": [],
      "name": "SequentialUpToTooSmall",
      "type": "error"
    },
    {
      "inputs": [],
      "name": "SpotMintTokenIdTooSmall",
      "type": "error"
    },
    {
      "inputs": [],
      "name": "TokenAlreadyExists",
      "type": "error"
    },
    {
      "inputs": [],
      "name": "TransferCallerNotOwnerNorApproved",
      "type": "error"
    },
    {
      "inputs": [],
      "name": "TransferFromIncorrectOwner",
      "type": "error"
    },
    {
      "inputs": [],
      "name": "TransferToNonERC721ReceiverImplementer",
      "type": "error"
    },
    {
      "inputs": [],
      "name": "TransferToZeroAddress",
      "type": "error"
    },
    {
      "inputs": [],
      "name": "URIQueryForNonexistentToken",
      "type": "error"
    },
    {
      "anonymous": false,
      "inputs": [
        {
          "indexed": true,
          "internalType": "address",
          "name": "owner",
          "type": "address"
        },
        {
          "indexed": true,
          "internalType": "address",
          "name": "approved",
          "type": "address"
        },
        {
          "indexed": true,
          "internalType": "uint256",
          "name": "tokenId",
          "type": "uint256"
        }
      ],
      "name": "Approval",
      "type": "event"
    },
    {
      "anonymous": false,
      "inputs": [
        {
          "indexed": true,
          "internalType": "address",
          "name": "owner",
          "type": "address"
        },
        {
          "indexed": true,
          "internalType": "address",
          "name": "operator",
          "type": "address"
        },
        {
          "indexed": false,
          "internalType": "bool",
          "name": "approved",
          "type": "bool"
        }
      ],
      "name": "ApprovalForAll",
      "type": "event"
    },
    {
      "anonymous": false,
      "inputs": [
        {
          "indexed": true,
          "internalType": "uint256",
          "name": "fromTokenId",
          "type": "uint256"
        },
        {
          "indexed": false,
          "internalType": "uint256",
          "name": "toTokenId",
          "type": "uint256"
        },
        {
          "indexed": true,
          "internalType": "address",
          "name": "from",
          "type": "address"
        },
        {
          "indexed": true,
          "internalType": "address",
          "name": "to",
          "type": "address"
        }
      ],
      "name": "ConsecutiveTransfer",
      "type": "event"
    },
    {
      "anonymous": false,
      "inputs": [
        {
          "indexed": true,
          "internalType": "address",
          "name": "player",
          "type": "address"
        }
      ],
      "name": "FailedPass",
      "type": "event"
    },
    {
      "anonymous": false,
      "inputs": [
        {
          "indexed": false,
          "internalType": "string",
          "name": "message",
          "type": "string"
        }
      ],
      "name": "FinalRoundStarted",
      "type": "event"
    },
    {
      "anonymous": false,
      "inputs": [
        {
          "indexed": false,
          "internalType": "string",
          "name": "message",
          "type": "string"
        }
      ],
      "name": "GamePaused",
      "type": "event"
    },
    {
      "anonymous": false,
      "inputs": [
        {
          "indexed": false,
          "internalType": "string",
          "name": "message",
          "type": "string"
        }
      ],
      "name": "GameRestarted",
      "type": "event"
    },
    {
      "anonymous": false,
      "inputs": [
        {
          "indexed": false,
          "internalType": "string",
          "name": "message",
          "type": "string"
        }
      ],
      "name": "GameResumed",
      "type": "event"
    },
    {
      "anonymous": false,
      "inputs": [
        {
          "indexed": false,
          "internalType": "string",
          "name": "message",
          "type": "string"
        }
      ],
      "name": "GameStarted",
      "type": "event"
    },
    {
      "anonymous": false,
      "inputs": [
        {
          "indexed": false,
          "internalType": "uint256",
          "name": "count",
          "type": "uint256"
        }
      ],
      "name": "HandsActivated",
      "type": "event"
    },
    {
      "anonymous": false,
      "inputs": [
        {
          "indexed": false,
          "internalType": "string",
          "name": "message",
          "type": "string"
        }
      ],
      "name": "MintingEnded",
      "type": "event"
    },
    {
      "anonymous": false,
      "inputs": [
        {
          "indexed": false,
          "internalType": "uint256",
          "name": "round",
          "type": "uint256"
        }
      ],
      "name": "NewRound",
      "type": "event"
    },
    {
      "anonymous": false,
      "inputs": [
        {
          "indexed": true,
          "internalType": "address",
          "name": "previousOwner",
          "type": "address"
        },
        {
          "indexed": true,
          "internalType": "address",
          "name": "newOwner",
          "type": "address"
        }
      ],
      "name": "OwnershipTransferred",
      "type": "event"
    },
    {
      "anonymous": false,
      "inputs": [
        {
          "indexed": true,
          "internalType": "address",
          "name": "player",
          "type": "address"
        }
      ],
      "name": "PlayerWon",
      "type": "event"
    },
    {
      "anonymous": false,
      "inputs": [
        {
          "indexed": false,
          "internalType": "uint256",
          "name": "tokenId",
          "type": "uint256"
        },
        {
          "indexed": false,
          "internalType": "address",
          "name": "player",
          "type": "address"
        }
      ],
      "name": "PotatoExploded",
      "type": "event"
    },
    {
      "anonymous": false,
      "inputs": [
        {
          "indexed": false,
          "internalType": "uint32",
          "name": "amount",
          "type": "uint32"
        },
        {
          "indexed": true,
          "internalType": "address",
          "name": "player",
          "type": "address"
        }
      ],
      "name": "PotatoMinted",
      "type": "event"
    },
    {
      "anonymous": false,
      "inputs": [
        {
          "indexed": false,
          "internalType": "address",
          "name": "hotHands",
          "type": "address"
        },
        {
          "indexed": false,
          "internalType": "uint256",
          "name": "tokenId",
          "type": "uint256"
        }
      ],
      "name": "PotatoObtained",
      "type": "event"
    },
    {
      "anonymous": false,
      "inputs": [
        {
          "indexed": false,
          "internalType": "uint256",
          "name": "tokenIdFrom",
          "type": "uint256"
        },
        {
          "indexed": false,
          "internalType": "uint256",
          "name": "tokenIdTo",
          "type": "uint256"
        },
        {
          "indexed": false,
          "internalType": "address",
          "name": "yielder",
          "type": "address"
        }
      ],
      "name": "PotatoPassed",
      "type": "event"
    },
    {
      "anonymous": false,
      "inputs": [
        {
          "indexed": false,
          "internalType": "uint256",
          "name": "requestId",
          "type": "uint256"
        },
        {
          "indexed": false,
          "internalType": "uint256[]",
          "name": "randomWords",
          "type": "uint256[]"
        }
      ],
      "name": "RequestFulfilled",
      "type": "event"
    },
    {
      "anonymous": false,
      "inputs": [
        {
          "indexed": false,
          "internalType": "uint256",
          "name": "requestId",
          "type": "uint256"
        },
        {
          "indexed": false,
          "internalType": "uint32",
          "name": "numWords",
          "type": "uint32"
        }
      ],
      "name": "RequestSent",
      "type": "event"
    },
    {
      "anonymous": false,
      "inputs": [
        {
          "indexed": true,
          "internalType": "address",
          "name": "player",
          "type": "address"
        }
      ],
      "name": "SuccessfulPass",
      "type": "event"
    },
    {
      "anonymous": false,
      "inputs": [
        {
          "indexed": true,
          "internalType": "address",
          "name": "from",
          "type": "address"
        },
        {
          "indexed": true,
          "internalType": "address",
          "name": "to",
          "type": "address"
        },
        {
          "indexed": true,
          "internalType": "uint256",
          "name": "tokenId",
          "type": "uint256"
        }
      ],
      "name": "Transfer",
      "type": "event"
    },
    {
      "anonymous": false,
      "inputs": [
        {
          "indexed": false,
          "internalType": "uint256",
          "name": "time",
          "type": "uint256"
        }
      ],
      "name": "UpdatedTimer",
      "type": "event"
    },
    {
      "inputs": [],
      "name": "DECREASE_DURATION",
      "outputs": [
        {
          "internalType": "uint256",
          "name": "",
          "type": "uint256"
        }
      ],
      "stateMutability": "view",
      "type": "function"
    },
    {
      "inputs": [],
      "name": "DECREASE_INTERVAL",
      "outputs": [
        {
          "internalType": "uint256",
          "name": "",
          "type": "uint256"
        }
      ],
      "stateMutability": "view",
      "type": "function"
    },
    {
      "inputs": [],
      "name": "INITIAL_POTATO_EXPLOSION_DURATION",
      "outputs": [
        {
          "internalType": "uint256",
          "name": "",
          "type": "uint256"
        }
      ],
      "stateMutability": "view",
      "type": "function"
    },
    {
      "inputs": [],
      "name": "TOTAL_PASSES",
      "outputs": [
        {
          "internalType": "uint256",
          "name": "",
          "type": "uint256"
        }
      ],
      "stateMutability": "view",
      "type": "function"
    },
    {
      "inputs": [
        {
          "internalType": "uint256",
          "name": "tokenId",
          "type": "uint256"
        }
      ],
      "name": "_isTokenActive",
      "outputs": [
        {
          "internalType": "bool",
          "name": "",
          "type": "bool"
        }
      ],
      "stateMutability": "view",
      "type": "function"
    },
    {
      "inputs": [],
      "name": "_maxperwallet",
      "outputs": [
        {
          "internalType": "uint256",
          "name": "",
          "type": "uint256"
        }
      ],
      "stateMutability": "view",
      "type": "function"
    },
    {
      "inputs": [],
      "name": "_maxsupplyPerRound",
      "outputs": [
        {
          "internalType": "uint256",
          "name": "",
          "type": "uint256"
        }
      ],
      "stateMutability": "view",
      "type": "function"
    },
    {
      "inputs": [],
      "name": "_owner",
      "outputs": [
        {
          "internalType": "address",
          "name": "",
          "type": "address"
        }
      ],
      "stateMutability": "view",
      "type": "function"
    },
    {
      "inputs": [],
      "name": "_price",
      "outputs": [
        {
          "internalType": "uint256",
          "name": "",
          "type": "uint256"
        }
      ],
      "stateMutability": "view",
      "type": "function"
    },
    {
      "inputs": [],
      "name": "activeAddresses",
      "outputs": [
        {
          "internalType": "uint256",
          "name": "",
          "type": "uint256"
        }
      ],
      "stateMutability": "view",
      "type": "function"
    },
    {
      "inputs": [
        {
          "internalType": "address",
          "name": "",
          "type": "address"
        }
      ],
      "name": "activePlayers",
      "outputs": [
        {
          "internalType": "bool",
          "name": "",
          "type": "bool"
        }
      ],
      "stateMutability": "view",
      "type": "function"
    },
    {
      "inputs": [
        {
          "internalType": "uint256",
          "name": "",
          "type": "uint256"
        }
      ],
      "name": "activeTokens",
      "outputs": [
        {
          "internalType": "uint256",
          "name": "",
          "type": "uint256"
        }
      ],
      "stateMutability": "view",
      "type": "function"
    },
    {
      "inputs": [
        {
          "internalType": "address",
          "name": "",
          "type": "address"
        }
      ],
      "name": "addressActiveTokenCount",
      "outputs": [
        {
          "internalType": "uint256",
          "name": "",
          "type": "uint256"
        }
      ],
      "stateMutability": "view",
      "type": "function"
    },
    {
      "inputs": [
        {
          "internalType": "address",
          "name": "to",
          "type": "address"
        },
        {
          "internalType": "uint256",
          "name": "tokenId",
          "type": "uint256"
        }
      ],
      "name": "approve",
      "outputs": [],
      "stateMutability": "payable",
      "type": "function"
    },
    {
      "inputs": [
        {
          "internalType": "address",
          "name": "owner",
          "type": "address"
        }
      ],
      "name": "balanceOf",
      "outputs": [
        {
          "internalType": "uint256",
          "name": "",
          "type": "uint256"
        }
      ],
      "stateMutability": "view",
      "type": "function"
    },
    {
      "inputs": [
        {
          "internalType": "uint256",
          "name": "",
          "type": "uint256"
        }
      ],
      "name": "charityFunds",
      "outputs": [
        {
          "internalType": "uint256",
          "name": "",
          "type": "uint256"
        }
      ],
      "stateMutability": "view",
      "type": "function"
    },
    {
      "inputs": [],
      "name": "checkExplosion",
      "outputs": [],
      "stateMutability": "nonpayable",
      "type": "function"
    },
    {
      "inputs": [],
      "name": "closeMinting",
      "outputs": [],
      "stateMutability": "nonpayable",
      "type": "function"
    },
    {
      "inputs": [],
      "name": "currentGeneration",
      "outputs": [
        {
          "internalType": "uint32",
          "name": "",
          "type": "uint32"
        }
      ],
      "stateMutability": "view",
      "type": "function"
    },
    {
      "inputs": [],
      "name": "endMinting",
      "outputs": [],
      "stateMutability": "nonpayable",
      "type": "function"
    },
    {
      "inputs": [
        {
          "internalType": "uint256",
          "name": "tokenId",
          "type": "uint256"
        }
      ],
      "name": "explicitOwnershipOf",
      "outputs": [
        {
          "components": [
            {
              "internalType": "address",
              "name": "addr",
              "type": "address"
            },
            {
              "internalType": "uint64",
              "name": "startTimestamp",
              "type": "uint64"
            },
            {
              "internalType": "bool",
              "name": "burned",
              "type": "bool"
            },
            {
              "internalType": "uint24",
              "name": "extraData",
              "type": "uint24"
            }
          ],
          "internalType": "struct IERC721A.TokenOwnership",
          "name": "ownership",
          "type": "tuple"
        }
      ],
      "stateMutability": "view",
      "type": "function"
    },
    {
      "inputs": [
        {
          "internalType": "uint256[]",
          "name": "tokenIds",
          "type": "uint256[]"
        }
      ],
      "name": "explicitOwnershipsOf",
      "outputs": [
        {
          "components": [
            {
              "internalType": "address",
              "name": "addr",
              "type": "address"
            },
            {
              "internalType": "uint64",
              "name": "startTimestamp",
              "type": "uint64"
            },
            {
              "internalType": "bool",
              "name": "burned",
              "type": "bool"
            },
            {
              "internalType": "uint24",
              "name": "extraData",
              "type": "uint24"
            }
          ],
          "internalType": "struct IERC721A.TokenOwnership[]",
          "name": "",
          "type": "tuple[]"
        }
      ],
      "stateMutability": "view",
      "type": "function"
    },
    {
      "inputs": [
        {
          "internalType": "address",
          "name": "",
          "type": "address"
        }
      ],
      "name": "failedPasses",
      "outputs": [
        {
          "internalType": "uint256",
          "name": "",
          "type": "uint256"
        }
      ],
      "stateMutability": "view",
      "type": "function"
    },
    {
      "inputs": [
        {
          "internalType": "address",
          "name": "user",
          "type": "address"
        }
      ],
      "name": "getActiveTokenCount",
      "outputs": [
        {
          "internalType": "uint256",
          "name": "",
          "type": "uint256"
        }
      ],
      "stateMutability": "view",
      "type": "function"
    },
    {
      "inputs": [],
      "name": "getActiveTokenIds",
      "outputs": [
        {
          "internalType": "uint256[]",
          "name": "",
          "type": "uint256[]"
        }
      ],
      "stateMutability": "view",
      "type": "function"
    },
    {
      "inputs": [],
      "name": "getActiveTokens",
      "outputs": [
        {
          "internalType": "uint256",
          "name": "",
          "type": "uint256"
        }
      ],
      "stateMutability": "view",
      "type": "function"
    },
    {
      "inputs": [
        {
          "internalType": "address",
          "name": "user",
          "type": "address"
        }
      ],
      "name": "getActiveTokensOfOwner",
      "outputs": [
        {
          "internalType": "uint256[]",
          "name": "",
          "type": "uint256[]"
        }
      ],
      "stateMutability": "view",
      "type": "function"
    },
    {
      "inputs": [],
      "name": "getAllWinners",
      "outputs": [
        {
          "internalType": "address[]",
          "name": "",
          "type": "address[]"
        }
      ],
      "stateMutability": "view",
      "type": "function"
    },
    {
      "inputs": [
        {
          "internalType": "uint256",
          "name": "tokenId",
          "type": "uint256"
        }
      ],
      "name": "getApproved",
      "outputs": [
        {
          "internalType": "address",
          "name": "",
          "type": "address"
        }
      ],
      "stateMutability": "view",
      "type": "function"
    },
    {
      "inputs": [],
      "name": "getExplosionTime",
      "outputs": [
        {
          "internalType": "uint256",
          "name": "",
          "type": "uint256"
        }
      ],
      "stateMutability": "view",
      "type": "function"
    },
    {
      "inputs": [],
      "name": "getGameState",
      "outputs": [
        {
          "internalType": "string",
          "name": "",
          "type": "string"
        }
      ],
      "stateMutability": "view",
      "type": "function"
    },
    {
      "inputs": [
        {
          "internalType": "uint256",
          "name": "tokenId",
          "type": "uint256"
        }
      ],
      "name": "getImageString",
      "outputs": [
        {
          "internalType": "string",
          "name": "",
          "type": "string"
        }
      ],
      "stateMutability": "view",
      "type": "function"
    },
    {
      "inputs": [
        {
          "internalType": "address",
          "name": "player",
          "type": "address"
        }
      ],
      "name": "getPlayerStats",
      "outputs": [
        {
          "internalType": "uint256",
          "name": "",
          "type": "uint256"
        },
        {
          "internalType": "uint256",
          "name": "",
          "type": "uint256"
        },
        {
          "internalType": "uint256",
          "name": "",
          "type": "uint256"
        }
      ],
      "stateMutability": "view",
      "type": "function"
    },
    {
      "inputs": [],
      "name": "getPotatoOwner",
      "outputs": [
        {
          "internalType": "address",
          "name": "",
          "type": "address"
        }
      ],
      "stateMutability": "view",
      "type": "function"
    },
    {
      "inputs": [
        {
          "internalType": "uint256",
          "name": "_requestId",
          "type": "uint256"
        }
      ],
      "name": "getRequestStatus",
      "outputs": [
        {
          "internalType": "bool",
          "name": "fulfilled",
          "type": "bool"
        },
        {
          "internalType": "uint256[]",
          "name": "randomWords",
          "type": "uint256[]"
        }
      ],
      "stateMutability": "view",
      "type": "function"
    },
    {
      "inputs": [
        {
          "internalType": "uint256",
          "name": "",
          "type": "uint256"
        }
      ],
      "name": "hallOfFame",
      "outputs": [
        {
          "internalType": "address",
          "name": "",
          "type": "address"
        }
      ],
      "stateMutability": "view",
      "type": "function"
    },
    {
      "inputs": [
        {
          "internalType": "uint256",
          "name": "",
          "type": "uint256"
        }
      ],
      "name": "hands",
      "outputs": [
        {
          "internalType": "bool",
          "name": "hasPotato",
          "type": "bool"
        },
        {
          "internalType": "uint32",
          "name": "generation",
          "type": "uint32"
        },
        {
          "internalType": "bool",
          "name": "isActive",
          "type": "bool"
        },
        {
          "internalType": "uint8",
          "name": "background",
          "type": "uint8"
        },
        {
          "internalType": "uint8",
          "name": "hand_type",
          "type": "uint8"
        },
        {
          "internalType": "uint8",
          "name": "potato",
          "type": "uint8"
        }
      ],
      "stateMutability": "view",
      "type": "function"
    },
    {
      "inputs": [
        {
          "internalType": "address",
          "name": "owner",
          "type": "address"
        },
        {
          "internalType": "address",
          "name": "operator",
          "type": "address"
        }
      ],
      "name": "isApprovedForAll",
      "outputs": [
        {
          "internalType": "bool",
          "name": "",
          "type": "bool"
        }
      ],
      "stateMutability": "view",
      "type": "function"
    },
    {
      "inputs": [],
      "name": "lastRequestId",
      "outputs": [
        {
          "internalType": "uint256",
          "name": "",
          "type": "uint256"
        }
      ],
      "stateMutability": "view",
      "type": "function"
    },
    {
      "inputs": [],
      "name": "metadataHandler",
      "outputs": [
        {
          "internalType": "contract MetadataHandler",
          "name": "",
          "type": "address"
        }
      ],
      "stateMutability": "view",
      "type": "function"
    },
    {
      "inputs": [
        {
          "internalType": "uint256",
          "name": "count",
          "type": "uint256"
        }
      ],
      "name": "mintHand",
      "outputs": [],
      "stateMutability": "payable",
      "type": "function"
    },
    {
      "inputs": [],
      "name": "name",
      "outputs": [
        {
          "internalType": "string",
          "name": "",
          "type": "string"
        }
      ],
      "stateMutability": "view",
      "type": "function"
    },
    {
      "inputs": [
        {
          "internalType": "uint256",
          "name": "_requestId",
          "type": "uint256"
        },
        {
          "internalType": "uint256[]",
          "name": "_randomWords",
          "type": "uint256[]"
        }
      ],
      "name": "onRandomWords",
      "outputs": [],
      "stateMutability": "nonpayable",
      "type": "function"
    },
    {
      "inputs": [],
      "name": "owner",
      "outputs": [
        {
          "internalType": "address",
          "name": "",
          "type": "address"
        }
      ],
      "stateMutability": "view",
      "type": "function"
    },
    {
      "inputs": [
        {
          "internalType": "uint256",
          "name": "tokenId",
          "type": "uint256"
        }
      ],
      "name": "ownerOf",
      "outputs": [
        {
          "internalType": "address",
          "name": "",
          "type": "address"
        }
      ],
      "stateMutability": "view",
      "type": "function"
    },
    {
      "inputs": [
        {
          "internalType": "uint256",
          "name": "tokenIdTo",
          "type": "uint256"
        }
      ],
      "name": "passPotato",
      "outputs": [],
      "stateMutability": "nonpayable",
      "type": "function"
    },
    {
      "inputs": [],
      "name": "pauseGame",
      "outputs": [],
      "stateMutability": "nonpayable",
      "type": "function"
    },
    {
      "inputs": [
        {
          "internalType": "uint256",
          "name": "",
          "type": "uint256"
        }
      ],
      "name": "players",
      "outputs": [
        {
          "internalType": "address",
          "name": "",
          "type": "address"
        }
      ],
      "stateMutability": "view",
      "type": "function"
    },
    {
      "inputs": [],
      "name": "potatoTokenId",
      "outputs": [
        {
          "internalType": "uint256",
          "name": "",
          "type": "uint256"
        }
      ],
      "stateMutability": "view",
      "type": "function"
    },
    {
      "inputs": [
        {
          "internalType": "uint256",
          "name": "",
          "type": "uint256"
        }
      ],
      "name": "projectFunds",
      "outputs": [
        {
          "internalType": "uint256",
          "name": "",
          "type": "uint256"
        }
      ],
      "stateMutability": "view",
      "type": "function"
    },
    {
      "inputs": [
        {
          "internalType": "bool",
          "name": "enableNativePayment",
          "type": "bool"
        }
      ],
      "name": "randomize",
      "outputs": [
        {
          "internalType": "uint256",
          "name": "",
          "type": "uint256"
        }
      ],
      "stateMutability": "nonpayable",
      "type": "function"
    },
    {
      "inputs": [],
      "name": "renounceOwnership",
      "outputs": [],
      "stateMutability": "nonpayable",
      "type": "function"
    },
    {
      "inputs": [
        {
          "internalType": "uint256",
          "name": "",
          "type": "uint256"
        }
      ],
      "name": "requestIds",
      "outputs": [
        {
          "internalType": "uint256",
          "name": "",
          "type": "uint256"
        }
      ],
      "stateMutability": "view",
      "type": "function"
    },
    {
      "inputs": [],
      "name": "restartGame",
      "outputs": [],
      "stateMutability": "nonpayable",
      "type": "function"
    },
    {
      "inputs": [],
      "name": "resumeGame",
      "outputs": [],
      "stateMutability": "nonpayable",
      "type": "function"
    },
    {
      "inputs": [
        {
          "internalType": "address",
          "name": "",
          "type": "address"
        }
      ],
      "name": "rewards",
      "outputs": [
        {
          "internalType": "uint256",
          "name": "",
          "type": "uint256"
        }
      ],
      "stateMutability": "view",
      "type": "function"
    },
    {
      "inputs": [
        {
          "internalType": "uint256",
          "name": "",
          "type": "uint256"
        }
      ],
      "name": "roundFunds",
      "outputs": [
        {
          "internalType": "uint256",
          "name": "",
          "type": "uint256"
        }
      ],
      "stateMutability": "view",
      "type": "function"
    },
    {
      "inputs": [],
      "name": "roundMints",
      "outputs": [
        {
          "internalType": "uint256",
          "name": "",
          "type": "uint256"
        }
      ],
      "stateMutability": "view",
      "type": "function"
    },
    {
      "inputs": [
        {
          "internalType": "uint256",
          "name": "",
          "type": "uint256"
        }
      ],
      "name": "s_requests",
      "outputs": [
        {
          "internalType": "bool",
          "name": "fulfilled",
          "type": "bool"
        },
        {
          "internalType": "bool",
          "name": "exists",
          "type": "bool"
        }
      ],
      "stateMutability": "view",
      "type": "function"
    },
    {
      "inputs": [],
      "name": "s_subscriptionId",
      "outputs": [
        {
          "internalType": "uint256",
          "name": "",
          "type": "uint256"
        }
      ],
      "stateMutability": "view",
      "type": "function"
    },
    {
      "inputs": [
        {
          "internalType": "address",
          "name": "from",
          "type": "address"
        },
        {
          "internalType": "address",
          "name": "to",
          "type": "address"
        },
        {
          "internalType": "uint256",
          "name": "tokenId",
          "type": "uint256"
        }
      ],
      "name": "safeTransferFrom",
      "outputs": [],
      "stateMutability": "payable",
      "type": "function"
    },
    {
      "inputs": [
        {
          "internalType": "address",
          "name": "from",
          "type": "address"
        },
        {
          "internalType": "address",
          "name": "to",
          "type": "address"
        },
        {
          "internalType": "uint256",
          "name": "tokenId",
          "type": "uint256"
        },
        {
          "internalType": "bytes",
          "name": "_data",
          "type": "bytes"
        }
      ],
      "name": "safeTransferFrom",
      "outputs": [],
      "stateMutability": "payable",
      "type": "function"
    },
    {
      "inputs": [
        {
          "internalType": "address",
          "name": "operator",
          "type": "address"
        },
        {
          "internalType": "bool",
          "name": "approved",
          "type": "bool"
        }
      ],
      "name": "setApprovalForAll",
      "outputs": [],
      "stateMutability": "nonpayable",
      "type": "function"
    },
    {
      "inputs": [
        {
          "internalType": "address",
          "name": "addy",
          "type": "address"
        }
      ],
      "name": "setInventoryManager",
      "outputs": [],
      "stateMutability": "nonpayable",
      "type": "function"
    },
    {
      "inputs": [
        {
          "internalType": "address",
          "name": "handler",
          "type": "address"
        }
      ],
      "name": "setVRFHandler",
      "outputs": [],
      "stateMutability": "nonpayable",
      "type": "function"
    },
    {
      "inputs": [],
      "name": "startGame",
      "outputs": [],
      "stateMutability": "nonpayable",
      "type": "function"
    },
    {
      "inputs": [],
      "name": "startGameWithoutMinting",
      "outputs": [],
      "stateMutability": "nonpayable",
      "type": "function"
    },
    {
      "inputs": [
        {
          "internalType": "address",
          "name": "",
          "type": "address"
        }
      ],
      "name": "successfulPasses",
      "outputs": [
        {
          "internalType": "uint256",
          "name": "",
          "type": "uint256"
        }
      ],
      "stateMutability": "view",
      "type": "function"
    },
    {
      "inputs": [
        {
          "internalType": "bytes4",
          "name": "interfaceId",
          "type": "bytes4"
        }
      ],
      "name": "supportsInterface",
      "outputs": [
        {
          "internalType": "bool",
          "name": "",
          "type": "bool"
        }
      ],
      "stateMutability": "view",
      "type": "function"
    },
    {
      "inputs": [],
      "name": "symbol",
      "outputs": [
        {
          "internalType": "string",
          "name": "",
          "type": "string"
        }
      ],
      "stateMutability": "view",
      "type": "function"
    },
    {
      "inputs": [
        {
          "internalType": "uint256",
          "name": "",
          "type": "uint256"
        }
      ],
      "name": "teamFunds",
      "outputs": [
        {
          "internalType": "uint256",
          "name": "",
          "type": "uint256"
        }
      ],
      "stateMutability": "view",
      "type": "function"
    },
    {
      "inputs": [
        {
          "internalType": "uint256",
          "name": "tokenId",
          "type": "uint256"
        }
      ],
      "name": "tokenURI",
      "outputs": [
        {
          "internalType": "string",
          "name": "",
          "type": "string"
        }
      ],
      "stateMutability": "view",
      "type": "function"
    },
    {
      "inputs": [
        {
          "internalType": "address",
          "name": "",
          "type": "address"
        },
        {
          "internalType": "uint256",
          "name": "",
          "type": "uint256"
        }
      ],
      "name": "tokensMintedPerRound",
      "outputs": [
        {
          "internalType": "uint256",
          "name": "",
          "type": "uint256"
        }
      ],
      "stateMutability": "view",
      "type": "function"
    },
    {
      "inputs": [
        {
          "internalType": "address",
          "name": "owner",
          "type": "address"
        }
      ],
      "name": "tokensOfOwner",
      "outputs": [
        {
          "internalType": "uint256[]",
          "name": "",
          "type": "uint256[]"
        }
      ],
      "stateMutability": "view",
      "type": "function"
    },
    {
      "inputs": [
        {
          "internalType": "address",
          "name": "owner",
          "type": "address"
        },
        {
          "internalType": "uint256",
          "name": "start",
          "type": "uint256"
        },
        {
          "internalType": "uint256",
          "name": "stop",
          "type": "uint256"
        }
      ],
      "name": "tokensOfOwnerIn",
      "outputs": [
        {
          "internalType": "uint256[]",
          "name": "",
          "type": "uint256[]"
        }
      ],
      "stateMutability": "view",
      "type": "function"
    },
    {
      "inputs": [
        {
          "internalType": "address",
          "name": "",
          "type": "address"
        },
        {
          "internalType": "uint256",
          "name": "",
          "type": "uint256"
        }
      ],
      "name": "tokensOwnedByUser",
      "outputs": [
        {
          "internalType": "uint256",
          "name": "",
          "type": "uint256"
        }
      ],
      "stateMutability": "view",
      "type": "function"
    },
    {
      "inputs": [],
      "name": "totalSupply",
      "outputs": [
        {
          "internalType": "uint256",
          "name": "result",
          "type": "uint256"
        }
      ],
      "stateMutability": "view",
      "type": "function"
    },
    {
      "inputs": [
        {
          "internalType": "address",
          "name": "",
          "type": "address"
        }
      ],
      "name": "totalWins",
      "outputs": [
        {
          "internalType": "uint256",
          "name": "",
          "type": "uint256"
        }
      ],
      "stateMutability": "view",
      "type": "function"
    },
    {
      "inputs": [
        {
          "internalType": "address",
          "name": "from",
          "type": "address"
        },
        {
          "internalType": "address",
          "name": "to",
          "type": "address"
        },
        {
          "internalType": "uint256",
          "name": "tokenId",
          "type": "uint256"
        }
      ],
      "name": "transferFrom",
      "outputs": [],
      "stateMutability": "payable",
      "type": "function"
    },
    {
      "inputs": [
        {
          "internalType": "address",
          "name": "newOwner",
          "type": "address"
        }
      ],
      "name": "transferOwnership",
      "outputs": [],
      "stateMutability": "nonpayable",
      "type": "function"
    },
    {
      "inputs": [
        {
          "internalType": "address",
          "name": "user",
          "type": "address"
        }
      ],
      "name": "userHasPotatoToken",
      "outputs": [
        {
          "internalType": "bool",
          "name": "",
          "type": "bool"
        }
      ],
      "stateMutability": "view",
      "type": "function"
    },
    {
      "inputs": [],
      "name": "vrfHandler",
      "outputs": [
        {
          "internalType": "contract VRFHandler",
          "name": "",
          "type": "address"
        }
      ],
      "stateMutability": "view",
      "type": "function"
    },
    {
      "inputs": [
        {
          "internalType": "uint256",
          "name": "",
          "type": "uint256"
        }
      ],
      "name": "winners",
      "outputs": [
        {
          "internalType": "address",
          "name": "",
          "type": "address"
        }
      ],
      "stateMutability": "view",
      "type": "function"
    },
    {
      "inputs": [
        {
          "internalType": "uint256",
          "name": "round",
          "type": "uint256"
        },
        {
          "internalType": "string",
          "name": "category",
          "type": "string"
        }
      ],
      "name": "withdrawCategoryFunds",
      "outputs": [],
      "stateMutability": "nonpayable",
      "type": "function"
    },
    {
      "inputs": [],
      "name": "withdrawWinnersFunds",
      "outputs": [],
      "stateMutability": "nonpayable",
      "type": "function"
    }
  ],
  "bytecode": "0x60806040819052600c8054600160a01b600160f01b0319167c2625a00000000100030000000000000000000000000000000000000000179055600e805461ffff191690556012805463ffffffff19166001908117909155662386f26fc10000601355612710601455600360155560006016819055601755610258601955601b557f9e1344a1247c8a1785d0a4681a27152bffdb43666ae5bf7d14d24a5efd44bf71601f5561590f388190039081908339810160408190526100bf916103f8565b6040805180820182526007808252662aa725a727aba760c91b6020808401829052845180860190955291845290830152339160026100fd83826104b0565b50600361010a82826104b0565b50600160005550506001600160a01b03811661014057604051631e4fbdf760e01b81526000600482015260240160405180910390fd5b610149816103a6565b50603280546001810190915560007f11df491316f14931039edfd4f8964c9a443b862f02d4c7611d18c2bc4e6ff697909101819055604080518082019091526006815265145d595d595960d21b60208083019190915291805260299091527fbc72c27881d499e9ea29f42d0975d4e269d866b929e1b555435cbfe829a9d200906101d390826104b0565b506040805180820190915260078152664d696e74696e6760c81b6020808301919091526001600052602990527f6e777cacfc4ad3a3cac3b8e17ccbbe9f6893bdc61d89783315eee44e3959da219061022b90826104b0565b50604080518082019091526007815266506c6179696e6760c81b6020808301919091526002600052602990527f0e7ad7371109721849e84e0aa8f38c7e2d52987cf4198b383fc809a992a35e2f9061028390826104b0565b5060408051808201909152600681526514185d5cd95960d21b6020808301919091526003600052602990527fd183863b3c0bf41d16900072a0fb18fc55924f70979571eeaf4ae275fe9bd7a8906102da90826104b0565b5060408051808201909152600b81526a46696e616c20537461676560a81b6020808301919091526004600052602990527fc0697d2f1fce52aa225d0458a7b27ad1956d52964cfd4c2be7f9306a6f1400ef9061033690826104b0565b5060408051808201909152600580825264115b99195960da1b602080840191909152600091909152602990527f101e69429c70f0e5bdf1ca2519786bb700a226052b30ab320372e4d9b3d6148a9061038e90826104b0565b506031805460ff191690556001601b55600d5561056e565b600980546001600160a01b038381166001600160a01b0319831681179093556040519116919082907f8be0079c531659141344cd1fd0a4f28419497f9722a3daafe3b4186f6b6457e090600090a35050565b60006020828403121561040a57600080fd5b5051919050565b634e487b7160e01b600052604160045260246000fd5b600181811c9082168061043b57607f821691505b60208210810361045b57634e487b7160e01b600052602260045260246000fd5b50919050565b601f8211156104ab57806000526020600020601f840160051c810160208510156104885750805b601f840160051c820191505b818110156104a85760008155600101610494565b50505b505050565b81516001600160401b038111156104c9576104c9610411565b6104dd816104d78454610427565b84610461565b6020601f82116001811461051157600083156104f95750848201515b600019600385901b1c1916600184901b1784556104a8565b600084815260208120601f198516915b828110156105415787850151825560209485019460019092019101610521565b508482101561055f5786840151600019600387901b60f8161c191681555b50505050600190811b01905550565b6153928061057d6000396000f3fe6080604052600436106103ea5760003560e01c80638796ba8c1161020b578063b2bdfa7b1161011f578063b2bdfa7b14610c9a578063b5fc028014610cba578063b7d0628b14610cda578063b88d4fde14610cef578063c23dc68f14610d02578063c4df179b14610d2f578063c571ef9a14610d5f578063c87b56dd14610d74578063d65ab5f214610d94578063d75d7b0c14610da9578063d8a4676f14610dbe578063dc6b862714610dec578063e217996814610e0e578063e4fca4f214610e3b578063e8794a0414610e5b578063e985e9c514610e71578063ef70aebf14610eba578063f2fde38b14610ecf578063f3029f5f14610eef578063f71d96cb14610f0f578063f7aaac6214610f2f578063fc2a88c314610f4f57600080fd5b80638796ba8c1461096c578063887e933b1461098c5780638ac00021146109ac5780638b82ec12146109c25780638d25af04146109d75780638d33bb71146109ec5780638da5cb5b146109ff5780638ddb428a14610a145780638e6afff914610a4657806395d89b4114610aea578063969a336d14610aff57806396e9b0e214610b1457806399a2557a14610b415780639be8060d14610b615780639c38766e14610b775780639f224f3514610b8d578063a168fa8914610bad578063a22cb46514610c00578063a2fb117514610c20578063aabdcef314610c40578063ace80a2d14610c6d57600080fd5b8063496fd51811610302578063496fd518146106b1578063499831f2146106c75780634b0eed71146106dc5780634d1ee75e146106fc5780634fd66eae1461071157806356aec584146107795780635bbb21771461078f5780635ced8ef0146107bc5780635d47f321146107dc5780635f5817e3146108095780635fb7c8381461081e5780636352211e1461084b5780636751a89f1461086b57806370a082311461088b578063715018a6146108ab578063794d5560146108c05780637c6d9ba7146108ed5780637eb27f19146109025780638462151c1461091757806385c72c8d1461093757806387491c601461095757600080fd5b806301ffc9a7146103ef57806306fdde03146104245780630700037d14610446578063081812fc14610481578063095ea7b3146104ae57806309647dfe146104c35780630cc9e0d6146104e357806310ba06101461050357806313b147aa1461052357806318160ddd14610538578063199244651461054d578063235b6ea11461056357806323b872dd146105795780632c9ee3da1461058c5780632dc10bfa146105ae5780633cc4c6ce146105e65780633e069e75146105fb5780634046bad31461061b57806341fcb7d71461063b57806342842e0e1461067157806346ce07c414610684575b600080fd5b3480156103fb57600080fd5b5061040f61040a36600461494b565b610f65565b60405190151581526020015b60405180910390f35b34801561043057600080fd5b50610439610fb7565b60405161041b91906149b8565b34801561045257600080fd5b506104736104613660046149e2565b602a6020526000908152604090205481565b60405190815260200161041b565b34801561048d57600080fd5b506104a161049c3660046149fd565b611049565b60405161041b9190614a16565b6104c16104bc366004614a2a565b611084565b005b3480156104cf57600080fd5b506104c16104de3660046149e2565b611094565b3480156104ef57600080fd5b506104c16104fe366004614aff565b6110be565b34801561050f57600080fd5b506104c161051e3660046149fd565b6113f5565b34801561052f57600080fd5b50610473600581565b34801561054457600080fd5b506104736117ac565b34801561055957600080fd5b5061047360175481565b34801561056f57600080fd5b5061047360135481565b6104c1610587366004614b59565b6117d1565b34801561059857600080fd5b506105a1611936565b60405161041b9190614bd2565b3480156105ba57600080fd5b506104736105c9366004614a2a565b602160209081526000928352604080842090915290825290205481565b3480156105f257600080fd5b506104c1611a1b565b34801561060757600080fd5b50610473610616366004614bf5565b611b7a565b34801561062757600080fd5b506104c1610636366004614c10565b611bf9565b34801561064757600080fd5b506104a16106563660046149fd565b6026602052600090815260409020546001600160a01b031681565b6104c161067f366004614b59565b611db1565b34801561069057600080fd5b5061047361069f3660046149fd565b602c6020526000908152604090205481565b3480156106bd57600080fd5b5061047360165481565b3480156106d357600080fd5b506104c1611dcc565b3480156106e857600080fd5b506104736106f73660046149e2565b611ed2565b34801561070857600080fd5b50610473603c81565b34801561071d57600080fd5b5061075e61072c3660046149e2565b6001600160a01b0316600090815260236020908152604080832054602483528184205460259093529220549192909190565b6040805193845260208401929092529082015260600161041b565b34801561078557600080fd5b5061047360155481565b34801561079b57600080fd5b506107af6107aa366004614ccb565b611f3d565b60405161041b9190614d7c565b3480156107c857600080fd5b50600b546104a1906001600160a01b031681565b3480156107e857600080fd5b506104736107f73660046149fd565b602d6020526000908152604090205481565b34801561081557600080fd5b50610473611f89565b34801561082a57600080fd5b506104736108393660046149e2565b60246020526000908152604090205481565b34801561085757600080fd5b506104a16108663660046149fd565b611fa0565b34801561087757600080fd5b50610473610886366004614a2a565b611fab565b34801561089757600080fd5b506104736108a63660046149e2565b611fdc565b3480156108b757600080fd5b506104c1612021565b3480156108cc57600080fd5b506104736108db3660046149fd565b602b6020526000908152604090205481565b3480156108f957600080fd5b506104c1612035565b34801561090e57600080fd5b506104c1612101565b34801561092357600080fd5b506105a16109323660046149e2565b612548565b34801561094357600080fd5b50600a546104a1906001600160a01b031681565b34801561096357600080fd5b506104c161258f565b34801561097857600080fd5b506104736109873660046149fd565b612629565b34801561099857600080fd5b506104396109a73660046149fd565b61264a565b3480156109b857600080fd5b50610473600d5481565b3480156109ce57600080fd5b506104c16127a1565b3480156109e357600080fd5b506104c161282e565b6104c16109fa3660046149fd565b612a2e565b348015610a0b57600080fd5b506104a1612bc7565b348015610a2057600080fd5b50601254610a319063ffffffff1681565b60405163ffffffff909116815260200161041b565b348015610a5257600080fd5b50610aaa610a613660046149fd565b602080526000908152604090205460ff8082169163ffffffff61010082041691600160281b8204811691600160301b8104821691600160381b8204811691600160401b90041686565b60408051961515875263ffffffff90951660208701529215159385019390935260ff908116606085015291821660808401521660a082015260c00161041b565b348015610af657600080fd5b50610439612bd6565b348015610b0b57600080fd5b506104a1612be5565b348015610b2057600080fd5b50610473610b2f3660046149e2565b60256020526000908152604090205481565b348015610b4d57600080fd5b506105a1610b5c366004614dca565b612bf2565b348015610b6d57600080fd5b50610473600f5481565b348015610b8357600080fd5b5061047360145481565b348015610b9957600080fd5b50610473610ba83660046149fd565b612bff565b348015610bb957600080fd5b50610be9610bc83660046149fd565b60276020526000908152604090206001015460ff8082169161010090041682565b60408051921515835290151560208301520161041b565b348015610c0c57600080fd5b506104c1610c1b366004614dfd565b612c0f565b348015610c2c57600080fd5b506104a1610c3b3660046149fd565b612c7b565b348015610c4c57600080fd5b50610473610c5b3660046149fd565b602e6020526000908152604090205481565b348015610c7957600080fd5b50610473610c883660046149e2565b60236020526000908152604090205481565b348015610ca657600080fd5b50600c546104a1906001600160a01b031681565b348015610cc657600080fd5b5061040f610cd53660046149e2565b612ca5565b348015610ce657600080fd5b50610439612d6a565b6104c1610cfd366004614e30565b612db4565b348015610d0e57600080fd5b50610d22610d1d3660046149fd565b612def565b60405161041b9190614eab565b348015610d3b57600080fd5b5061040f610d4a3660046149e2565b60306020526000908152604090205460ff1681565b348015610d6b57600080fd5b50610473612e4a565b348015610d8057600080fd5b50610439610d8f3660046149fd565b612e69565b348015610da057600080fd5b506104c1612faf565b348015610db557600080fd5b50610473600a81565b348015610dca57600080fd5b50610dde610dd93660046149fd565b6130d4565b60405161041b929190614eb9565b348015610df857600080fd5b50610e016131d2565b60405161041b9190614ed4565b348015610e1a57600080fd5b50610473610e293660046149e2565b602f6020526000908152604090205481565b348015610e4757600080fd5b5061040f610e563660046149fd565b613233565b348015610e6757600080fd5b5061047360105481565b348015610e7d57600080fd5b5061040f610e8c366004614f15565b6001600160a01b03918216600090815260076020908152604080832093909416825291909152205460ff1690565b348015610ec657600080fd5b506104c1613280565b348015610edb57600080fd5b506104c1610eea3660046149e2565b6132c8565b348015610efb57600080fd5b506105a1610f0a3660046149e2565b613303565b348015610f1b57600080fd5b506104a1610f2a3660046149fd565b613470565b348015610f3b57600080fd5b506104c1610f4a3660046149e2565b613480565b348015610f5b57600080fd5b5061047360115481565b60006301ffc9a760e01b6001600160e01b031983161480610f9657506380ac58cd60e01b6001600160e01b03198316145b80610fb15750635b5e139f60e01b6001600160e01b03198316145b92915050565b606060028054610fc690614f3f565b80601f0160208091040260200160405190810160405280929190818152602001828054610ff290614f3f565b801561103f5780601f106110145761010080835404028352916020019161103f565b820191906000526020600020905b81548152906001019060200180831161102257829003601f168201915b5050505050905090565b6000611054826134aa565b611068576110686333d1c03960e21b61351d565b506000908152600660205260409020546001600160a01b031690565b61109082826001613527565b5050565b61109c6135ca565b600a80546001600160a01b0319166001600160a01b0392909216919091179055565b6110c66135ca565b604051661c1c9bda9958dd60ca1b602082015260009060270160405160208183030381529060405280519060200120826040516020016111069190614f73565b604051602081830303815290604052805190602001200361119857506000828152602b6020526040902054806111575760405162461bcd60e51b815260040161114e90614f8f565b60405180910390fd5b6000838152602b602052604080822082905551339183156108fc02918491818181858888f19350505050158015611192573d6000803e3d6000fd5b50505050565b604051637465616d60e01b602082015260240160405160208183030381529060405280519060200120826040516020016111d29190614f73565b60405160208183030381529060405280519060200120036112e157506000828152602c60205260409020548061121a5760405162461bcd60e51b815260040161114e90614f8f565b6000838152602c602052604081208190557341447b831cbbffb74883eff27fc5aaa13be3ca52907357b18277b530fa0c1748c29f9b1887b7691ff7019082908290611266600287614fe9565b6040519091506001600160a01b0384169082156108fc029083906000818181858888f1935050505015801561129f573d6000803e3d6000fd5b506040516001600160a01b0383169082156108fc029083906000818181858888f193505050501580156112d6573d6000803e3d6000fd5b505050505050505050565b604051666368617269747960c81b6020820152602701604051602081830303815290604052805190602001208260405160200161131e9190614f73565b60405160208183030381529060405280519060200120036113b557506000828152602d6020526040902054806113665760405162461bcd60e51b815260040161114e90614f8f565b6000838152602d60205260408082208290555173376e50f9036d29038b8ac9bc12c2e9cf9418d4519183156108fc02918491818181858888f19350505050158015611192573d6000803e3d6000fd5b60405162461bcd60e51b815260206004820152601060248201526f496e76616c69642063617465676f727960801b604482015260640161114e565b505050565b600260315460ff16600581111561140e5761140e614ffd565b14806114305750600460315460ff16600581111561142e5761142e614ffd565b145b61144c5760405162461bcd60e51b815260040161114e90615013565b61145581613233565b61149d5760405162461bcd60e51b815260206004820152601960248201527815185c99d95d0813919508191bd95cc81b9bdd08195e1a5cdd603a1b604482015260640161114e565b6114a681611fa0565b6001600160a01b031633036114fa5760405162461bcd60e51b815260206004820152601a60248201527921b0b73737ba103830b9b9903837ba30ba37903a379039b2b63360311b604482015260640161114e565b611505601054611fa0565b6001600160a01b0316336001600160a01b0316146115655760405162461bcd60e51b815260206004820152601d60248201527f596f7520646f6e277420686176652074686520706f7461746f20796574000000604482015260640161114e565b601c5442106115a4576115766135fc565b60405133907fcf119b62aad93f3af3da28dc368c320b7753345101c57f49046add061a7152bd90600090a250565b336000908152602860209081526040808320805482518185028101850190935280835284938301828280156115f857602002820191906000526020600020905b8154815260200190600101908083116115e4575b5050505050905060005b815181101561166d57602060008383815181106116215761162161503d565b60209081029190910181015182528101919091526040016000205460ff1615611665578181815181106116565761165661503d565b6020026020010151925061166d565b600101611602565b50601080546000908152602080526040808220805460ff199081169091558684558683529120805490911660011790555483907ffe5a079bc361b375edd2141570f09d59c60acde1eac8ce90e4c598d8f1ac0286906116cb90611fa0565b601054604080516001600160a01b03909316835260208301919091520160405180910390a16001600f60008282546117039190615053565b9091555050336000908152602360205260408120805460019290611728908490615053565b909155505060405133907f36948e0cca2e060fa563e088b559e806ddc3c7f1dfd061e1d187f26dae0f809890600090a26117606120f0565b7f074edd1a17ffbd5e3b593cc17fcbb434ae1bf70c76fb67ef98a55656fc5d735c838561178e601054611fa0565b60405161179d93929190615066565b60405180910390a15050505b50565b600060018054600054030390506000196117c4613bd7565b146117ce57600854015b90565b60006117dc82613bdd565b6001600160a01b0394851694909150811684146118025761180262a1148160e81b61351d565b60008281526006602052604090208054338082146001600160a01b03881690911417611846576118328633610e8c565b61184657611846632ce44b5f60e11b61351d565b801561185157600082555b6001600160a01b0386811660009081526005602052604080822080546000190190559187168152208054600101905561188e85600160e11b613cb0565b600085815260046020526040812091909155600160e11b841690036118e3576001840160008181526004602052604081205490036118e15760005481146118e15760008181526004602052604090208490555b505b6001600160a01b0385168481887fddf252ad1be2c89b69c2b068fc378daa952ba7f163c4a11628f55a4df523b3ef600080a48060000361192d5761192d633a954ecd60e21b61351d565b50505050505050565b60325460609061197c5760405162461bcd60e51b815260206004820152601160248201527027379030b1ba34bb32903a37b5b2b7399760791b604482015260640161114e565b6032546000906001600160401b0381111561199957611999614a54565b6040519080825280602002602001820160405280156119c2578160200160208202803683370190505b50905060005b603254811015611a1557603281815481106119e5576119e561503d565b9060005260206000200154828281518110611a0257611a0261503d565b60209081029190910101526001016119c8565b50919050565b611a236135ca565b600360315460ff166005811115611a3c57611a3c614ffd565b14611a7b5760405162461bcd60e51b815260206004820152600f60248201526e11d85b59481b9bdd081c185d5cd959608a1b604482015260640161114e565b6002603154610100900460ff166005811115611a9957611a99614ffd565b1480611ac057506004603154610100900460ff166005811115611abe57611abe614ffd565b145b15611aef57601a54601c8190556040519081526000805160206153668339815191529060200160405180910390a15b6031805460ff610100820416919060ff19166001836005811115611b1557611b15614ffd565b02179055507f39a1ac8a9461b12af689eb38857ddbed3c351321bf4e8ef33c3c9047f3938833604051611b7090602080825260149082015273151a194819d85b59481a185cc81c995cdd5b595960621b604082015260600190565b60405180910390a1565b6000611b846135ca565b600b54604051632c87d38760e01b815283151560048201526001600160a01b0390911690632c87d387906024016020604051808303816000875af1158015611bd0573d6000803e3d6000fd5b505050506040513d601f19601f82011682018060405250810190610fb19190615085565b919050565b600b546001600160a01b03163314611c455760405162461bcd60e51b815260206004820152600f60248201526e37b7363c902b29232430b7323632b960891b604482015260640161114e565b80600081518110611c5857611c5861503d565b6020908102919091010151601d819055603254600091611c78919061509e565b905080600003611c86575060015b600060328281548110611c9b57611c9b61503d565b90600052602060002001549050611cb181613cc5565b7ffe2e2d779dba245964d4e3ef9b994be63856fd568bf7d3ca9e224755cb1bd54d8484604051611ce29291906150b2565b60405180910390a16031805460ff19166002179055611cff613d96565b60008051602061536683398151915242601c54611d1c91906150cb565b60405190815260200160405180910390a17fdd825bad545449f0a547ecf7ac86f1bc7fa9c63f6c40143920600a9387e3f8bb604051611d7690602080825260079082015266506c6179696e6760c81b604082015260600190565b60405180910390a16032546040519081527f29b3e67a82c426b9d79981fde9cffe6af3711de2b75240ebf40f66e3990d47929060200161179d565b6113f083838360405180602001604052806000815250612db4565b611dd46135ca565b600260315460ff166005811115611ded57611ded614ffd565b1480611e0f5750600460315460ff166005811115611e0d57611e0d614ffd565b145b80611e305750600160315460ff166005811115611e2e57611e2e614ffd565b145b611e4c5760405162461bcd60e51b815260040161114e90615013565b601c54601a556031805460ff8116919061ff001916610100836005811115611e7657611e76614ffd565b02179055506031805460ff191660031790556040805160208082526006908201526514185d5cd95960d21b918101919091527f83d1a002f38f7d9048b4ba220744395e2b6f3f5196ad00245cc3b7d3c763e96090606001611b70565b60008060015b603254811015611f3657836001600160a01b0316611f1260328381548110611f0257611f0261503d565b9060005260206000200154611fa0565b6001600160a01b031603611f2e5781611f2a816150de565b9250505b600101611ed8565b5092915050565b60408051828152600583901b8082016020019092526060915b8015611f8157601f1980820191860101356000611f7282612def565b8484016020015250611f569050565b509392505050565b603254600090611f9b906001906150cb565b905090565b6000610fb182613bdd565b60286020528160005260406000208181548110611fc757600080fd5b90600052602060002001600091509150505481565b60006001600160a01b038216611ffc57611ffc6323d3ad8160e21b61351d565b506001600160a01b03166000908152600560205260409020546001600160401b031690565b6120296135ca565b6120336000613e18565b565b600260315460ff16600581111561204e5761204e614ffd565b14806120705750600460315460ff16600581111561206e5761206e614ffd565b145b61208c5760405162461bcd60e51b815260040161114e90615013565b612094612e4a565b156120f05760405162461bcd60e51b815260206004820152602660248201527f5374696c6c20676f74206d6f72652074696d6520746f20706173732074686520604482015265706f7461746f60d01b606482015260840161114e565b601c544210612033576120336135fc565b6121096135ca565b600560315460ff16600581111561212257612122614ffd565b14806121445750600060315460ff16600581111561214257612142614ffd565b145b6121605760405162461bcd60e51b815260040161114e906150f7565b600261216a6117ac565b10156121b75760405162461bcd60e51b815260206004820152601c60248201527b4e656564206174206c656173742032204e46547320746f20706c617960201b604482015260640161114e565b60128054600191906000906121d390849063ffffffff16615125565b82546101009290920a63ffffffff818102199093169183160217909155601254604051911681527fa2b5357eea32aeb35142ba36b087f9fe674f34f8b57ce94d30e9f4f572195bcf915060200160405180910390a1612234603260006148d7565b603280546001810182556000918252600080516020615346833981519152018190556016819055600f8190556017819055612271906034906148d7565b60015b61227c6117ac565b81116123cf5780600061228e82611fa0565b603280546001810190915560008051602061534683398151915201839055601254600084815260208080526040808320805460ff1960ff60281b1963ffffffff909716610100029690961665ffffffffff001990911617600160281b17949094169093556001600160a01b0384168252602f9052908120549192500361238a576001601760008282546123219190615053565b90915550506034805460018082019092557f46bddb1178e94d7f2892ff5f366840eb658911794f2c3a44c450aa2c505186c10180546001600160a01b0319166001600160a01b0384169081179091556000908152602260205260409020805460ff191690911790555b6001600160a01b0381166000908152602f602052604081208054600192906123b3908490615053565b92505081905550505080806123c7906150de565b915050612274565b506032546000906123e2906001906150cb565b60125460408051426020820152449181019190915260e09190911b6001600160e01b03191660608201526064016040516020818303038152906040528051906020012060001c612432919061509e565b61243d906001615053565b90506000603282815481106124545761245461503d565b9060005260206000200154905061246a81613cc5565b6031805460ff1916600217905561247f613d96565b60008051602061536683398151915242601c5461249c91906150cb565b60405190815260200160405180910390a17f4c49022e3faa3d594bcd4c0a41d358281ad8bb232d3d0cdb1add1e71a9daf26660405161250690602080825260179082015276506c6179696e6720776974686f7574206d696e74696e6760481b604082015260600190565b60405180910390a16032546040519081527f29b3e67a82c426b9d79981fde9cffe6af3711de2b75240ebf40f66e3990d47929060200160405180910390a15050565b6060600019612555613bd7565b1461256a5761256a63bdba09d760e01b61351d565b600054600190606082821461258757612584858484613e6a565b90505b949350505050565b6125976135ca565b600160315460ff1660058111156125b0576125b0614ffd565b146125cd5760405162461bcd60e51b815260040161114e90615141565b6031805460ff19169055604080516020808252600e908201526d135a5b9d1a5b99c818db1bdcd95960921b918101919091527f83d1a002f38f7d9048b4ba220744395e2b6f3f5196ad00245cc3b7d3c763e96090606001611b70565b6033818154811061263957600080fd5b600091825260209091200154905081565b6060612655826134aa565b61269d5760405162461bcd60e51b81526020600482015260196024820152784e6f7420612076616c69642070616972206f662068616e647360381b604482015260640161114e565b60008281526020808052604091829020825160c081018452905460ff8082161515808452610100830463ffffffff1694840194909452600160281b82048116151583860152600160301b8204811660608401819052600160381b8304821660808501819052600160401b90930490911660a08401819052600a54955163915bb12960e01b81526004810192909252602482019290925260448101939093526064830152916001600160a01b03169063915bb129906084015b600060405180830381865afa158015612772573d6000803e3d6000fd5b505050506040513d6000823e601f3d908101601f1916820160405261279a919081019061516b565b9392505050565b336000908152602a6020526040902054806127f35760405162461bcd60e51b81526020600482015260126024820152714e6f2072657761726420746f20636c61696d60701b604482015260640161114e565b336000818152602a60205260408082208290555183156108fc0291849190818181858888f19350505050158015611090573d6000803e3d6000fd5b6128366135ca565b600360315460ff16600581111561284f5761284f614ffd565b14806128715750600560315460ff16600581111561286f5761286f614ffd565b145b6128b85760405162461bcd60e51b815260206004820152601860248201527711d85b59481b9bdd081c185d5cd959081bdc88195b99195960421b604482015260640161114e565b6031805460ff191690556128ce603260006148d7565b60006016819055601080548252602080526040822080546001600160481b0319169055819055600f81905560178190555b60345481101561299f576000602f6000603484815481106129225761292261503d565b60009182526020808320909101546001600160a01b03168352820192909252604001812091909155603480546022918391859081106129635761296361503d565b6000918252602080832091909101546001600160a01b031683528201929092526040019020805460ff19169115159190911790556001016128ff565b506129ac603460006148d7565b6032805460018101909155600060008051602061534683398151915290910181905560125463ffffffff168152602e602052604080822091909155517f8673398807d3029e2d8b5ea5b088383aa2bc8e34c2cf1d0095096a3914bfb76390611b7090602080825260069082015265145d595d595960d21b604082015260600190565b600160315460ff166005811115612a4757612a47614ffd565b14612a645760405162461bcd60e51b815260040161114e90615141565b60008111612ab15760405162461bcd60e51b815260206004820152601a602482015279135d5cdd081b5a5b9d08185d081b19585cdd081bdb994813919560321b604482015260640161114e565b6000805b82811015612adb57612ac8600183615125565b9150612ad2613fc5565b50600101612ab5565b5060405163ffffffff8216815233907f5050f856871f4ffa5f2ef778ffa25e960a501da9eaf10fe6c41186b83f27718c9060200160405180910390a23360009081526022602052604090205460ff16612b4957336000908152602260205260409020805460ff191660011790555b8160166000828254612b5b9190615053565b909155505033600090815260216020908152604080832060125463ffffffff16845290915281208054849290612b92908490615053565b909155505060125463ffffffff166000908152602e602052604081208054349290612bbe908490615053565b90915550505050565b6009546001600160a01b031690565b606060038054610fc690614f3f565b6000611f9b601054611fa0565b6060612587848484613e6a565b6032818154811061263957600080fd5b3360008181526007602090815260408083206001600160a01b03871680855290835292819020805460ff191686151590811790915590519081529192917f17307eab39ab6107e8899845ad3d59bd9653f200f220920489ca2b5937696c31910160405180910390a35050565b60358181548110612c8b57600080fd5b6000918252602090912001546001600160a01b0316905081565b6001600160a01b038116600090815260286020908152604080832080548251818502810185019093528083528493830182828015612d0257602002820191906000526020600020905b815481526020019060010190808311612cee575b5050505050905060005b8151811015612d605760206000838381518110612d2b57612d2b61503d565b60209081029190910181015182528101919091526040016000205460ff1615612d58575060019392505050565b600101612d0c565b5060009392505050565b60315460609060299060009060ff166005811115612d8a57612d8a614ffd565b6005811115612d9b57612d9b614ffd565b81526020019081526020016000208054610fc690614f3f565b612dbf8484846117d1565b6001600160a01b0383163b1561119257612ddb8484848461435d565b611192576111926368d2bf6b60e11b61351d565b612df76148f5565b60018210611bf457612e07613bd7565b821115612e1757610fb18261443f565b600054821015611bf4575b600082815260046020526040902054612e415760001990910190612e22565b610fb18261443f565b6000601c544210612e5b5750600090565b42601c54611f9b91906150cb565b6060612e74826134aa565b612ed85760405162461bcd60e51b815260206004820152602f60248201527f4552433732314d657461646174613a2055524920717565727920666f72206e6f60448201526e3732bc34b9ba32b73a103a37b5b2b760891b606482015260840161114e565b60008281526020808052604091829020825160c081018452905460ff8082161515808452610100830463ffffffff16948401859052600160281b830482161515848701819052600160301b8404831660608601819052600160381b8504841660808701819052600160401b90950490931660a08601819052600a549751632d811b5f60e21b815261ffff8b166004820152602481019490945260448401949094526064830191909152608482019490945260a481019390935260c4830152916001600160a01b03169063b6046d7c9060e401612755565b612fb76135ca565b600560315460ff166005811115612fd057612fd0614ffd565b1480612ff25750600060315460ff166005811115612ff057612ff0614ffd565b145b61300e5760405162461bcd60e51b815260040161114e906150f7565b6031805460ff191660019081179091556012805460009061303690849063ffffffff16615125565b82546101009290920a63ffffffff818102199093169183160217909155601254604051911681527fa2b5357eea32aeb35142ba36b087f9fe674f34f8b57ce94d30e9f4f572195bcf915060200160405180910390a17f4c49022e3faa3d594bcd4c0a41d358281ad8bb232d3d0cdb1add1e71a9daf266604051611b70906020808252600790820152664d696e74696e6760c81b604082015260600190565b600081815260276020526040812060010154606090610100900460ff166131315760405162461bcd60e51b81526020600482015260116024820152701c995c5d595cdd081b9bdd08199bdd5b99607a1b604482015260640161114e565b6000838152602760209081526040808320815181546080948102820185019093526060810183815290939192849284919084018282801561319157602002820191906000526020600020905b81548152602001906001019080831161317d575b50505091835250506001919091015460ff80821615156020808501919091526101009092041615156040909201919091528101519051909590945092505050565b6060603580548060200260200160405190810160405280929190818152602001828054801561103f57602002820191906000526020600020905b81546001600160a01b0316815260019091019060200180831161320c575050505050905090565b600060015b6032548110156132775782603282815481106132565761325661503d565b90600052602060002001540361326f5750600192915050565b600101613238565b50600092915050565b6132886135ca565b600160315460ff1660058111156132a1576132a1614ffd565b146132be5760405162461bcd60e51b815260040161114e90615141565b6117a96001611b7a565b6132d06135ca565b6001600160a01b0381166132fa576000604051631e4fbdf760e01b815260040161114e9190614a16565b6117a981613e18565b6032546060906000906001600160401b0381111561332357613323614a54565b60405190808252806020026020018201604052801561334c578160200160208202803683370190505b509050600060015b6032548110156133d6576000603282815481106133735761337361503d565b90600052602060002001549050856001600160a01b031661339382611fa0565b6001600160a01b0316036133cd57808484815181106133b4576133b461503d565b6020908102919091010152826133c9816150de565b9350505b50600101613354565b506000816001600160401b038111156133f1576133f1614a54565b60405190808252806020026020018201604052801561341a578160200160208202803683370190505b50905060005b828110156134675783818151811061343a5761343a61503d565b60200260200101518282815181106134545761345461503d565b6020908102919091010152600101613420565b50949350505050565b60348181548110612c8b57600080fd5b6134886135ca565b600b80546001600160a01b0319166001600160a01b0392909216919091179055565b600081600111611bf4576134bc613bd7565b8211156134db57600082815260046020526040902054610fb19061445f565b600054821015611bf45760005b506000828152600460205260408120549081900361351057613509836151e1565b92506134e8565b600160e01b161592915050565b8060005260046000fd5b600061353283611fa0565b905081801561354a5750336001600160a01b03821614155b1561356d576135598133610e8c565b61356d5761356d6367d9dca160e11b61351d565b60008381526006602052604080822080546001600160a01b0319166001600160a01b0388811691821790925591518693918516917f8c5be1e5ebec7d5bd14f71427d1e84f3dd0314c0f7b2291e5b200ac8c7c3b92591a450505050565b336135d3612bc7565b6001600160a01b031614612033573360405163118cdaa760e01b815260040161114e9190614a16565b600260315460ff16600581111561361557613615614ffd565b14806136375750600460315460ff16600581111561363557613635614ffd565b145b6136535760405162461bcd60e51b815260040161114e90615013565b6000613660601054611fa0565b6001600160a01b0381166000908152602460205260408120805492935060019290919061368e908490615053565b90915550506010805460009081526020805260408120805460ff1916905590546136b790614475565b90506136c28161454d565b60108054600090815260208052604090819020805460ff60281b19169055905490517fc4458072bc72fff0aa188968ab7fed665843432396553213437ad9d9545f75ba916137239185909182526001600160a01b0316602082015260400190565b60405180910390a1603254601d5460009161373d9161509e565b6001600160a01b0384166000908152602f60205260408120805492935060019290919061376b9084906150cb565b90915550506001600160a01b0383166000908152602f602052604081205490036137c8576001601760008282546137a291906150cb565b90915550506001600160a01b0383166000908152602260205260409020805460ff191690555b60175460020361384b576031805460ff1916600417905560408051602080825260139082015272119a5b985b08149bdd5b990814dd185c9d1959606a1b8183015290517f844a49a7780773d280fce1e65ef7dc2c5bf883dbe8cdb443cb84760cde62f1b2916060908290030190a1613846613841614603565b613cc5565b613b91565b601754600103613b37576031805460ff191660051790556032805461387c91906001908110611f0257611f0261503d565b6001600160a01b03167f970f935ee01502df35da11db45c29bdd97d8f41d5a0640c1dc3bd96c67f9798760405160405180910390a260356138ca6032600181548110611f0257611f0261503d565b815460018082018455600093845260209093200180546001600160a01b0319166001600160a01b03929092169190911790556032805461391392908110611f0257611f0261503d565b60125463ffffffff16600090815260266020526040812080546001600160a01b0319166001600160a01b03939093169290921790915560328054600192602592909161396a919085908110611f0257611f0261503d565b6001600160a01b03166001600160a01b0316815260200190815260200160002060008282546139999190615053565b909155505060125463ffffffff166000908152602e6020526040902054600a906139c49060046151f8565b6139ce9190614fe9565b602a60006139e96032600181548110611f0257611f0261503d565b6001600160a01b03166001600160a01b031681526020019081526020016000206000828254613a189190615053565b909155505060125463ffffffff166000908152602e6020526040902054600a90613a439060016151f8565b613a4d9190614fe9565b60125463ffffffff166000908152602b602052604081208054909190613a74908490615053565b909155505060125463ffffffff166000908152602e6020526040902054600a90613a9f9060036151f8565b613aa99190614fe9565b60125463ffffffff166000908152602c602052604081208054909190613ad0908490615053565b909155505060125463ffffffff166000908152602e6020526040902054600a90613afb9060026151f8565b613b059190614fe9565b60125463ffffffff166000908152602d602052604081208054909190613b2c908490615053565b90915550613b919050565b613b3f613d96565b60008051602061536683398151915242601c54613b5c91906150cb565b60405190815260200160405180910390a180158015613b7d57506032546001105b15613b86575060015b613b91613841614603565b613b99613d96565b60008051602061536683398151915242601c54613bb691906150cb565b60405190815260200160405180910390a15050600e805461ff001916905550565b60001990565b600081600111613ca05750600081815260046020526040902054613bff613bd7565b821115613c2957613c0f8161445f565b15613c1957919050565b613c29636f96cda160e11b61351d565b80600003613c8d576000548210613c4a57613c4a636f96cda160e11b61351d565b5b50600019016000818152600460205260409020548015613c4b57600160e01b8116600003613c7857919050565b613c88636f96cda160e11b61351d565b613c4b565b600160e01b8116600003613ca057919050565b611bf4636f96cda160e11b61351d565b4260a01b176001600160a01b03919091161790565b60105415613ce65760105460009081526020805260409020805460ff191690555b613cef81613233565b613d315760405162461bcd60e51b8152602060048201526013602482015272546f6b656e206973206e6f742061637469766560681b604482015260640161114e565b601081815560008281526020805260408120805460ff1916600117905590547f074edd1a17ffbd5e3b593cc17fcbb434ae1bf70c76fb67ef98a55656fc5d735c9190613d7c81611fa0565b604051613d8b93929190615066565b60405180910390a150565b60006005600a600f54613da99190614fe9565b613db391906151f8565b613dbe90603c6150cb565b9050600f80821015613dce578091505b600e5460ff16613df757613de28242615053565b601c55600e805460ff19166001179055613e05565b613e018242615053565b601c555b5050600e805461ff001916610100179055565b600980546001600160a01b038381166001600160a01b0319831681179093556040519116919082907f8be0079c531659141344cd1fd0a4f28419497f9722a3daafe3b4186f6b6457e090600090a35050565b6060818310613e8357613e83631960ccad60e11b61351d565b6001831015613e9157600192505b6000805490600019613ea1613bd7565b03613eac5781613eae565b835b9050808410613ebb578093505b6000613ec687611fdc565b9050848610613ed3575060005b8015613fbb578086860311613ee757508484035b604080516001830160051b81019182905294506000613f0588612def565b905060008160400151613f16575080515b60005b600019613f24613bd7565b14613f5257868a03613f3e57613f38613bd7565b60010199505b613f46613bd7565b8a1115613f5257600091505b613f5b8a61443f565b9250604083015160008114613f735760009250613f98565b835115613f7f57835192505b8b831860601b613f98576001820191508a8260051b8a01525b5060018a01995083604052888a1480613fb057508481145b15613f195787525050505b5050509392505050565b6000808080613fdc60646001600160401b0361520f565b613fe790602861523d565b6001600160401b03169050600060646001600160401b03614008919061520f565b61401390604661523d565b6001600160401b0316905061402760005490565b945060006140686140366146a5565b6040518060400160405280600a815260200169109050d2d1d493d5539160b21b815250886001600160401b03166146fd565b905081816001600160401b031610156140bd5782816001600160401b031610156140a757614097600b8261525f565b6140a290600161528d565b6140d3565b6140b260068261525f565b6140a290600c61528d565b6140c860038261525f565b6140d390601261528d565b945060006141136140e26146a5565b6040518060400160405280600981526020016848414e445f5459504560b81b815250896001600160401b03166146fd565b905082816001600160401b031610156141685783816001600160401b031610156141525761414260198261525f565b61414d90600161528d565b61417e565b61415d600a8261525f565b61414d90601a61528d565b61417360078261525f565b61417e90602361528d565b945061418b336001614734565b60328054600181019091556001600160401b03881660008051602061534683398151915290910155336000908152602f60205260408120549003614224576001601760008282546141dc9190615053565b9091555050603480546001810182556000919091527f46bddb1178e94d7f2892ff5f366840eb658911794f2c3a44c450aa2c505186c10180546001600160a01b031916331790555b336000908152602f60205260408120805460019290614244908490615053565b90915550503360009081526028602090815260408083208054600180820183559185528385206001600160401b038d169101819055825160c08101845285815260125463ffffffff90811682870190815282860185815260ff9e8f16606085019081529d8f166080850190815260a085019687529489529680529490962090518154945195519b519251935164ffffffffff1990951690151564ffffffff0019161761010095909616949094029490941761ffff60281b1916600160281b9915159990990260ff60301b191698909817600160301b938a16939093029290921761ffff60381b1916600160381b9789169790970260ff60401b191696909617600160401b91909716029590951790935550929392505050565b604051630a85bd0160e11b81526000906001600160a01b0385169063150b7a02906143929033908990889088906004016152ac565b6020604051808303816000875af19250505080156143cd575060408051601f3d908101601f191682019092526143ca918101906152e9565b60015b614422573d8080156143fb576040519150601f19603f3d011682016040523d82523d6000602084013e614400565b606091505b50805160000361441a5761441a6368d2bf6b60e11b61351d565b805181602001fd5b6001600160e01b031916630a85bd0160e11b149050949350505050565b6144476148f5565b600082815260046020526040902054610fb19061474e565b600160e01b81166001600160a01b039091161190565b6032546000906001106144c55760405162461bcd60e51b81526020600482015260186024820152774e6f7420656e6f7567682061637469766520746f6b656e7360401b604482015260640161114e565b60015b6032548110156145045782603282815481106144e6576144e661503d565b9060005260206000200154036144fc5792915050565b6001016144c8565b5060405162461bcd60e51b815260206004820152601f60248201527f546f6b656e206e6f7420666f756e6420696e20616374697665546f6b656e7300604482015260640161114e565b60325481111561458f5760405162461bcd60e51b815260206004820152600d60248201526c092dcecc2d8d2c840d2dcc8caf609b1b604482015260640161114e565b6032805461459f906001906150cb565b815481106145af576145af61503d565b9060005260206000200154603282815481106145cd576145cd61503d565b60009182526020909120015560328054806145ea576145ea615306565b6001900381819060005260206000200160009055905550565b603254601d546000918291614618919061509e565b905060005b60325481101561469c576032546000906146378385615053565b614641919061509e565b90506000603282815481106146585761465861503d565b90600052602060002001549050601054811415801561467b575061467b81613233565b1561468857949350505050565b82614692816150de565b935050505061461d565b60009250505090565b601e546040516001600160601b03193360601b16602082015242603482018190524860548301526074820152609481019190915260009060b4016040516020818303038152906040528051906020012060001c905090565b60008383836040516020016147149392919061531c565b60408051601f198184030181529190528051602090910120949350505050565b611090828260405180602001604052806000815250614791565b6147566148f5565b6001600160a01b03821681526001600160401b0360a083901c166020820152600160e01b82161515604082015260e89190911c606082015290565b61479b83836147f5565b6001600160a01b0383163b156113f0576000548281035b6147c5600086838060010194508661435d565b6147d9576147d96368d2bf6b60e11b61351d565b8181106147b25781600054146147ee57600080fd5b5050505050565b60008054908290036148115761481163b562e8dd60e01b61351d565b614821836001841460e11b613cb0565b6000828152600460209081526040808320939093556001600160a01b038616808352600590915291812080546001600160401b01860201905581900361487057614870622e076360e81b61351d565b8183018261487c613bd7565b600183031115614896576148966340b23f1d60e11b61351d565b5b808360007fddf252ad1be2c89b69c2b068fc378daa952ba7f163c4a11628f55a4df523b3ef600080a4818160010191508103614897575060005550505050565b50805460008255906000526020600020908101906117a9919061491c565b60408051608081018252600080825260208201819052918101829052606081019190915290565b5b80821115614931576000815560010161491d565b5090565b6001600160e01b0319811681146117a957600080fd5b60006020828403121561495d57600080fd5b813561279a81614935565b60005b8381101561498357818101518382015260200161496b565b50506000910152565b600081518084526149a4816020860160208601614968565b601f01601f19169290920160200192915050565b60208152600061279a602083018461498c565b80356001600160a01b0381168114611bf457600080fd5b6000602082840312156149f457600080fd5b61279a826149cb565b600060208284031215614a0f57600080fd5b5035919050565b6001600160a01b0391909116815260200190565b60008060408385031215614a3d57600080fd5b614a46836149cb565b946020939093013593505050565b634e487b7160e01b600052604160045260246000fd5b604051601f8201601f191681016001600160401b0381118282101715614a9257614a92614a54565b604052919050565b60006001600160401b03821115614ab357614ab3614a54565b50601f01601f191660200190565b6000614ad4614acf84614a9a565b614a6a565b9050828152838383011115614ae857600080fd5b828260208301376000602084830101529392505050565b60008060408385031215614b1257600080fd5b8235915060208301356001600160401b03811115614b2f57600080fd5b8301601f81018513614b4057600080fd5b614b4f85823560208401614ac1565b9150509250929050565b600080600060608486031215614b6e57600080fd5b614b77846149cb565b9250614b85602085016149cb565b929592945050506040919091013590565b600081518084526020840193506020830160005b82811015614bc8578151865260209586019590910190600101614baa565b5093949350505050565b60208152600061279a6020830184614b96565b80358015158114611bf457600080fd5b600060208284031215614c0757600080fd5b61279a82614be5565b60008060408385031215614c2357600080fd5b8235915060208301356001600160401b03811115614c4057600080fd5b8301601f81018513614c5157600080fd5b80356001600160401b03811115614c6a57614c6a614a54565b8060051b614c7a60208201614a6a565b91825260208184018101929081019088841115614c9657600080fd5b6020850194505b83851015614cbc57843580835260209586019590935090910190614c9d565b80955050505050509250929050565b60008060208385031215614cde57600080fd5b82356001600160401b03811115614cf457600080fd5b8301601f81018513614d0557600080fd5b80356001600160401b03811115614d1b57600080fd5b8560208260051b8401011115614d3057600080fd5b6020919091019590945092505050565b80516001600160a01b031682526020808201516001600160401b03169083015260408082015115159083015260609081015162ffffff16910152565b602080825282518282018190526000918401906040840190835b81811015614dbf57614da9838551614d40565b6020939093019260809290920191600101614d96565b509095945050505050565b600080600060608486031215614ddf57600080fd5b614de8846149cb565b95602085013595506040909401359392505050565b60008060408385031215614e1057600080fd5b614e19836149cb565b9150614e2760208401614be5565b90509250929050565b60008060008060808587031215614e4657600080fd5b614e4f856149cb565b9350614e5d602086016149cb565b92506040850135915060608501356001600160401b03811115614e7f57600080fd5b8501601f81018713614e9057600080fd5b614e9f87823560208401614ac1565b91505092959194509250565b60808101610fb18284614d40565b82151581526040602082015260006125876040830184614b96565b602080825282518282018190526000918401906040840190835b81811015614dbf5783516001600160a01b0316835260209384019390920191600101614eee565b60008060408385031215614f2857600080fd5b614f31836149cb565b9150614e27602084016149cb565b600181811c90821680614f5357607f821691505b602082108103611a1557634e487b7160e01b600052602260045260246000fd5b60008251614f85818460208701614968565b9190910192915050565b6020808252601490820152734e6f2066756e647320746f20776974686472617760601b604082015260600190565b634e487b7160e01b600052601260045260246000fd5b634e487b7160e01b600052601160045260246000fd5b600082614ff857614ff8614fbd565b500490565b634e487b7160e01b600052602160045260246000fd5b60208082526010908201526f47616d65206e6f7420706c6179696e6760801b604082015260600190565b634e487b7160e01b600052603260045260246000fd5b80820180821115610fb157610fb1614fd3565b92835260208301919091526001600160a01b0316604082015260600190565b60006020828403121561509757600080fd5b5051919050565b6000826150ad576150ad614fbd565b500690565b8281526040602082015260006125876040830184614b96565b81810381811115610fb157610fb1614fd3565b6000600182016150f0576150f0614fd3565b5060010190565b60208082526014908201527311d85b5948185b1c9958591e481cdd185c9d195960621b604082015260600190565b63ffffffff8181168382160190811115610fb157610fb1614fd3565b60208082526010908201526f47616d65206e6f74206d696e74696e6760801b604082015260600190565b60006020828403121561517d57600080fd5b81516001600160401b0381111561519357600080fd5b8201601f810184136151a457600080fd5b80516151b2614acf82614a9a565b8181528560208385010111156151c757600080fd5b6151d8826020830160208601614968565b95945050505050565b6000816151f0576151f0614fd3565b506000190190565b8082028115828204841417610fb157610fb1614fd3565b60006001600160401b0383168061522857615228614fbd565b806001600160401b0384160491505092915050565b6001600160401b038181168382160290811690818114611f3657611f36614fd3565b60006001600160401b0383168061527857615278614fbd565b806001600160401b0384160691505092915050565b6001600160401b038181168382160190811115610fb157610fb1614fd3565b6001600160a01b03858116825284166020820152604081018390526080606082018190526000906152df9083018461498c565b9695505050505050565b6000602082840312156152fb57600080fd5b815161279a81614935565b634e487b7160e01b600052603160045260246000fd5b838152606060208201526000615335606083018561498c565b905082604083015294935050505056fe11df491316f14931039edfd4f8964c9a443b862f02d4c7611d18c2bc4e6ff69738ceecbc6d45545c00a83e8667d97e3fddb92ba8605bed6111ffd239a8d53d99a164736f6c634300081c000a",
  "linkReferences": {},
  "deployedLinkReferences": {}
}